:020000040800F2
:102000000050002035290008F1280008F3280008B6
:10201000F5280008F7280008F9280008000000004B
:102020000000000000000000000000003164000813
:10203000FB28000800000000C164000805650008D6
:102040007D2900087D2900087D2900087D290008D8
:102050007D2900087D2900087D2900087D290008C8
:102060007D2900087D2900087D2900087D290008B8
:102070007D2900087D2900087D2900087D290008A8
:102080007D2900087D2900087D290008FD28000819
:10209000092900087D2900087D2900087D290008FC
:1020A0007D2900080D2900087D2900087D290008E8
:1020B0007D2900087D2900087D2900087D29000868
:1020C0007D2900087D2900087D2900087D29000858
:1020D0007D2900087D290008192900087D290008AC
:1020E0007D2900087D2900087D29000800000000E6
:1020F00000000000000000000000000000000000E0
:0C21000000000000000000005FF808F183
:1021100010B5054C237833B9044B13B10448AFF321
:1021200000800123237010BD180000200000000073
:10213000B468000808B5034B1BB103490348AFF36B
:10214000008008BD000000001C000020B4680008EA
:1021500080F0004002E000BF81F0004142001FBF5C
:102160005FEA410392EA030F7FEA226C7FEA236C65
:102170006AD04FEA1262D2EB1363C1BFD21841405A
:1021800048404140B8BF5B42192B88BF704710F0F0
:10219000004F40F4000020F07F4018BF404211F093
:1021A000004F41F4000121F07F4118BF494292EAFB
:1021B000030F3FD0A2F1010241FA03FC10EB0C0027
:1021C000C3F1200301FA03F100F0004302D54942B4
:1021D00060EB4000B0F5000F13D3B0F1807F06D361
:1021E00040084FEA310102F10102FE2A51D2B1F159
:1021F000004F40EBC25008BF20F0010040EA03004E
:102200007047490040EB0000013A28BFB0F5000FCD
:10221000EDD2B0FA80FCACF1080CB2EB0C0200FA83
:102220000CF0AABF00EBC25052421843BCBFD040D2
:102230001843704792F0000F81F4000106BF80F44C
:1022400000000132013BB5E74FEA41037FEA226C0F
:1022500018BF7FEA236C21D092EA030F04D092F0DA
:10226000000F08BF0846704790EA010F1CBF00200E
:10227000704712F07F4F04D1400028BF40F000406B
:10228000704712F100723CBF00F50000704700F08B
:10229000004343F0FE4040F4000070477FEA2262B2
:1022A00016BF08467FEA23630146420206BF5FEA83
:1022B000412390EA010F40F4800070474FF0000383
:1022C00004E000BF10F0004348BF40425FEA000C4A
:1022D00008BF704743F0964301464FF000001CE0F2
:1022E00050EA010208BF70474FF000030AE000BF48
:1022F00050EA010208BF704711F0004302D5404286
:1023000061EB41015FEA010C02BF844601460020F7
:1023100043F0B64308BFA3F18053A3F50003BCFA12
:102320008CF2083AA3EBC25310DB01FA02FC6344BF
:1023300000FA02FCC2F12002BCF1004F20FA02F2C6
:1023400043EB020008BF20F00100704702F12002B9
:1023500001FA02FCC2F1200250EA4C0021FA02F21A
:1023600043EB020008BF20EADC7070474FF0FF3CEF
:1023700006E000BF4FF0010C02E000BF4FF0010C7F
:102380004DF804CD4FEA40024FEA41037FEA226C48
:1023900018BF7FEA236C11D001B052EA530C18BF6A
:1023A00090EA010F58BFB2EB030088BFC81738BFCF
:1023B0006FEAE17018BF40F0010070477FEA226CBD
:1023C00002D15FEA402C05D17FEA236CE4D15FEAB9
:1023D000412CE1D05DF8040B704700BF84460846ED
:1023E0006146FFE70FB5FFF7C9FF002848BF10F1AE
:1023F000000F0FBD4DF808EDFFF7F4FF0CBF0120F3
:1024000000205DF808FB00BF4DF808EDFFF7EAFF7C
:1024100034BF012000205DF808FB00BF4DF808ED37
:10242000FFF7E0FF94BF012000205DF808FB00BF2C
:102430004DF808EDFFF7D2FF94BF012000205DF8B2
:1024400008FB00BF4DF808EDFFF7C8FF34BF0120BF
:1024500000205DF808FB00BF42000ED2B2F1FE4F33
:102460000BD34FF09E03B3EB126209D44FEA002363
:1024700043F0004323FA02F070474FF0000070472A
:1024800012F1610F01D1420202D14FF0FF307047CB
:102490004FF00000704700BF30B595B020220021FA
:1024A0000BA804F0CDF91422102500210DEB020039
:1024B00004F0C6F92A46002101A804F0C1F901245C
:1024C0000A23CDE90E450A9302254FF460130AA8AA
:1024D00010941195139301F021FA08B172B6FEE73A
:1024E0000F23CDE905354FF480630790CDE908301F
:1024F000294605A801F0D4FB08B172B6FEE74FF4F7
:10250000007301A80194029301F0A4FC08B172B613
:10251000FEE715B030BD000070B54FF47C430024D9
:102520008AB00126CDE900344FF6FF73154D694698
:102530002846CDE90233CDE905460796049408966E
:1025400000F0A9FC46F2200369462846CDE9003494
:10255000059600F0A0FC022305934FF4C0436946A2
:102560002846CDE9003400F096FC0323059348F299
:10257000200369462846CDE9003400F08CFC0AB0FF
:1025800070BD00BF900000207FB500F0E5FBFFF7B5
:1025900083FF1022002102A804F052F93D4B0221D2
:1025A0009A693D4842F004029A619B69002203F057
:1025B0000403019300250226019B01F0A3F90123E6
:1025C000354802A9CDE90263CDE9045601F0C2F80D
:1025D0000423324CDFF8C8C04FF4402EC4E900C3D6
:1025E0004FF480132046C4E90255C4E904E3A56111
:1025F000A58300F0D5FB08B172B6FEE74FF0FF33BC
:10260000284DADF800008DF8020002902648C5E97B
:1026100000034FF480732846AB6001F04BFF024685
:1026200008B172B6FEE7ADF800008DF80200694609
:10263000284601F09BFD024608B172B6FEE71B4B2F
:10264000284602A9029301F097FE034608B172B62C
:10265000FEE74FF4E13216481649C0E90233C0E9FB
:1026600000120C220361C0E90523C36102F002F9E4
:1026700008B172B6FEE7FFF74FFF204600F07BFC83
:102680003146204600F067FD02F0E4FC02F0EFFC6A
:10269000FEE700BF0010024000080140900000204B
:1026A000006400407C00002000280040010101007F
:1026B00034000020004400400268034B9A4201D1DC
:1026C00000F05CBB704700BF002C01400E4B82B095
:1026D0009A6942F001029A619A6902F0010200923D
:1026E000009ADA6942F08052DA61DB69074A03F046
:1026F00080530193019B536823F0E06343F0007320
:10270000536002B0704700BF00100240000001405B
:1027100010B5044686B01022002102A804F090F8FB
:1027200022681D4B9A4235D103F5D633DA691B482E
:1027300042F00072DA61DA6902A902F000720092D6
:10274000009A9A6942F004029A619B6903F00403BB
:102750000193019B4FF40063029300F0FBFF4FF4E1
:1027600080520223CDE9022303230C4802A90593DA
:1027700000F0F0FF00220721132000F021FE1320BB
:1027800000F04EFE14200022072100F019FE142054
:1027900000F046FE06B010BD006400400008014095
:1027A00007B50B4B02689A420FD101F0B1F8094B03
:1027B000DA6942F00062DA610122DB6903F000634A
:1027C0000193019B044BC3F83C2403B05DF804FB68
:1027D00000280040001002400000424210B50446AC
:1027E00086B01022002102A804F02AF822681A4BB1
:1027F0009A422FD103F5E633DA69184842F40032E1
:10280000DA61DA6902A902F400320092009A9A6948
:10281000002442F004029A619B69042203F004033D
:102820000193019B0223CDE902230323059300F0CA
:1028300091FF082309480DEB0301CDE9023404940C
:1028400000F088FF26202246072100F0B9FD26204F
:1028500000F0E6FD06B010BD004400400008014055
:102860001E4B70B59A6988B042F400629A619B6908
:1028700001A903F400630293064603A8184D029BC6
:1028800001F0CAFA01F0B8FA164B2B6040F2E733B8
:10289000EB60154BB0FBF3F000230138686028466D
:1028A0002B61AB60AB6101F04FFF044680B9284655
:1028B00001F048FE044658B9192000F0B1FD0F2E72
:1028C00009D822463146192000F07AFD074B1E60D8
:1028D000204608B070BD0124FAE700BF0010024096
:1028E000B8000020002C014040420F0008000020EA
:1028F000FEE7FEE7FEE7FEE7FEE77047014800F06F
:1029000047BC00BF90000020FFF7F8BF014801F06E
:1029100047BE00BFB8000020014802F041B800BF28
:1029200034000020014B024A9A60704700ED00E03D
:1029300000200008FFF7F6FF0B480C490C4A002363
:1029400002E0D458C4500433C4188C42F9D3094A65
:10295000094C002301E013600432A242FBD303F0D0
:1029600077FFFFF711FE70470000002014000020E1
:102970005069000818000020EC2A0020FEE7000043
:102980000E4A034692F8000410B5884228BF084654
:10299000002102F20442CCB2A04203F10C0300D8A1
:1029A00010BD1468013143F80C4C54680C3243F8E4
:1029B000084C52F8044C43F8044CECE700F00008D3
:1029C00030B587B01022002102A803F039FF00249F
:1029D00000F0C2FD01230B4D01A902A8CDE904536B
:1029E000029400F063FE002329460022022000F03A
:1029F000F9FD00F0C3FD22460221034800F082FFEA
:102A000007B030BD00F4000800080140F0B5A5B0E3
:102A100006460A2106A8FFF7B3FF0928044645D851
:102A20000C2524AB05FB003545F8786C00F04CF81C
:102A300045F8740C00F05EF81022002145F8700C87
:102A400002A803F0FDFE002600F086FD01231B4DC9
:102A5000013401A9E4B202A8CDE90453029600F0C2
:102A600025FE294622463346022000F0BBFD144FC6
:102A700006AD39462A680023022000F0B3FD6A68DB
:102A8000391D0023022000F0ADFD01360023AA68A5
:102A900007F10801022000F0A5FDF3B29C4207F106
:102AA0000C0705F10C05E4D800F068FD01220221B5
:102AB000044825B0BDE8F04000F024BF00F4000851
:102AC00004F400080008014007B5002201A90848E5
:102AD00001F09EFB9DF804309DF805209DF806004E
:102AE0001B0443EA0223184303B05DF804FB00BF54
:102AF0007C00002007B5002201A9084801F092FCE3
:102B0000BDF805309DF807005BBA9BB200F5FA608E
:102B100043EA004003B05DF804FB00BF7C000020E6
:102B20001FB50C464FF4FD630A468DF804100146AC
:102B30000DF10500009303F0AFFE082CC4F108026C
:102B400004F10500D2B24FF0000188BF00226844B2
:102B500003F076FE044800234FF0FF326946006818
:102B600002F0BDFB04B010BD2C0100207F2307B58F
:102B70008DF805008DF8061001A803218DF80430AA
:102B8000FFF7CEFF03B05DF804FB07B540308DF8CA
:102B900004008DF8051001A80221FFF7C1FF03B062
:102BA0005DF804FB0128014604D8094B1020197078
:102BB000FFF7EBBF831E012B07D8064B1B78012BB9
:102BC000F3D031211020FFF7D1BF1121FAE700BF68
:102BD00001010020000100200B46014680B9032AB4
:102BE0000ED95A8843F212439A4205D10122054B6D
:102BF00027201A70FFF7C9BF35212720FFF7B6BF7E
:102C00001121FAE70001002007B5114B1B78012BB9
:102C100017D8622301288DF800308DF801000CD1FF
:102C20000C4B1868FFF718FC0421ADF80200684649
:102C3000FFF776FF03B05DF804FB022801D1064BD5
:102C4000EFE71121222003B05DF804EBFFF78EBF00
:102C500001010020340100203001002070B51F4B1D
:102C6000A0B01B78022B32D11D4B1B787BB30A21FD
:102C700002A8FFF785FE002459230646CDE900444B
:102C800002AD8DF80030E3B29E4205F10C0501D88B
:102C900020B070BD55F80C3C08211A0A8DF801309F
:102CA0008DF802201A0C1B0E8DF8043055F8043CE8
:102CB0008DF803208DF805301A0A68461B0C8DF834
:102CC00006208DF807300134FFF72AFFDBE71121DA
:102CD000192020B0BDE87040FFF748BF0101002077
:102CE0000001002010B50B4B04461B78022B0AD1C3
:102CF000094B1B783BB1FFF763FE2146BDE810404E
:102D00001420FFF742BF1121BDE810401420FFF747
:102D10002DBF00BF010100200001002007B50B4BB3
:102D200001911B78032B0CD1094B1B784BB100236D
:102D300008481A46006801A902F0D1FA03B05DF80C
:102D400004FB11213420FFF711FFF7E701010020F8
:102D50000001002040010020074A08B51368032045
:102D600043F01003136000F019FB0F20FFF778FD0C
:102D7000FFF7ACFC002008BD00200240034A044BD2
:102D800011681B780B441360704700BF04010020DA
:102D900004000020014B1868704700BF04010020A8
:102DA00038B5044600286ED090F820300BB9FFF7F4
:102DB000AFFC2268136843F001031360FFF7EAFFDA
:102DC000054623685A68D10751D51A6822F00202D5
:102DD0001A60FFF7DFFF054623685A68920754D44C
:102DE000227E0020012A1A680CBF42F0800222F0E5
:102DF00080021A60627E012A1A680CBF42F040020B
:102E000022F040021A60A27E012A1A680CBF42F02A
:102E1000200222F020021A60E27E012A1A680CBF0A
:102E200022F0100242F010021A60227F012A1A6872
:102E30000CBF42F0080222F008021A60627F012AE9
:102E40001A680CBF42F0040222F004021A60D4E9AE
:102E500002210A4321690A4361690A436168013911
:102E60000A43DA610123606284F820300CE0FFF746
:102E700091FF401B0A28A4D9636A43F400336362BC
:102E8000052384F82030012038BDFFF783FF401B65
:102E90000A28A1D9F0E770B590F820200368013A1C
:102EA000012A62D80120D3F8002242F00102C3F8BF
:102EB00000224A69D3F81C5202F01F04A04025EA00
:102EC0000005C3F81C52CD69C44395BBD3F80C521E
:102ED000CE682540C3F80C528D8803EBC20245EA48
:102EE0000645C2F840528E680D8845EA0645C2F88C
:102EF00044528A697ABBD3F804222240C3F80422E0
:102F00000A6962BBD3F814221440C3F814420A6A57
:102F1000012A04BFD3F81C2202434FF0000008BF6F
:102F2000C3F81C22D3F8002222F00102C3F80022C9
:102F300070BD012DDDD1D3F80C520E680543C3F8E6
:102F40000C528D8803EBC20245EA0645C2F8405296
:102F50008E688D89C9E7D3F804220243CEE7D3F8FF
:102F600014220243C3F81422D1E7436A43F48023B6
:102F700043620120DCE738B590F820300446012B8D
:102F80001FD10223026880F82030136823F0010368
:102F90001360FFF7FFFE05462368586810F0010034
:102FA00001D1606238BDFFF7F5FE401B0A28F3D956
:102FB000636A43F400336362052384F82030012000
:102FC000F0E7436A43F400234362F8E7F0B590F872
:102FD00020500468013D012DA6683CD816F0E05F42
:102FE00033D00125C6F3016085401D60D1E9025749
:102FF00000F1180315BB0D681B0147EA4557E75060
:1030000004EB0013050100200E692C44C3F8846111
:10301000097D012902BFD3F8841141F48071C3F8FE
:1030200084115168C4F88C111268C4F88821D3F84F
:10303000802142F00102C3F88021F0BD4E683D437B
:1030400045EAC6051B01E550DAE7436A43F400137D
:1030500043620120F1E7436A43F48023F8E7F0B5C7
:1030600090F82040013C012C71D8066841B9F46801
:10307000A40707D1436A43F4001343620120F0BD63
:103080003469F5E706EB0115D5F8B0710C0107F0CE
:1030900004079760002F50D1D5F8B0717F0D1760ED
:1030A000D5F8B071264407F00207D760D5F8B4719F
:1030B0003F074EBF0827D5F8B47107F00F07176117
:1030C000D5F8B471D5F8B451C7F307272D0C976123
:1030D0005561D6F8B8211A7002682244D2F8B82196
:1030E000120A5A7002682244D2F8B821120C9A705F
:1030F00002682244D2F8B821120EDA700268224423
:10310000D2F8BC211A7102682244D2F8BC21120AFA
:103110005A7102682244D2F8BC21120C9A710268DA
:103120002244D2F8BC21120EDA71036851B9DA6870
:1031300042F02002DA600020A1E7D5F8B071FF0864
:103140005760ADE71A6942F020021A61F3E7436A5B
:1031500043F4802391E790F82030013B012B05D800
:10316000026800205369194351617047436A43F470
:103170008023436201207047704770477047704753
:103180007047704770477047704770477047704787
:103190002DE9F84F036805465E69D3F8049016F0F0
:1031A0000104D3F80880D3F80CB0D3F810A09F69BD
:1031B00027D018F0010F07D0012218F0020F9A60F3
:1031C00000F0A680FFF7D8FF002418F4807F0AD013
:1031D0004FF480722B6818F4007F9A6000F0A7808B
:1031E0002846FFF7CAFF18F4803F0AD04FF4803218
:1031F0002B6818F4003F9A6000F0A9802846FFF77A
:10320000BDFF300707D51BF0100F1FBF10222B6822
:1032100044F40074DA60710708D51BF0080F05D07C
:1032200008222B682846DA60FFF7ACFFB20706D504
:103230002B68DB689B0702D0284601F047FD70062B
:1032400007D51AF0100F1FBF10222B6844F48064BA
:103250001A61B10608D51AF0080F05D008222B68AC
:1032600028461A61FFF790FFF20606D52B681B6906
:103270009B0702D02846FFF786FFB00308D519F058
:10328000100F05D010222B6828465A60FFF77DFFEB
:10329000F10308D519F0080F05D008222B6828463D
:1032A0005A60FFF773FF320429D519F0040F2A681A
:1032B00023D0F30503D5F80748BF44F00104B10556
:1032C00003D5BB0748BF44F00204700503D5790756
:1032D00048BF44F0040433050FD517F070030CD039
:1032E000402B54D043D8202B4BD0302B4CD0102B1C
:1032F00044D0936923F070039361042353602CB18D
:103300006B6A284623436B62FFF741FFBDE8F88FE5
:1033100018F0040F05D118F0080F05D1FFF72FFFA3
:1033200052E74FF4006450E74FF480544DE718F42F
:10333000806F02D044F4005455E718F4006F02D0B7
:1033400044F480444FE72846FFF71AFF4BE718F490
:10335000802F02D044F4004453E718F4002F02D029
:1033600044F480344DE72846FFF70BFF49E7502B24
:1033700010D0602BBDD144F48074BAE744F0080447
:10338000B7E744F01004B4E744F02004B1E744F098
:103390004004AEE744F08004ABE7000007490302B5
:1033A000CA6803F4E06322F4E0621204120C1343CF
:1033B00043F0BF6343F40033CB60704700ED00E09F
:1033C000154B30B5DC68C4F30224C4F10703251D96
:1033D000042B28BF0423062D4FF0FF3594BF002493
:1033E000033C05FA03F321EA0303A54022EA0502A0
:1033F000A340002843EA0203ACBF00F16040074A43
:103400004FEA0313DBB2ABBF00F5614000F00F00E1
:1034100080F80033135430BD00ED00E014ED00E0FF
:10342000002807DB01234109034A00F01F00834005
:1034300042F82130704700BF00E100E090F8212001
:103440000346022A06D0042282630120002283F868
:10345000202070470268C06B116821F00E011160D6
:10346000116821F00101116001211A6C01FA02F2C8
:103470004260002083F82110E8E7000008B590F8CA
:103480002130022B03D004238363012008BD03688D
:103490001A6822F00E021A601A6822F001021A60FD
:1034A000174A93421FD0143293421ED014329342D3
:1034B0001DD0143293421DD0143293421DD01432C9
:1034C000934214BF4FF080734FF480130D4A536042
:1034D000012380F82130002380F82030436B03B1B2
:1034E00098470020D2E70123F0E71023EEE74FF4DE
:1034F0008073EBE74FF48053E8E74FF48033E5E760
:103500000800024000000240114AD36813F0100383
:1035100005D01049CB6943F00203CB611023D26878
:10352000500706D50B4943F00403CA6942F0010273
:10353000CA61074AD169C90708D50648C16941F07F
:103540000401C161D16921F00101D161D3607047EB
:103550000020024008010020064B186910F080008E
:1035600007D0054A5A6002F188325A601869C0F3E0
:10357000C01070470020024023016745034A002025
:10358000136943F080031361704700BF00200240BD
:1035900070B50546FFF7FEFB0646114CE368D807F9
:1035A00012D4E368990644BF2023E360E368DA0697
:1035B00006D4E369DB0703D4E06810F0040007D009
:1035C000FFF7A2FF012003E06B1CE7D00DB9032039
:1035D00070BDFFF7DFFB801BA842DFD9F7E700BF14
:1035E000002002402DE9F84FDFF894A01F469AF81A
:1035F00018300546012B884691463FD001234CF2F6
:1036000050308AF81830FFF7C3FF90BB012D03D06C
:10361000022D14BF0425022500263346DFF864B0CE
:103620003401C4F12001A4F1200207FA01F129FAC2
:1036300004F4CAF81C300C4327FA02F21443DBF8F6
:103640001020A4B242F00102CBF810204CF250300E
:1036500028F81640FFF79CFFDBF8102022F001024B
:10366000CBF8102028B90136F2B295424FF0000392
:10367000D6D800238AF81830BDE8F88F0220FBE77F
:1036800008010020002002400022064BDA61064BB0
:103690001A6942F002021A6158611A6942F0400246
:1036A0001A61704708010020002002402DE9F04116
:1036B000264F05463B7E8846012B44D001243C76AC
:1036C00003684CF25030022B1AD1FFF761FF20B192
:1036D000012000233B76BDE8F0811D4CF861236991
:1036E0004CF2503043F004032361236943F040035C
:1036F0002361FFF74DFF236923F004032361E8E70B
:10370000FFF746FF0028E3D14FF0FF33C8F8003041
:103710002046AE680E4CD5E9023203EB8223B34259
:10372000D7D93046FFF7B0FF4CF25030FFF730FFEB
:10373000236923F00203236110B1C8F80060C8E7D1
:1037400006F58066E7E70220C5E700BF0801002014
:10375000002002402DE9F74F00242646DFF888C1FB
:10376000624BDFF88CE1DFF88C810A6832FA06F5EB
:1037700002D103B0BDE8F08F0127B74002EA070588
:1037800037EA02027AD14A68032A07D8013A022AA4
:1037900000F28380DFE802F092979D00122A00F089
:1037A00095806DD8112A00F08B80FF2D98BF81463F
:1037B0004FF00F0B88BF00F104094FEA8602D9F8D9
:1037C000007088BF203A0BFA02FA27EA0A0704FAC7
:1037D00002F21743C9F80070D1F8049019F0805F25
:1037E0004CD0DCF8182026F0030742F00102CCF898
:1037F0001820DCF8182007F1804702F0010201923E
:1038000007F5803706F0030A019A4FEA8A0ABA6878
:103810000BFA0AFB22EA0B0B374A90425DD002F505
:10382000806290425BD002F58062904259D002F5EE
:103830008062904214BF0422032202FA0AF242EA92
:103840000B02BA609A6819F4801F14BF2A43AA4376
:103850009A60DA6819F4001F14BF2A43AA43DA6099
:103860005A6819F4003F14BF2A43AA435A601A68E1
:1038700019F4803F14BF2A43AA431A60013674E743
:10388000DFF878904A4508D010D8A9F580194A4544
:1038900003D0724501D0424587D18A68DAB1012A46
:1038A0004FF008040CBF076147617EE7DFF85090D6
:1038B0004A45F2D009F580394A45EDE7CC6874E70E
:1038C000CC68043471E7CC6808346EE7CC680C34FB
:1038D0006BE7002469E7042467E70022ADE70122D3
:1038E000ABE70222A9E700BF00100240000401403C
:1038F00000002110000011100008014000002210FB
:10390000000031100AB1016170470904FBE70000B3
:103910000122014B1A62704700000E422DE9F3416B
:10392000054638B30368DB0710D42B689F075ED4C5
:103930002B68190700F195802B685A0700F1C180A8
:10394000EB69002B40F02C81002029E0904C63684B
:1039500003F00C03042B07D0636803F00C03082B5F
:103960000AD16368DE0307D523689C03DDD56B6845
:10397000002BDAD1012013E06B68B3F5803F12D140
:10398000236843F480332360FFF704FA0646236874
:103990009803CAD4FFF7FEF9801B6428F7D90320E7
:1039A00002B0BDE8F0819BB9236823F48033236023
:1039B000236823F480232360FFF7ECF9064623688D
:1039C0009903B2D5FFF7E6F9801B6428F7D9E6E73B
:1039D000B3F5A02F236803D143F480232360CFE7FE
:1039E00023F480332360236823F48023CBE7684CDF
:1039F000636813F00C0F07D0636803F00C03082B07
:103A000010D16368DA030DD423689B0702D52B69B4
:103A1000012BAFD123686A6923F0F80343EAC2039C
:103A2000236085E72A695B4B6AB101221A60FFF7C0
:103A3000B1F9064623689F07ECD4FFF7ABF9801B6A
:103A40000228F7D9ABE71A60FFF7A4F90646236806
:103A500098077FF56DAFFFF79DF9801B0228F6D917
:103A60009DE7AA694A4E4B4BE2B10122C3F880247C
:103A7000FFF790F90446736A9B070DD54FF4FA528D
:103A8000454B1B68B3FBF2F3019300BF019B5A1E29
:103A90000192002BF9D14FE7FFF77CF9001B0228B8
:103AA000E9D97CE7C3F88024FFF774F90446736A08
:103AB0009F077FF541AFFFF76DF9001B0228F6D98C
:103AC0006DE7334CE369D80024D40127E36943F060
:103AD0008053E361E36903F080530093009B2F4E12
:103AE0003368D90518D5EB68012B26D1236A43F03A
:103AF00001032362FFF74EF941F288380646236A34
:103B00009B073FD5002F3FF41BAFE36923F08053A1
:103B1000E36115E70027E2E7336843F4807333601D
:103B2000FFF738F980463368DA05DCD4FFF732F95D
:103B3000A0EB08006428F6D931E7ABB9236A41F25B
:103B4000883823F001032362236A23F004032362ED
:103B5000FFF720F90646236A9807D3D5FFF71AF92D
:103B6000801B4045F7D91AE7052B236A03D143F0A0
:103B700004032362BAE723F001032362236A23F0DC
:103B80000403B6E7FFF706F9801B4045B7D906E7FF
:103B9000001002400000424200000020007000407F
:103BA0002A4C626802F00C02082A3ED00022022B46
:103BB000274B1A662CD1FFF7EDF8064623689901CA
:103BC00020D42B6AB3F5803F05D16268A96822F43E
:103BD00000320A436260696A62680B4322F474121D
:103BE0001343012263601A4B1A66FFF7D3F80546A8
:103BF00023689A013FF5A8AEFFF7CCF8401B0228D6
:103C0000F6D9CCE6FFF7C6F8801B0228D6D9C6E65F
:103C1000FFF7C0F8054623689B017FF595AEFFF7D7
:103C2000B9F8401B0228F6D9B9E6012B3FF4A2AE41
:103C300060682B6A00F480329A427FF49BAE6B6A14
:103C400000F47010C01A18BF0120A9E6001002404D
:103C5000000042420D4A536803F00C01082912D1BA
:103C60000B48C3F38341DB03405C09D55368094A21
:103C7000C3F340435043084AD35CB0FBF3F07047B2
:103C8000064B584370470348704700BF001002407E
:103C9000E668000800127A00E468000800093D00A8
:103CA0002DE9F0410D46044610B90120BDE8F08130
:103CB000444A136803F007038B4228D321688E0718
:103CC00030D4CA0743D43F4A136803F00703AB421A
:103CD00065D822683C4D12F0040F6CD1130706D54D
:103CE0006B68226923F4605343EAC2036B60FFF7F9
:103CF000B1FF6B68354AC3F30313D35CD840344B30
:103D00001860344B1868FEF7ABFD0020CEE713684F
:103D100023F007030B431360136803F007038B4280
:103D2000C3D1CBE7284B11F0040F1EBF5A6842F4F1
:103D3000E0625A60080742BF5A6842F460525A6013
:103D40005A68A06822F0F00202435A60B9E762683C
:103D50001D4E012A33681AD113F4003FA5D07368B1
:103D600041F2883823F0030313437360FFF712F81E
:103D700007467368626803F00C03B3EB820FA2D0AE
:103D8000FFF708F8C01B4045F3D903208EE7022A4D
:103D900002D113F0007FE1E713F0020FDEE71368B2
:103DA00023F007032B431360136803F00703AB42B0
:103DB0007FF47BAF8DE76B68E16823F4E0630B432E
:103DC0006B608BE70020024000100240D4680008BE
:103DD0000000002008000020044B054A5B68C3F384
:103DE0000223D35C034A1068D84070470010024099
:103DF000CC68000800000020044B054A5B68C3F350
:103E0000C223D35C034A1068D840704700100240B8
:103E1000CC680008000000200F2303600B4B5A6899
:103E200002F0030242605A6802F0F00282605A68AF
:103E300002F4E062C2605B68DB0803F4E0630361E4
:103E4000034B1B6803F007030B6070470010024030
:103E50000020024003682DE9F3410546D80721D52B
:103E6000364CE369D9002BD40126E36943F0805333
:103E7000E361E36903F080530193019B304F3B689A
:103E8000DA051FD5236A6A6813F440732ED1236ABA
:103E90006A6823F44073134323621EB1E36923F07D
:103EA0008053E3612A68910706D52449A8684B68C6
:103EB00023F4404303434B60D30636D4002012E082
:103EC0000026DBE73B6843F480733B60FEF762FF4C
:103ED00080463B68DB05D5D4FEF75CFFA0EB08000D
:103EE0006428F6D9032002B0BDE8F08102F44072E4
:103EF0009A42CCD00120134A236AC2F84004002021
:103F000023F44071DF07C2F840042162BFD5FEF7F9
:103F100041FF41F288380746236A9807B7D4FEF775
:103F200039FFC01B4045F7D9DCE7044AE96853680C
:103F300023F480030B435360C0E700BF001002402E
:103F40000070004000004242022808B544D010280A
:103F500003D0012822D0002034E0254B5A6818688D
:103F600010F080702ED0C2F383412248D20348BFA4
:103F70005A68405C41BF2049C2F34042895C1F4AF5
:103F80005B684CBFB2FBF1F21D4A5B0202FB00F022
:103F900018D403234000B0FBF3F013E040F20231E9
:103FA000134A136A1940B1F5817F1ED003F44073A0
:103FB000B3F5007F07D149F64043506A10F0020084
:103FC00018BF184608BDB3F5407FC4D110684FF242
:103FD000244310F40030F3E7FFF70EFF044B5B6857
:103FE000C3F3813301335B00D5E74FF40040E9E7C9
:103FF00000100240F8680008F668000800127A0015
:1040000000093D00036830B59A69D869996995B28D
:104010008CB2A54217BFD86980B280B240EA014095
:1040200008BF40EA024030BD0368186A5B6A9BB271
:1040300043EA004070470023092803D840EA0310F0
:10404000C0B270470A380133C0B2F5E70A2203094B
:1040500000F00F0002FB0300C0B2704730B5172517
:1040600009234D430229B5FBF3F500F5FA6417D88F
:1040700000F2CF73101D4FF4C872B3FBF2F220446C
:10408000284400EB930010446422B3FBF2F3C01AFF
:104090000723B0FBF3F3C3EBC303C01AC0B230BDB8
:1040A0004FF4C873B4FBF3F3901C2044284400EB96
:1040B000940018446423B4FBF3F4001BE8E738B51C
:1040C0000446FEF767FE054623685A68920605D542
:1040D00000205A6842F010025A6038BDFEF75AFEBE
:1040E000401BB0F57A7FEFD90320F6E7026838B5B8
:1040F0005368044623F010035360FEF74BFE054659
:1041000023685B689B0601D5002038BDFEF742FEA0
:10411000401BB0F57A7FF3D90320F6E738B50546A2
:104120000C46FFF7CCFF58B92B68220CA4B29A6159
:104130002846DC61FFF7DAFF003818BF012038BDE0
:104140000120FCE738B505460C46FFF7B8FF58B923
:104150002B68220CA4B21A6228465C62FFF7C6FFE5
:10416000003818BF012038BD0120FCE7F8B504462F
:10417000E8B1E1B1037C0226012B19D0012346747A
:10418000037408784D788F78A2B93C235D434FF4CF
:10419000616303FB00553D4429462046FFF7BEFFFF
:1041A00007460646C0B10423637400232374012626
:1041B0003046F8BDFFF74AFF06462846FFF746FFA0
:1041C0003C2303FB00F14FF46163384603FB061107
:1041D000FFF73CFF4518DFE722682046536823F0CD
:1041E00005035360FFF720FF85420BD900F5A83186
:1041F00001F5C0712046FFF7A5FF18B1042327740D
:104200006374D4E70123637400232374D0E70000B0
:104210002DE9F0470E461746054610B90120BDE8C6
:10422000F0870029FAD003685B6813F00408F5D121
:10423000FFF7E8FE4FF46163B0FBF3F2044603FBC3
:1042400012033C20B3FBF0F100FB1133B370484B79
:1042500071709C427CD91823B2FBF3F903FB19223D
:1042600028463270FFF7E0FEB0F1FF3F824605D0EE
:1042700084422CBF4FF0FF3AA0EB040A3D4B284686
:1042800003FB19442146FFF749FF0028C6D1BAF1C4
:10429000FF3F28D00AEB04012846FFF753FF002810
:1042A000BCD1012141F2AA5CE87B6C7BAB7B0C2C7E
:1042B00009D801FA04F212EA0C0F16D112F4256F94
:1042C00020D1022C21D008F10108C145EFD1E1B283
:1042D000DAB2E8736973AA73FFF7C0FE2873002F80
:1042E00038D100209BE75146D6E71E2B01D8013379
:1042F000E9E70C2C02D001230134E4E7012301306B
:104300001C46E0E71D2BF6D8F1E71B2BEFD91C2B41
:1043100017D1820783B216D14FF0640EB3FBFEF2C1
:104320000EFB123292B28AB94FF4C872B3FBF2FE9E
:1043300002FB1E339BB2002B0EBF1D23012303245F
:10434000C1E71D2BBFD101230324BCE71D23BAE71E
:104350003270C4E73078FFF76EFE30707078FFF788
:104360006AFE7070B078FFF766FEB070B9E700BF04
:104370007F5101008051010070B50D46044648B3DD
:1043800041B3037C0220012B25D0012360742374E8
:10439000C8780ABBE0734B7863738A78617BE07BF3
:1043A000A273FFF75BFE207328702046FFF72AFEFA
:1043B0001A4B98422DD91A4DB0FBF5F205FB1205A8
:1043C00020462946FFF7AAFE064688B104236374F7
:1043D00000232374012070BDFFF738FEE073487896
:1043E000FFF734FE60738878FFF730FE0246D5E7AA
:1043F0002046FFF719FE85420BD900F5A83101F5DB
:10440000C0712046FFF79EFE18B104232674637422
:10441000E0E70123002063742074DCE78F5F010074
:1044200080510100F7B5164600220C460546ADF84E
:1044300004208DF8062018B90121084603B0F0BD0C
:104440000029F9D001A9FFF7E3FE01460028F3D1C6
:104450002B7B2370E87BE0706F7B6770AA7BA27078
:10446000002EEAD0FFF7E7FDE0703846FFF7E3FDE6
:1044700060701046FFF7DFFDA070DEE738B5044638
:10448000A8B10268536823F008035360FEF782FC6A
:10449000054623685B681B0701D5002038BDFEF781
:1044A00079FC401BB0F57A7FF3D90320F6E70120B1
:1044B000F4E7000010B5044670B1437C03F0FF023E
:1044C00013B90274FEF76CF9022320466374FFF7F8
:1044D000D5FF18B104236374012010BD2046FFF7F7
:1044E000EEFD0028F6D12268A168536823F0070387
:1044F0005360124A19B1136B23F001031363D36A9B
:1045000023F460730B43D3626068431C05D1012020
:10451000FFF71AFD0028DDD001382368C0F30342FD
:1045200080B29A60D8602046FFF7E0FD0028D1D124
:1045300001236373E3816374CFE700BF006C004025
:104540007047000090F83D30012B20D1022380F805
:104550003D300368DA6842F00102DA600D4A9342A6
:104560000AD0B3F1804F07D0A2F59432934203D022
:1045700002F58062934204D19A6802F00702062A8B
:1045800003D01A6842F001021A600020704701202F
:10459000704700BF002C014070477047704770475C
:1045A000036870B5DD681E690446B1070DD5AA071A
:1045B0000BD56FF002021A61012202779B699B07FB
:1045C00069D0FFF7EAFF00232377710710D56A0748
:1045D0000ED56FF00402236820461A61022222776A
:1045E0009B6913F4407F5CD0FFF7D7FF002323774C
:1045F00033070FD528070DD56FF008022368204632
:104600001A6104222277DB69990750D0FFF7C5FFB2
:1046100000232377F20610D5EB060ED56FF01002BB
:10462000236820461A6108222277DB6913F4407F51
:1046300043D0FFF7B2FF00232377F00708D5E9073F
:1046400006D56FF00102236820461A61FEF734F8A0
:10465000320608D52B0606D56FF080022368204667
:104660001A6100F09EF8700608D5690606D56FF04D
:104670004002236820461A61FFF791FFB20622D557
:10468000AB0620D56FF0200223682046BDE87040BD
:104690001A6100F085B8FFF77FFF2046FFF77EFF25
:1046A00091E7FFF779FF2046FFF778FF9EE7FFF7D6
:1046B00073FF2046FFF772FFAAE7FFF76DFF204662
:1046C000FFF76CFFB7E770BD1E4A036890420AD03F
:1046D000B0F1804F07D0A2F59432904203D002F59A
:1046E0008062904215D14A6823F070031343154A43
:1046F00090420AD0B0F1804F07D0A2F59432904298
:1047000003D002F58062904203D1CA6823F440735B
:1047100013434A6923F08003134303608B68C36229
:104720000B688362074B984204BF0B690363012344
:1047300043610369DB0742BF036923F0010303619F
:10474000704700BF002C014010B5044630B390F80C
:104750003D3003F0FF021BB980F83C20FFF7F0FE6C
:104760000223206884F83D30211DFFF7ADFF0123AF
:10477000002084F8463084F83E3084F83F3084F8D6
:10478000403084F8413084F8423084F8433084F873
:10479000443084F8453084F83D3010BD0120FCE7FA
:1047A00070477047026802F10C0353E8003F23F49E
:1047B00090730C3242E8003102680029F2D102F114
:1047C000140353E8003F23F0010302F1140C4CE8FA
:1047D00000310029F3D1036B012B0BD102F10C0343
:1047E00053E8003F23F0100302F10C0C4CE80031B9
:1047F0000029F3D1202380F842300023036370475F
:1048000010B504460368C1681A6922F440520A438D
:104810001A6182680069D9680243606921F4B05165
:1048200021F00C0102430A43DA605A69A16922F4BB
:1048300040720A435A610E4A934215D1FFF7DCFADF
:1048400019234343626820689200B3FBF2F36422A9
:10485000B3FBF2F102FB11331B013233B3FBF2F372
:1048600003EB0113836010BDFFF7B6FAE8E700BF62
:104870000038014010B5044648B390F8413003F0C9
:10488000FF021BB980F84020FDF7A8FF242322680F
:1048900084F84130D368204623F40053D360FFF7F7
:1048A000AFFF236800201A6922F490421A615A6906
:1048B00022F02A025A61DA6842F40052DA602023B8
:1048C000606484F8413084F84230606310BD012098
:1048D000FCE770477047704708B50023406AC385FE
:1048E000C384FFF7F8FF08BD704790F8423007B562
:1048F000222B42D181680268B1F5805F836A3FD183
:10490000016900293FD15268C2F3080223F8022B43
:104910008362C38D013B9BB2C385002B2DD10268FE
:10492000D16821F02001D160D16821F48071D1607B
:10493000516921F001015161202280F84220436336
:10494000026B012A026828D1036302F10C0353E8C9
:10495000003F23F0100302F10C0C4CE80031002959
:10496000F3D11368DB0605D50191136801935368F1
:104970000193019B818DFFF7B7FF03B05DF804FB46
:1049800039B9016929B95268D2B21A70836A013300
:10499000BEE7526802F07F02F7E7FFF79BFFECE704
:1049A000036873B51A6804461607D9685D6908D1AB
:1049B000960668D58D0666D502B0BDE87040FFF753
:1049C00094BF05F0010001F4907505435BD0D60754
:1049D00005D5CD0542BF636C43F001036364530703
:1049E00004D518B1636C43F002036364960704D5E1
:1049F00018B1636C43F004036364150707D501F035
:104A0000200303431EBF636C43F008036364636CBD
:104A1000002B32D0920604D58B0602D52046FFF734
:104A200064FF266820467369626C03F0400302F05D
:104A3000080253EA020522D0FFF7B4FE73695E064E
:104A400018D5226802F1140353E8003F23F0400315
:104A5000143242E800310029F3D1E06B50B1744BBD
:104A60004363FEF70BFD40B1E06B436B02B0BDE862
:104A7000704018472046FFF72EFF02B070BDFFF7C9
:104A80002AFF6564F9E7206B012840F09480D50681
:104A900040F19180C80640F18E80002201921A6890
:104AA00001925A680192019A5A6952064DD5E16BFA
:104AB0000A68526892B2002ADFD0A08D9042DCD9F9
:104AC000E2858A69202A36D003F10C0252E8002FD1
:104AD00022F4807203F10C0040E800210029F3D198
:104AE00003F1140252E8002F22F0010203F1140036
:104AF00040E800210029F3D103F1140252E8002F0D
:104B000022F0400203F1140040E800210029F3D113
:104B1000202284F84220216303F10C0252E8002F86
:104B200022F0100203F10C0040E800210029F3D12B
:104B3000E06BFEF783FC02236363E38DA18DC91A4A
:104B400089B22046FFF7D0FE97E7E28DE08DA18D78
:104B500080B292B2002890D0891A89B200298CD0F4
:104B600003F10C0252E8002F22F4907203F10C05BD
:104B700045E800200028F3D103F1140252E8002F89
:104B800022F0010203F1140545E800200028F3D1CA
:104B9000202284F84220206303F10C0252E8002F07
:104BA00022F0100203F10C0545E800200028F3D1A3
:104BB00002236363C5E7160628D50D0626D594F8AB
:104BC0004120212A7FF459AFA168226AB1F5805FA4
:104BD00017D12169A9B932F8021BC1F30801596044
:104BE0002262E28C013A92B2E284002A7FF445AF5D
:104BF000DA6822F08002DA60DA6842F04002DA60B5
:104C00003BE7511C216212785A60EAE750067FF5B3
:104C100034AF4A067FF531AFDA68204622F0400211
:104C2000DA60202384F84130FFF753FE25E700BF08
:104C3000D948000800B5114D114E124C8BB04FF001
:104C4000FF32286801A900F068FC0128F7D140F282
:104C50000132019B934207D8B3F5407FEFD3002385
:104C600020681A4601A906E0B3F5FC6FE7D10023DE
:104C70001A46306808A900F032FBE0E7280100205E
:104C80003C0100203801002007B500222421142017
:104C900000F0FBFA094B022118600948FEF75BFAA5
:104CA000002303220749CDE9002307484FF480720F
:104CB00000F0B4FD03B05DF804FB00BF2801002044
:104CC0009000002008690008354C000810B5002449
:104CD0008AB0214608AB01AA0094FEF7C0F90A4841
:104CE00023466A46006801A900F0ABFB009B4BB16C
:104CF0004FF0E0234FF08052C3F8042DBFF34F8FE5
:104D0000BFF36F8F0AB010BD2801002000B50D4D14
:104D10000D4C8DB04FF0FF32286802A900F0FDFB6A
:104D20000128F7D1029B204606930023CDE90833E2
:104D30009DF80C300DF10D020A9306A901ABFEF7A8
:104D400045F9E7E72C0100209000002007B500227C
:104D50001021142000F099FA064B0322186000235A
:104D60000549CDE900230548802200F057FD03B036
:104D70005DF804FB2C010020136900080D4D0008AC
:104D80004FF48063F0B58FB0019302230027274DC5
:104D9000274E8DF808304FF0FF32286805A900F043
:104DA000BCFB0128F7D1059BB3F5407F1ED040F234
:104DB00001329342EFD1BDF830402046FDF77EFA34
:104DC0001C4B042C18602AD800231B484FF0FF32DC
:104DD000006801A98DF80930ADF80A3003938DF809
:104DE000103000F07CFA4FF251200CE0BDF830009A
:104DF000FDF768FA114B314618600446FDF722FBB7
:104E000020B14FF26120FDF701FEC4E7394620468C
:104E1000FDF7F0FA0028BED04FF26020F3E74FF61E
:104E2000FF739C42B7D14FF25020ECE738010020CD
:104E300000000C42300100202C0100203401002031
:104E400007B5002224210A2000F01FFA074B042294
:104E5000186000230649CDE9002306484FF480720C
:104E600000F0DCFC03B05DF804FB00BF380100205B
:104E700019690008814D0008002313B5CDE90033FE
:104E80001A4C4FF0FF326946206800F046FB0128BB
:104E9000F7D19DF800309DF80100222B1BD00AD8D5
:104EA000142B1FD0192B1AD0102B0CD011211846FF
:104EB000FDF75CFEE5E7272B08D0342BF6D16946D9
:104EC000FDF72CFFDDE7FDF76DFEDAE70822694606
:104ED000FDF782FED5E76946FDF796FED1E7FDF7BF
:104EE000BDFECEE7FDF7FEFECBE700BF3C01002094
:104EF00007B5002208210A2000F0C7F9074B02225B
:104F0000186000230649CDE9002306484FF480725B
:104F100000F084FC03B05DF804FB00BF3C010020FE
:104F200021690008794E000807B5002224210120DC
:104F300000F0ABF9064B8022186000230549CDE94B
:104F40000033054800F06AFC03B05DF804FB00BFC5
:104F5000400100202D6900080150000870B586B09E
:104F6000FEF7FAFA00240123124D134E01A902A8FC
:104F7000CDE904630294FEF799FB234631462A6883
:104F80000220FEF72FFB23466A680C490220FEF739
:104F900029FB2346AA680A490220FEF723FB234681
:104FA000EA6808490220FEF71DFBFEF7E7FA06B0A3
:104FB00070BD00BF4401002000F0000804F00008AC
:104FC00008F000080CF000080B4B10B41A680B4CEA
:104FD000B2F1A53F0AD001234FF0A532C4E9002366
:104FE0000023C4E9023310BCFFF7B8BF0FCB84E83D
:104FF0000F0010BC704700BF00F000084401002003
:1050000000B5104D8BB04FF0FF32286801A900F0B9
:1050100084FA01280446F6D1FFF7D6FF0A4BDC607C
:10502000FFF79CFF322000F089FEBFF34F8F074946
:10503000074BCA6802F4E0621343CB60BFF34F8FA3
:1050400000BFFDE7400100204401002000ED00E02A
:105050000400FA0508B5FFF717FEFFF777FEFFF724
:10506000EFFEFFF745FFBDE80840FFF75DBF00F02A
:10507000BDBC4FF0FF3200F10803C0E902234360DA
:10508000036100230360704700230361704730B55C
:105090000C68631C0AD103695A684A6091608B608E
:1050A0005960036808610133036030BD00F10802F4
:1050B000134652681568A542FAD9EDE70369D0E9AD
:1050C00001128A6051605968814208BF5A6000220B
:1050D00002611A68013A1A601868704710B50446F0
:1050E00001F0B8F9A46B01F0D5F9B4FA84F04009E5
:1050F00010BD70B51646026C0446856B42B9066851
:105100009EB9806800F084FFA6600135A56370BD7C
:105110006EB9406801F0C0FB6368226C1344A2685A
:105120006360934224BF236863600020EDE7C0689A
:1051300001F0B2FB226CE36851429B1A2268E360E3
:1051400093423EBFA3685B18E360022EEDD10DB120
:10515000013DEAE72846D8E703461A6C084610B432
:1051600062B1DC68996814448C4228BF1968DC601D
:1051700028BFD960D96810BC01F08EBB10BC704745
:1051800070B5044601F066F994F8455004F1240620
:105190006DB2002D14DCFF2384F8453001F07AF95C
:1051A00001F058F994F8445004F110066DB2002D46
:1051B00012DCFF2384F84430BDE8704001F06AB986
:1051C000636A002BE7D0304600F05EFE08B100F0C5
:1051D00009FF013D6DB2DCE72369002BE9D03046C1
:1051E00000F052FE08B100F0FDFE013D6DB2DEE7B9
:1051F00070B50E46044640B94FF0500383F3118852
:10520000BFF36F8FBFF34F8FFEE7C56BA5B3036C82
:10521000A3FB053585BB01F01DF9D4E90F314B43E4
:105220002268A563D0185B1A62601A44FF23A0604D
:1052300084F84430E26084F84530A6B9236973B13C
:1052400004F1100000F020FE48B14FF0E0234FF0D1
:105250008052C3F8042DBFF34F8FBFF36F8F01F05F
:1052600019F9012070BD04F11000FFF702FF04F1ED
:105270002400FFF7FEFEF2E74FF0500383F311889E
:10528000BFF36F8FBFF34F8FFEE7F8B50D4617469C
:105290000646D8B1A1FB0023C3B9484310F1510F12
:1052A00014D8503001F002FA044658B165B100F14B
:1052B000500301212046C4E90F652360FFF798FFE2
:1052C00084F84C702046F8BD0346F2E74FF05003D7
:1052D00083F31188BFF36F8FBFF34F8FFEE72DE984
:1052E000FF410F461E460446019240B94FF050035D
:1052F00083F31188BFF36F8FBFF34F8FFEE751B970
:10530000036C43B14FF0500383F31188BFF36F8FE9
:10531000BFF34F8FFEE7022E0BD1E36B012B08D0BA
:105320004FF0500383F31188BFF36F8FBFF34F8F9C
:10533000FEE700F05DFE054630B300254FF00008A3
:1053400001F088F8A26BE36B9A4201D3022E27D1B9
:10535000324639462046FFF7CCFE636A1BB104F1A2
:10536000240000F091FD48B14FF0E0234FF080524F
:10537000C3F8042DBFF34F8FBFF36F8F01F08AF88E
:10538000012004B0BDE8F081019B002BD6D04FF086
:10539000500383F31188BFF36F8FBFF34F8FFEE786
:1053A000019B1BB901F076F80020EAE715B902A8C5
:1053B00000F0D0FD01F06EF800F058FB01F04AF863
:1053C00094F84430FF2B08BF84F8448094F84530AB
:1053D000FF2B08BF84F8458001F05CF801A902A802
:1053E00000F0C4FD38BB01F035F8A26BE36B9A42C4
:1053F0000ED101F04FF8019904F1100000F0FCFC0F
:105400002046FFF7BDFE00F0FBFB48B1012597E702
:1054100001F040F82046FFF7B3FE00F0F1FBF5E79E
:105420004FF0E0234FF08052C3F8042DBFF34F8FAD
:10543000BFF36F8FEAE72046FFF7A2FE00F0E0FB24
:10544000B2E72DE9F843894617461E46044640B99F
:105450004FF0500383F31188BFF36F8FBFF34F8F6B
:10546000FEE751B9036C43B14FF0500383F3118849
:10547000BFF36F8FBFF34F8FFEE7022E0BD1E36BAD
:10548000012B08D04FF0500383F31188BFF36F8FC7
:10549000BFF34F8FFEE701F0B5F8EFF311884FF03F
:1054A000500383F31188BFF36F8FBFF34F8FA26B4D
:1054B000E36B9A4201D3022E2DD194F84550324627
:1054C000494620466DB2A36BFFF713FE6B1C0ED14D
:1054D000636A3BB104F1240000F0D6FC10B10FB1B7
:1054E00001233B60012088F31188BDE8F88300F0B8
:1054F000CBFA8542F6D27F2D08D14FF0500383F3CB
:105500001188BFF36F8FBFF34F8FFEE701356DB288
:1055100084F84550E6E70020E5E72DE9FF410E4617
:105520000446019240B94FF0500383F31188BFF352
:105530006F8FBFF34F8FFEE751B9036C43B14FF04C
:10554000500383F31188BFF36F8FBFF34F8FFEE7D4
:1055500000F04EFD054618B300254FF0000800F09E
:1055600079FFA76B47B331462046013FFFF7F4FDB3
:10557000A763236973B104F1100000F085FC48B102
:105580004FF0E0234FF08052C3F8042DBFF34F8F4C
:10559000BFF36F8F00F07EFF012004B0BDE8F08103
:1055A000019B002BD9D04FF0500383F31188BFF338
:1055B0006F8FBFF34F8FFEE7019B1BB900F06AFFAF
:1055C0000020EAE715B902A800F0C4FC00F062FF71
:1055D00000F04CFA00F03EFF94F84430FF2B08BF77
:1055E00084F8448094F84530FF2B08BF84F8458048
:1055F00000F050FF01A902A800F0B8FC00BB204653
:10560000FFF76CFDB0B1019904F1240000F0F4FB48
:105610002046FFF7B5FD00F0F3FA48B94FF0E0235C
:105620004FF08052C3F8042DBFF34F8FBFF36F8F3D
:10563000012594E72046FFF7A3FD00F0E1FAF7E724
:105640002046FFF79DFD00F0DBFA2046FFF746FD00
:105650000028EDD0B4E7000070B540B94FF050031A
:1056600083F31188BFF36F8FBFF34F8FFEE7B9B19C
:1056700000230C4A1C4615465668864204D105EBA9
:10568000C403C3E900100BE01BB91668002E08BF65
:1056900013460134042C02F10802EDD1002BF0D1A5
:1056A00070BD00BF5401002070B504460D4616467B
:1056B00000F0D0FE94F84430FF2B04BF002384F8A0
:1056C000443094F84530FF2B04BF002384F8453064
:1056D00000F0E0FEA36B2BB93246294604F124000A
:1056E00000F0A4FB2046BDE87040FFF749BD000074
:1056F000F8B5204B204C06461D6820680F46043044
:10570000FFF7DCFC40B922681C49D06A01220B6813
:10571000824023EA02030B60731C13D197B1184B2C
:1057200021685A688A6090682168C86021680431DD
:105730004160216804319160226853611A68013226
:105740001A60F8BD2368AD195D6007D30D4B18686A
:105750002168BDE8F8400431FFF799BC0A4B18688E
:1057600021680431FFF793FC084B1A68AA4288BFEE
:105770001D60E6E7980100208802002094010020C7
:10578000A0010020E0010020E40100207C010020B5
:10579000064A13681968064B19B94FF0FF321A60B0
:1057A00070471268D2681268F9E700BFE401002070
:1057B0007C01002080B5154C154F164E236873B937
:1057C000154B1B68012BF8D94FF0E0234FF08052A6
:1057D000C3F8042DBFF34F8FBFF36F8FEDE700F0D9
:1057E00039FEFB68DD68281DFFF768FC3368013B64
:1057F00033602368013B236000F04CFE286B00F00F
:10580000E5FF284600F0E2FFD8E700BFB401002022
:10581000B80100209C010020100200202DE9F84F63
:1058200095008146DDE90A8B28460E469A4600F02F
:105830003DFF074618B94FF0FF30BDE8F88F5820FC
:1058400000F034FF0446002800F0B2805822002106
:1058500000F0F6FF384627632A46A52100F0F0FF46
:10586000276B6EB1731E04F13302093613F8011F62
:1058700002F8011F09B1B342F8D1002384F83D308A
:10588000B8F1050F08D94FF0500383F31188BFF327
:105890006F8FBFF34F8FFEE7261D3046C4F82C8074
:1058A000C4F84880FFF7F0FB043D04F11800FFF74F
:1058B000EBFBC8F106037819524649462461A361FF
:1058C000646220F0070000F09FFD2060BBF1000F34
:1058D00001D0CBF8004000F0BDFD374B374F1A68C0
:1058E000DFF8DC8001321A603D68002D55D13C6044
:1058F0001B68012B1FD1C14648460135FFF7B9FB94
:10590000062D09F11409F7D1DFF8B8902E4D48465D
:10591000FFF7AFFB2846FFF7ACFB2C48FFF7A9FBCE
:105920002B48FFF7A6FB2B48FFF7A3FB2A4BC3F836
:1059300000902A4B1D602A4A2A49136808680133DF
:10594000136001222364E36A9A4002430A6014222E
:10595000534308EB03014A689068A260E060466028
:10596000966058F803206161013248F8032000F086
:1059700091FD1D4B1B6873B13B68DA6AE36A9A427A
:1059800009D24FF0E0234FF08052C3F8042DBFF34B
:105990004F8FBFF36F8F01204FE7134B1A68E36AF5
:1059A000002AC8D13A68D26A9A4298BF3C60C2E7DE
:1059B000384600F00BFF3EE79C01002088020020E3
:1059C00010020020FC010020E8010020CC01002092
:1059D000B8010020A0010020E4010020E001002027
:1059E00080010020940100209001002013B50024C4
:1059F000174B642201931749234617480094FFF779
:105A00000DFF012819D100F0A9FC012815D14FF094
:105A1000500383F31188BFF36F8FBFF34F8F4FF0A5
:105A2000FF320E4B1A600E4B18600E4B1C6000F0DC
:105A300091FD0D4B1B6802B010BD0130F9D14FF044
:105A4000500383F31188BFF36F8FBFF34F8FFEE7CF
:105A50007801002034690008B55700087C01002057
:105A600090010020980100200C000020024A1368D9
:105A700001331360704700BF74010020014B1868A8
:105A8000704700BF98010020014B1868704700BFA5
:105A90009C0100202DE9F84F4E4B1B68002B40F075
:105AA00092804D4B1C6801341C60BCB94B4B1A688A
:105AB000126842B14FF0500383F31188BFF36F8F28
:105AC000BFF34F8FFEE7464A1968106818601160EF
:105AD000444A136801331360FFF75AFEDFF808C128
:105AE0000020DCF80030414A9C42DFF804910FD2DC
:105AF0001421D9F80030DB6A4B43D358022B3D4BBD
:105B000028BF01201B68002B18BF0120BDE8F88FBB
:105B1000DFF8C880DFF8E0E0D8F800301B6823B970
:105B20004FF0FF33CCF80030E2E7D8F80030DB6804
:105B3000DB6859688C4202D2CCF80010D8E75D6966
:105B4000D3E902168E60716069681F1DB9424FF07B
:105B5000000108BF6E6059612968013929609D6A9A
:105B60007DB1D3E907168E607160696803F1180A88
:105B700051454FF0000108BF6E60996229680139F4
:105B800029600125D96ADEF800608D403543CEF8E2
:105B9000005014254D4302EB050ADAF80460D6F8EC
:105BA00008B09E60C3F80CB0CBF80470B760C3F8BF
:105BB00014A0535901335351D9F80030DB6A99428C
:105BC00088BF0120A8E70D4A002013680133136045
:105BD0009CE700BF7401002098010020E401002030
:105BE000E0010020840100207C0100201002002040
:105BF0008802002088010020940100208C010020F0
:105C00002DE9F84F454C236843B94FF0500383F317
:105C10001188BFF36F8FBFF34F8FFEE700F01AFCC0
:105C20002368013B236023682BB1002400F032FC81
:105C30002046BDE8F88F3A4A1268002AF5D04FF0A6
:105C4000010C4FF0140E374E374F384ADFF8E08022
:105C5000DFF8E0903FE0F368DB68986AD3E9071467
:105C60008C606160416803F11805A9424FF00001A2
:105C700008BF446099620168013901605869D3E93D
:105C800002148C60616041681D1DA942016808BF53
:105C9000446001390160D96A3C680CFA01F0204384
:105CA00038600EFB01F002EB000ADAF80440D4F889
:105CB00008B09C60C3F80CB0CBF80450A560145831
:105CC000C3F814A001341450D8F80000C06A81420F
:105CD00001D3C9F800C031680029BCD10BB1FFF76E
:105CE00057FD154D2C6844B10127124EFFF7D2FE27
:105CF00000B13760013CF9D12C600E4B1B68002BC2
:105D000093D04FF0E0234FF08052C3F8042DBFF33F
:105D10004F8FBFF36F8F012488E700BF740100200D
:105D20009C010020CC0100209401002010020020E2
:105D300088020020880100208C01002008B550B99D
:105D40004FF0E0234FF08052C3F8042DBFF34F8F84
:105D5000BFF36F8F08BD0A4B196841B14FF0500374
:105D600083F31188BFF36F8FBFF34F8FFEE7FFF709
:105D70007DFEFFF7BDFCFFF743FF0028E0D0E9E719
:105D800074010020174B10B51A68174B12B101228D
:105D90001A6010BD1A60154B1A68B2FA82F2142309
:105DA000D2B2C2F11F0253431149CC58C81844B9AA
:105DB0004FF0500383F31188BFF36F8FBFF34F8F02
:105DC000FEE74468083364680B449C4208BF63687C
:105DD000446008BF4360142303FB02114B68DA6878
:105DE000044BD5E7740100208801002094010020B5
:105DF000100200208802002010B50C4640B94FF078
:105E0000500383F31188BFF36F8FBFF34F8FFEE70B
:105E1000054B19681831FFF73AF92046BDE81040E4
:105E20000121FFF765BC00BF8802002070B40C465A
:105E3000114640B94FF0500383F31188BFF36F8FC1
:105E4000BFF34F8FFEE70F4B42681D689668EA610B
:105E50001D6800292E621D6805F1180575601D6812
:105E60001B6805F1180595609862036803F101034A
:105E7000036008BF204670BC18BF4FF0FF30FFF72B
:105E800037BC00BF88020020C368F0B5DB6843B9A7
:105E90004FF0500383F31188BFF36F8FBFF34F8F21
:105EA000FEE79A6AD3E9070181604860506803F110
:105EB0001804A04208BF516000219962116801399D
:105EC00011601E4AD96A1268002A2AD1D3E9024019
:105ED0005A69A060446054681D1DAC4208BF506000
:105EE000106801381060012215488A400468224376
:105EF000026014224A43134886187468A7689C609D
:105F0000DF607D60A5605E618358013383500E4B76
:105F10001B68DB6A994285BF01200C4B002018608A
:105F2000F0BD0B4A50688568D8611D626C60846062
:105F30009A62136801331360E9E700BF740100201F
:105F40009401002010020020880200208801002017
:105F5000CC010020034B1B680360034B1B684360AC
:105F6000704700BF840100209801002070B50D46E5
:105F7000044640B94FF0500383F31188BFF36F8F8D
:105F8000BFF34F8FFEE741B94FF0500383F3118801
:105F9000BFF36F8FBFF34F8FFEE700F05BFA0F4B3D
:105FA00019682B685A1C17D00D482668006862686B
:105FB000864208D08A4206D8002301242B6000F0D4
:105FC00069FA204670BD881A8342F5D95B1A1344DA
:105FD00020462B60FFF7BEFF0024F0E79801002069
:105FE000840100200122014B1A60704788010020C3
:105FF000054B1B6833B1054B1868B0FA80F04009B7
:10600000400070470120704790010020740100207B
:10601000F8B5044608B90020F8BD234B1B6883423D
:1060200008D04FF0500383F31188BFF36F8FBFF395
:106030004F8FFEE7DB6C43B94FF0500383F31188B9
:10604000BFF36F8FBFF34F8FFEE7C16A826C013BD6
:106050009142C364DFD0002BDDD1051D2846FFF738
:106060002DF8124A30B90121E06A1368814023EA11
:10607000010313600120A36C1668C3F10601A1613E
:1060800000FA03F1314311601421E3624B43084AE3
:10609000D61871688F68A160E7607D608D60D15807
:1060A00066610144D150B7E78802002094010020C6
:1060B00010020020914208B5416000610AD8D21A4E
:1060C00083699A420DD2084B011D1868FEF7DFFF65
:1060D000002008BD9A4201D2994202D2034B011D11
:1060E000F3E70120F5E700BF980200209C020020A2
:1060F00070B504460D461646A1692B463246204629
:106100002944FFF7D7FF00B970BDA36920461D449D
:10611000236A9847F0E700000E4B70B51B680546F0
:10612000DB680E46DC68201DFEF7C8FF94F82830B7
:106130005A0709D5324629462046FFF7D9FF20469F
:10614000236ABDE87040184723F0010384F8283023
:10615000F5E700BF9C020020F8B50546FFF78EFC6E
:106160000D4E04463368834209D90C4F3B681A68C8
:1061700052B90B4A116813603960012300E0002313
:1061800020462B603460F8BDDB684FF0FF311868A3
:10619000FFF7C2FFEAE700BF8C0200209C0200204C
:1061A000980200202DE9FF41534F544E3B68D3F82D
:1061B0000080B8F1000F34D00024DB68D3F80080F1
:1061C000FFF754FC01A8FFF7C7FF019B0546002B12
:1061D00044D144BB40452CD3FFF712FD294640462D
:1061E000FFF79AFF0022306801A9FFF796F900280F
:1061F000DCD0019B002BF5DB039C636913B1201DF0
:10620000FEF75CFF6846FFF7A7FF019B0546013BD1
:10621000082BE7D8DFE803F02525484F68252548F7
:106220004F000124CCE7364B1B681C68B4FA84F499
:10623000640922463068A8EB0501FFF735FAFFF73D
:10624000DFFC0028CED14FF0E0234FF08052C3F89E
:10625000042DBFF34F8FBFF36F8FC3E7FFF7D0FC61
:10626000C0E794F82830A16943F0010384F828308E
:10627000029B024619442046FFF71CFF0028B1D0BC
:1062800094F8283059070AD5A36902992A4620466E
:106290001944FFF72DFF2046236A9847A2E723F011
:1062A000010384F82830F6E794F8283023F001033E
:1062B00084F8283096E794F8283043F0010384F8F6
:1062C00028300299A16141B94FF0500383F311883E
:1062D000BFF36F8FBFF34F8FFEE7034602460144C3
:1062E0002046FFF7E7FE7DE794F828309A07DDD4D3
:1062F000204600F06BFA75E79C0200209402002013
:1063000098020020F8B50F4C00F0A4F82568ADB94C
:106310000D4F0E4E3846FEF7ACFE3046FEF7A9FE96
:106320000B4B2A461F600B4B0C2108201E60FEF70A
:10633000ACFF206010B10849FFF78EF9BDE8F840C6
:1063400000F0A8B894020020B4020020A0020020AF
:106350009C020020980200203969000807B5FFF769
:10636000D1FF0D4B1B6843B94FF0500383F31188E5
:10637000BFF36F8FBFF34F8FFEE7084BC822019327
:1063800002230749009307480023FFF747FA002834
:10639000EAD003B05DF804FB9402002090020020D4
:1063A0003E690008A561000806480068006880F39F
:1063B000088862B661B6BFF34F8FBFF36F8F00DFFF
:1063C00000BF000008ED00E0002382B001930D4BF8
:1063D0001B68013308D04FF0500383F31188BFF3DB
:1063E0006F8FBFF34F8FFEE74FF0500383F3118899
:1063F000BFF36F8FBFF34F8F019B002BFCD002B018
:10640000704700BF100000204FF0807340F8043C3C
:10641000054B21F0010140F8081C40F80C3C40F805
:10642000202C4038704700BFC963000800000000FE
:10643000074B19680868B0E8F00F80F30988BFF3CC
:106440006F8F4FF0000080F311884EF00D0E7047F3
:10645000880200204FF0500383F31188BFF36F8F41
:10646000BFF34F8F0A4A13680133012B13600ED11B
:106470004FF0E023D3F8043DDBB243B14FF05003BB
:1064800083F31188BFF36F8FBFF34F8FFEE7704721
:1064900010000020084A136843B94FF0500383F3FB
:1064A0001188BFF36F8FBFF34F8FFEE7013B13607F
:1064B0000BB983F311887047100000200000000022
:1064C000EFF30980BFF36F8F0D4B1A6820E9F00FCF
:1064D00010602DE908404FF0500080F31188FFF75D
:1064E00051FC4FF0000080F31188BDE808401968A6
:1064F0000868B0E8F00F80F30988BFF36F8F70472A
:106500008802002008B54FF0500383F31188BFF3D1
:106510006F8FBFF34F8FFFF7BDFA28B14FF0E02325
:106520004FF08052C3F8042D002383F3118808BD77
:106530004FF0E02200234FF47A7113619361044B12
:106540001B68B3FBF1F3013B5361072313617047F1
:106550000000002013B5274B1A78D2B20192FF2217
:106560001A701B78244ADBB28DF803309DF8033093
:1065700003F0500313700723204A13609DF80310A3
:10658000136809060AD4032B11D04FF0500383F38C
:106590001188BFF36F8FBFF34F8FFEE7013B13608E
:1065A0009DF803305B00DBB28DF80330E6E74FF473
:1065B00040731360019B0F4ADBB213704FF0E0236E
:1065C0000024D3F8202D42F47002C3F8202DD3F814
:1065D000202D42F07042C3F8202DFFF7A9FF084B91
:1065E0001C60FFF7E1FEFFF7CDFB2046FFF7ECFE56
:1065F00002B010BD00E400E0CC020020C802002080
:1066000010000020EFF305830F2B0ED9114A9B5C7D
:10661000114A12789A4208D94FF0500383F3118837
:10662000BFF36F8FBFF34F8FFEE74FF0E0230B4AAE
:10663000D3F80C3D126803F4E063934208D94FF09D
:10664000500383F31188BFF36F8FBFF34F8FFEE7C3
:10665000704700BFF0E300E0CC020020C802002039
:1066600010B5104B1A461B688342FBD354681119AE
:10667000884201BF416810460919516044680119F8
:106680008B420CD1084909688B4203D059682144D8
:10669000416019689042016018BF106010BD194632
:1066A000F8E700BFE4020020E0020020F8B504464D
:1066B000FFF7DCF93F490B68F3B93F4A3F4D5007FC
:1066C0001FBFD01D20F0070002F52052131A0CBF87
:1066D0004FF42053024600201344083B23F00703E5
:1066E00068602A60C3E90000981AC2E900300B60B4
:1066F000334B1860334B1860002C4AD004F007036A
:10670000A3F11102A24251D304F1100EAEEB030C1F
:10671000BCF1000F4ADD2B4F3E68664546D3274A41
:1067200015686868604501D22C68BCB90968A9423F
:106730003CD0A3EB0E0329680344102B14681160AE
:1067400014D905EB0C0042070BD04FF0500383F334
:106750001188BFF36F8FBFF34F8FFEE72A462546A0
:10676000DFE74360C5F804C0FFF77AFF00236A68DB
:106770001349B61A42F000426A60134A08682B6057
:106780001368864203F101033E6038BF0E6008348F
:106790001360FFF735FA63070AD04FF0500383F315
:1067A0001188BFF36F8FBFF34F8FFEE70024F0E730
:1067B0002046F8BDE0020020EC020020E4020020A8
:1067C000D8020020DC020020D402002010B50446CC
:1067D00080B350F8043C002B08DB4FF0500383F3E8
:1067E0001188BFF36F8FBFF34F8FFEE750F8082C6F
:1067F00042B14FF0500383F31188BFF36F8FBFF3A3
:106800004F8FFEE723F0004340F8043CFFF72EF9DA
:10681000094A54F8043C1168A4F108000B441360C1
:10682000FFF71EFFBDE81040044A136801331360F0
:10683000FFF7E6B910BD00BFDC020020D002002047
:1068400003460244934200D1704703F8011BF9E765
:1068500070B500260C4D0D4C641BA410A64209D146
:1068600000F028F800260A4D0A4C641BA410A6422A
:1068700005D170BD55F8043B98470136EEE755F851
:10688000043B98470136F2E7486900084869000868
:10689000486900084C6900080A44914200F1FF333E
:1068A00000D1704710B511F8014B914203F8014F28
:1068B000F9D110BDF8B500BFF8BC08BC9E467047C2
:0C68C000F8B500BFF8BC08BC9E4670474D
:1068CC0000000000010203040000000000000000B2
:1068DC000102030406070809010202030405060766
:1068EC0008090A0B0C0D0E0F10100102020304050F
:1068FC00060708090A0B0C0D0E0F101043616E529F
:10690C006563656976650043616E547800436F6E0C
:10691C0074726F6C00446961676E6F737469637332
:10692C00004F54414D67720049444C4500546D7200
:0C693C005100546D72205376630000007F
:0469480035210008ED
:04694C00112100080D
:1069500000127A0001000000100000000500000095
:04696000AAAAAAAA8B
:040000050800293591
:00000001FF
