:020000040800F2
:1000000000500020810B0008F10A0008F90A0008DE
:10001000010B0008090B0008110B0008000000008C
:10002000000000000000000000000000C17C00088B
:10003000190B000800000000B17E0008F97E0008DE
:10004000C90B0008C90B0008C90B0008C90B000840
:10005000C90B0008C90B0008C90B0008C90B000830
:10006000C90B0008C90B0008C90B0008C90B000820
:10007000C90B0008C90B0008C90B0008C90B000810
:10008000C90B0008C90B0008C90B0008250B0008A4
:10009000390B0008C90B0008C90B0008C90B000880
:1000A000C90B00084D0B0008C90B0008C90B00085C
:1000B000C90B0008C90B0008C90B0008C90B0008D0
:1000C000C90B0008C90B0008C90B0008C90B0008C0
:1000D000C90B0008C90B0008610B0008C90B000818
:1000E000C90B0008C90B0008C90B0008000000007C
:1000F0000000000000000000000000000000000000
:0C01000000000000000000005FF808F1A3
:1001100010B5054C237833B9044B13B10448AFF341
:1001200000800123237010BD180000200000000093
:100130001084000808B5034B1BB103490348AFF313
:10014000008008BD000000001C0000201084000892
:1001500080F0004002E000BF81F0004142001FBF7C
:100160005FEA410392EA030F7FEA226C7FEA236C85
:100170006AD04FEA1262D2EB1363C1BFD21841407A
:1001800048404140B8BF5B42192B88BF704710F010
:10019000004F40F4000020F07F4018BF404211F0B3
:1001A000004F41F4000121F07F4118BF494292EA1B
:1001B000030F3FD0A2F1010241FA03FC10EB0C0047
:1001C000C3F1200301FA03F100F0004302D54942D4
:1001D00060EB4000B0F5000F13D3B0F1807F06D381
:1001E00040084FEA310102F10102FE2A51D2B1F179
:1001F000004F40EBC25008BF20F0010040EA03006E
:100200007047490040EB0000013A28BFB0F5000FED
:10021000EDD2B0FA80FCACF1080CB2EB0C0200FAA3
:100220000CF0AABF00EBC25052421843BCBFD040F2
:100230001843704792F0000F81F4000106BF80F46C
:1002400000000132013BB5E74FEA41037FEA226C2F
:1002500018BF7FEA236C21D092EA030F04D092F0FA
:10026000000F08BF0846704790EA010F1CBF00202E
:10027000704712F07F4F04D1400028BF40F000408B
:10028000704712F100723CBF00F50000704700F0AB
:10029000004343F0FE4040F4000070477FEA2262D2
:1002A00016BF08467FEA23630146420206BF5FEAA3
:1002B000412390EA010F40F4800070474FF00003A3
:1002C00004E000BF10F0004348BF40425FEA000C6A
:1002D00008BF704743F0964301464FF000001CE012
:1002E00050EA010208BF70474FF000030AE000BF68
:1002F00050EA010208BF704711F0004302D54042A6
:1003000061EB41015FEA010C02BF84460146002017
:1003100043F0B64308BFA3F18053A3F50003BCFA32
:100320008CF2083AA3EBC25310DB01FA02FC6344DF
:1003300000FA02FCC2F12002BCF1004F20FA02F2E6
:1003400043EB020008BF20F00100704702F12002D9
:1003500001FA02FCC2F1200250EA4C0021FA02F23A
:1003600043EB020008BF20EADC7070474FF0FF3C0F
:1003700006E000BF4FF0010C02E000BF4FF0010C9F
:100380004DF804CD4FEA40024FEA41037FEA226C68
:1003900018BF7FEA236C11D001B052EA530C18BF8A
:1003A00090EA010F58BFB2EB030088BFC81738BFEF
:1003B0006FEAE17018BF40F0010070477FEA226CDD
:1003C00002D15FEA402C05D17FEA236CE4D15FEAD9
:1003D000412CE1D05DF8040B704700BF844608460D
:1003E0006146FFE70FB5FFF7C9FF002848BF10F1CE
:1003F000000F0FBD4DF808EDFFF7F4FF0CBF012013
:1004000000205DF808FB00BF4DF808EDFFF7EAFF9C
:1004100034BF012000205DF808FB00BF4DF808ED57
:10042000FFF7E0FF94BF012000205DF808FB00BF4C
:100430004DF808EDFFF7D2FF94BF012000205DF8D2
:1004400008FB00BF4DF808EDFFF7C8FF34BF0120DF
:1004500000205DF808FB00BF42000ED2B2F1FE4F53
:100460000BD34FF09E03B3EB126209D44FEA002383
:1004700043F0004323FA02F070474FF0000070474A
:1004800012F1610F01D1420202D14FF0FF307047EB
:100490004FF00000704700BF80B500AF00F0C8FF0C
:1004A00000F01AF800F01CF900F070F800F0A4F861
:1004B00000F0ECF800F052F9064801F0AFF9022123
:1004C000044801F0DFFB05F0E7F905F0F5F900BF9E
:1004D000FDE700BF3400002080B594B000AF07F105
:1004E000280328220021184607F058FF07F11403BB
:1004F00000221A605A609A60DA601A613B1D00227D
:100500001A605A609A60DA600A23BB620123BB63F7
:100510001023FB6301233B6402237B640023BB6441
:100520004FF46013FB6407F12803184602F046FB02
:100530000346002B01D000F05FF90F237B610223FB
:10054000BB610023FB614FF480633B6200237B624D
:1005500007F114030221184602F0B2FD0346002BF6
:1005600001D000F049F901237B604FF40073BB60B8
:100570003B1D184602F062FF0346002B01D000F03D
:100580003BF900BF5037BD4680BD000080B500AFCD
:10059000174B184A1A60164B04225A60144B00225B
:1005A0009A60134B0022DA60114B4FF440221A611B
:1005B0000F4B4FF480125A610D4B00221A760C4BF0
:1005C00000225A760A4B00229A76094B0022DA76EC
:1005D000074B00221A77064B00225A77044800F096
:1005E00059FF0346002B01D000F006F900BF80BD83
:1005F000340000200064004080B582B000AF3B1D95
:1006000000210A461A800A469A7000233B601D4B5F
:100610001D4A1A601B4B4FF0FF325A60194B4FF4C2
:1006200080729A60174803F075F80346002B01D0DA
:1006300000F0E2F800233B7100237B710023BB71C3
:100640003B1D002219460F4803F0F0F80346002B2B
:1006500001D000F0D1F801233B7001237B7001230E
:10066000BB700023FB703B4600221946054803F08F
:100670004DFA0346002B01D000F0BEF800BF08374A
:10068000BD4680BD5C0000200028004080B500AF62
:10069000114B124A1A60104B4FF4E1325A600E4B64
:1006A00000229A600C4B0022DA600B4B00221A6188
:1006B000094B0C225A61084B00229A61064B00221A
:1006C000DA61054804F00CF80346002B01D000F075
:1006D00093F800BF80BD00BF7000002000440040C0
:1006E00080B586B000AF07F1080300221A605A6097
:1006F0009A60DA60174B9B69164A43F004039361D2
:10070000144B9B6903F004037B607B68114B9B696E
:10071000104A43F0080393610E4B9B6903F00803F2
:100720003B603B68002220210B4802F009FA20239D
:10073000BB600123FB6000233B6102237B6107F167
:1007400008031946044802F077F800BF1837BD4681
:1007500080BD00BF00100240000C014080B58AB08F
:1007600000AF00237B610123BB610123FB610023F8
:100770003B6101233B624FF47C433B6000237B6081
:100780004FF6FF73BB604FF6FF73FB603B461946A5
:100790000F4800F07AFF01237B6146F220033B60A3
:1007A00000237B603B461946094800F06EFF022398
:1007B0007B614FF4C0433B6000237B603B4619469E
:1007C000034800F062FF00BF2837BD4680BD00BF70
:1007D0003400002080B582B000AF78607B681B6871
:1007E000044A934201D100F039FE00BF0837BD46EC
:1007F00080BD00BF002C014080B400AF72B600BFC6
:1008000000BFFDE780B485B000AF154B9B69144A6B
:1008100043F001039361124B9B6903F00103BB603A
:10082000BB680F4BDB690E4A43F08053D3610C4B1E
:10083000DB6903F080537B607B680A4B5B68FB607D
:10084000FB6823F0E063FB60FB6843F00073FB6030
:10085000044AFB68536000BF1437BD4680BC704734
:10086000001002400000014080B588B000AF786001
:1008700007F1100300221A605A609A60DA607B6800
:100880001B68244A934241D1234BDB69224A43F03F
:100890000073D361204BDB6903F00073FB60FB68DE
:1008A0001D4B9B691C4A43F0040393611A4B9B69DF
:1008B00003F00403BB60BB684FF400633B6100239B
:1008C0007B610023BB6107F110031946134801F057
:1008D000B3FF4FF480533B6102237B610323FB6131
:1008E00007F1100319460D4801F0A6FF0022072169
:1008F000132001F0C4FC132001F0DDFC00220721CD
:10090000142001F0BCFC142001F0D5FC00BF2037FE
:10091000BD4680BD00640040001002400008014058
:1009200080B584B000AF78607B681B680B4A934247
:1009300010D102F037F90A4BDB69094A43F0006332
:10094000D361074BDB6903F00063FB60FB68054B79
:1009500001221A6000BF1037BD4680BD002800404C
:10096000001002403C04424280B588B000AF78607D
:1009700007F1100300221A605A609A60DA607B68FF
:100980001B681F4A934237D11E4BDB691D4A43F453
:100990000033D3611B4BDB6903F40033FB60FB685E
:1009A000184B9B69174A43F004039361154B9B69ED
:1009B00003F00403BB60BB6804233B6102237B613B
:1009C0000323FB6107F1100319460F4801F034FFC0
:1009D00008233B6100237B610023BB6107F1100307
:1009E0001946094801F028FF00220721262001F0BE
:1009F00046FC262001F05FFC00BF2037BD4680BDCD
:100A000000440040001002400008014080B58CB056
:100A100000AF78600023BB6200237B62002387F86D
:100A20002F302E4B9B692D4A43F4006393612B4B6F
:100A30009B6903F40063BB60BB6807F10C0207F11C
:100A400010031146184602F0ABFC02F095FCB862A8
:100A5000BB6A234AA2FB03239B0C013B7B62214B15
:100A6000214A1A601F4B40F2E732DA601D4A7B6A66
:100A700053601C4B00221A611A4B00229A60194BDA
:100A800000229A61174803F0EDFB034687F82F30E8
:100A900097F82F30002B1BD1124803F03BFC034684
:100AA00087F82F3097F82F30002B11D1192001F043
:100AB00002FC7B680F2B08D800227968192001F00E
:100AC000DEFB0A4A7B68136002E0012387F82F30BF
:100AD00097F82F3018463037BD4680BD00100240D1
:100AE00083DE1B43B8000020002C014004000020DE
:100AF00080B400AF00BFFDE780B400AF00BFFDE7EA
:100B000080B400AF00BFFDE780B400AF00BFFDE7D9
:100B100080B400AF00BFFDE780B400AF00BFBD46AA
:100B200080BC704780B500AF024801F0D0F800BF2C
:100B300080BD00BF3400002080B500AF024801F046
:100B4000C6F800BF80BD00BF3400002080B500AFF4
:100B5000024803F031FC00BF80BD00BFB800002098
:100B600080B500AF024803F065FE00BF80BD00BF46
:100B70007000002080B400AF00BFBD4680BC70474D
:100B8000FFF7F8FF0B480C490C4A002302E0D45849
:100B9000C4500433C4188C42F9D3094A094C0023C9
:100BA00001E013600432A242FBD307F0FFFBFFF722
:100BB00073FC70470000002014000020C48400086B
:100BC00018000020F42A0020FEE7000080B485B061
:100BD00000AF78600B46FB70234BFB60FB681B6823
:100BE000FB72FB680433FB60FA7AFB789A4201D906
:100BF000FB78FB720023BB722CE0F968BA7A1346CB
:100C00005B0013449B001A467B6813440A681A6011
:100C1000FB680433FB60F968BA7A13465B0013443F
:100C20009B001A467B6813440A685A60FB680433C9
:100C3000FB60F968BA7A13465B0013449B001A46BE
:100C40007B6813440A689A60FB680433FB60BB7AD4
:100C50000133BB72BA7AFB7A9A42CED3FB7A18463A
:100C60001437BD4680BC704700F4000880B586B0DC
:100C700000AF07F1080300221A605A609A60DA6038
:100C800001F04AFC0023BB600C4B3B6101237B61FC
:100C90003A1D07F108031146184601F025FD4FF0F3
:100CA00000024FF000030549022001F0C5FB01F0EE
:100CB00059FC00BF1837BD4680BD00BF00F40008D6
:100CC0002DE9F04FABB000AFF86007F128030A211F
:100CD0001846FFF77BFF034687F8A23097F8A2304B
:100CE000092B00F2BD8097F8A22013465B00134445
:100CF0009B00A03307F108021344803BFA681A6096
:100D000097F8A24000F0B4F8024623465B00234463
:100D10009B00A03307F108010B447C3B1A6097F855
:100D2000A24000F0C7F8024623465B0023449B0024
:100D3000A03307F108010B44783B1A6097F8A23002
:100D4000013387F8A23007F1180300221A605A60B5
:100D50009A60DA6001F0E0FB0023BB61434B3B6229
:100D600001237B6207F1140207F1180311461846AC
:100D700001F0BAFC3D4BC7F8A43097F8A23000222E
:100D80003B607A60D7E90023D7F8A410022001F075
:100D900053FBD7F8A4300433C7F8A430002387F8F6
:100DA000A33055E097F8A32013465B0013449B0043
:100DB000A03307F108021344803B1B6800229846C9
:100DC000914642464B46D7F8A410022001F034FB6E
:100DD000D7F8A4300433C7F8A43097F8A3201346FB
:100DE0005B0013449B00A03307F1080213447C3BD3
:100DF0001B6800229A46934652465B46D7F8A410D9
:100E0000022001F019FBD7F8A4300433C7F8A4304E
:100E100097F8A32013465B0013449B00A03307F10F
:100E200008021344783B1B6800221D4616462A46DA
:100E30003346D7F8A410022001F0FEFAD7F8A43008
:100E40000433C7F8A43097F8A330013387F8A330F0
:100E500097F8A32097F8A2309A42A3D301F082FB1F
:100E600000BFAC37BD46BDE8F08F00BF00F40008FE
:100E700080B582B000AF00237B603B46002219465C
:100E80000B4802F06BFDBB781A467B6813437B600E
:100E90007B781B027A6813437B603B781B047A687B
:100EA00013437B607B6818460837BD4680BD00BF92
:100EB0005C00002080B584B000AF0023FB600023FD
:100EC000BB603B1D002219460D4802F0D5FEFB79A0
:100ED00003F5FA63BB60BB791A46FB681343FB60FA
:100EE0007B791B02FA681343FB60BB681B04FA683A
:100EF0001343FB60FB6818461037BD4680BD00BF3A
:100F00005C00002080B588B000AF78600B46FB70B5
:100F10004FF4FD63FB60FB783B740023FB770BE031
:100F2000FB7F7A681A44FB7F127820333B4403F836
:100F30000F2CFB7F0133FB77FA7FFB789A42EFD3CC
:100F4000FB78FB7708E0FB7F20333B44002203F86B
:100F50000F2CFB7F0133FB77FB7F072BF3D9064B6D
:100F6000186807F10C0100234FF0FF3204F050FF26
:100F700000BF2037BD4680BD2C01002080B584B065
:100F800000AF03460A46FB711346BB717F233B73D8
:100F9000FB797B73BB79BB7307F10C030321184604
:100FA000FFF7B0FF00BF1037BD4680BD80B584B0ED
:100FB00000AF03460A46FB711346BB71FB79403311
:100FC000DBB23B73BB797B7307F10C03022118463C
:100FD000FFF798FF00BF1037BD4680BD80B582B0D7
:100FE00000AF0346FB71FB79012B08D8144AFB794B
:100FF0001370FB7919461020FFF7D8FF1CE0FB792E
:10100000022B02D0FB79032B11D10E4B1B78012B45
:1010100008D10B4AFB791370FB7919461020FFF7B2
:10102000C5FF09E031211020FFF7A8FF04E01121DE
:101030001020FFF7A3FFFFE700BF0837BD4680BDC4
:10104000000100200101002080B584B000AF0346FC
:101050003960FB711346BB71FB79002B21D1BB7941
:10106000032B1ED93B6802331B781B021AB23B6864
:1010700003331B781BB213431BB2FB81FB8941F284
:101080003422934208D10B4B01221A70FB79194686
:101090002720FFF78BFF09E035212720FFF76EFFA0
:1010A00004E011212720FFF769FF00BF00BF1037C0
:1010B000BD4680BD0101002080B586B000AF03466B
:1010C0003960FB712D4B1B78002B03D02B4B1B7809
:1010D000012B4AD13B6802331B781B021AB23B68D2
:1010E00003331B781BB213431BB2FB8262233B7397
:1010F000FB797B73FB8A4FF29012934215D1204B00
:101100001B681846FFF7A8F903467B827B8A1B0AF7
:101110009BB2DBB2BB737B8ADBB2FB7307F10C03C0
:1011200004211846FFF7EEFE24E0FB8A4FF29112ED
:10113000934215D1134B1B681846FFF78DF90346F0
:10114000BB82BB8A1B0A9BB2DBB2BB73BB8ADBB21E
:10115000FB7307F10C0304211846FFF7D3FE09E0E7
:1011600011212220FFF70AFF04E011212220FFF7BE
:1011700005FF00BF00BF1837BD4680BD000100203D
:10118000340100203801002080B5ACB000AF034628
:10119000FB71814B1B78022B40F0F5807F4B1B7855
:1011A000002B00F0F08007F10C030A211846FFF72E
:1011B0000DFD034687F8AD30592387F8A030FB7941
:1011C00087F8A13097F8AD3087F8A23007F1A00377
:1011D00003211846FFF796FE002387F8AF30CAE0D8
:1011E00097F8AF2013465B0013449B00B0333B4499
:1011F000A43B1B681B0EDBB287F8943097F8AF2036
:1012000013465B0013449B00B0333B44A43B1B6874
:101210001B0CDBB287F8953097F8AF2013465B00C4
:1012200013449B00B0333B44A43B1B681B0ADBB256
:1012300087F8963097F8AF2013465B0013449B0065
:10124000B0333B44A43B1B68DBB287F8973097F878
:10125000AF2013465B0013449B00B0333B44A03BDC
:101260001B68C7F8A830D7F8A830DBB287F89830E9
:10127000D7F8A8301B0ADBB287F89930D7F8A83026
:101280001B0CDBB287F89A30D7F8A8301B0EDBB204
:1012900087F89B3097F8AF2013465B0013449B0000
:1012A000B0333B449C3B1B68C7F8A430D7F8A4304C
:1012B000DBB287F89C30D7F8A4301B0ADBB287F882
:1012C0009D30D7F8A4301B0CDBB287F89E30D7F8DE
:1012D000A4301B0EDBB287F89F30002387F8AE30B6
:1012E000012387F88C30002387F8AE3011E097F89F
:1012F000AE2097F8AE300133B0323A4412F81C2CCD
:10130000B0333B4403F8242C97F8AE30013387F810
:10131000AE3097F8AE30062BE9D907F18C030821DF
:101320001846FFF7EFFD022387F88430072387F87C
:10133000AE3011E097F8AE2097F8AE30063BB032F1
:101340003A4412F81C2CB0333B4403F82C2C97F889
:10135000AE30013387F8AE3097F8AE300B2BE9D9B9
:1013600007F1840306211846FFF7CCFD97F8AF304C
:10137000013387F8AF3097F8AF2097F8AD309A4235
:10138000FFF42EAF04E011211920FFF7F7FD00BF95
:1013900000BFB037BD4680BD000100200101002024
:1013A00080B582B000AF0346FB710C4B1B78022B5B
:1013B0000BD10B4B1B78002B07D0FFF757FCFB79A9
:1013C00019461420FFF7F2FD04E011211420FFF765
:1013D000D5FD00BF00BF0837BD4680BD000100201D
:1013E0000101002080B582B000AF03463960FB7177
:1013F0000C4B1B78032B0BD10B4B1B78002B07D00E
:101400000A4B186839460023002204F001FD04E06D
:1014100011213420FFF7B2FD00BF00BF0837BD46E1
:1014200080BD00BF0001002001010020500100200C
:1014300080B500AF084B1B68074A43F010031360E8
:10144000032000F011FF0F20FFF7E0FAFFF7DAF9B1
:101450000023184680BD00BF0020024080B400AFCA
:10146000054B1B781A46054B1B681344034A13604F
:1014700000BFBD4680BC704708000020040100206A
:1014800080B400AF024B1B681846BD4680BC704755
:101490000401002080B584B000AF78607B68002B29
:1014A00001D10123EDE07B6893F82030DBB2002B03
:1014B00002D17868FFF7D8F97B681B681A687B68E7
:1014C0001B6842F001021A60FFF7DAFFF86012E0D1
:1014D000FFF7D6FF0246FB68D31A0A2B0BD97B68AD
:1014E0005B6A43F400327B685A627B68052283F8AA
:1014F00020200123C5E07B681B685B6803F00103C3
:10150000002BE5D07B681B681A687B681B6822F09B
:1015100002021A60FFF7B4FFF86012E0FFF7B0FFB5
:101520000246FB68D31A0A2B0BD97B685B6A43F42B
:1015300000327B685A627B68052283F820200123F1
:101540009FE07B681B685B6803F00203002BE5D11A
:101550007B681B7E012B08D17B681B681A687B683F
:101560001B6842F080021A6007E07B681B681A68FB
:101570007B681B6822F080021A607B685B7E012B0F
:1015800008D17B681B681A687B681B6842F04002C0
:101590001A6007E07B681B681A687B681B6822F08A
:1015A00040021A607B689B7E012B08D17B681B6818
:1015B0001A687B681B6842F020021A6007E07B68AB
:1015C0001B681A687B681B6822F020021A607B681F
:1015D000DB7E012B08D17B681B681A687B681B685F
:1015E00022F010021A6007E07B681B681A687B68AB
:1015F0001B6842F010021A607B681B7F012B08D128
:101600007B681B681A687B681B6842F008021A60D6
:1016100007E07B681B681A687B681B6822F0080279
:101620001A607B685B7F012B08D17B681B681A6896
:101630007B681B6842F004021A6007E07B681B6845
:101640001A687B681B6822F004021A607B689A683B
:101650007B68DB681A437B681B691A437B685B699C
:1016600042EA03017B685B685A1E7B681B680A4379
:10167000DA617B6800225A627B68012283F82020AD
:10168000002318461037BD4680BD80B487B000AF38
:10169000786039607B681B687B617B6893F82030D9
:1016A000FB74FB7C012B03D0FB7C022B40F0AA8057
:1016B0007B69D3F8003243F001027B69C3F8002252
:1016C0003B685B6903F01F03012202FA03F3FB602E
:1016D0007B69D3F81C22FB68DB431A407B69C3F8A3
:1016E0001C223B68DB69002B23D17B69D3F80C22D9
:1016F000FB68DB431A407B69C3F80C223B68DB685C
:1017000019043B685B689BB23A68526919437B696C
:10171000483243F832103B689B6819043B681B68E9
:101720009AB23B685B690A4379694833DB000B4432
:101730005A603B68DB69012B22D17B69D3F80C220C
:10174000FB681A437B69C3F80C223B681B681904C9
:101750003B685B689BB23A68526919437B694832BF
:1017600043F832103B689B6819043B68DB689AB207
:101770003B685B690A4379694833DB000B445A6074
:101780003B689B69002B09D17B69D3F80422FB6875
:10179000DB431A407B69C3F8042207E07B69D3F876
:1017A0000422FB681A437B69C3F804223B681B6967
:1017B000002B09D17B69D3F81422FB68DB431A4064
:1017C0007B69C3F8142207E07B69D3F81422FB6815
:1017D0001A437B69C3F814223B681B6A012B07D1AB
:1017E0007B69D3F81C22FB681A437B69C3F81C226F
:1017F0007B69D3F8003223F001027B69C3F8002231
:10180000002306E07B685B6A43F480227B685A62AF
:10181000012318461C37BD4680BC704780B584B094
:1018200000AF78607B6893F82030DBB2012B2ED1BB
:101830007B68022283F820207B681B681A687B681B
:101840001B6822F001021A60FFF71AFEF86012E02E
:10185000FFF716FE0246FB68D31A0A2B0BD97B68EA
:101860005B6A43F400327B685A627B68052283F826
:101870002020012312E07B681B685B6803F00103F2
:10188000002BE5D17B6800225A62002306E07B68CA
:101890005B6A43F400227B685A62012318461037C2
:1018A000BD4680BD80B489B000AFF860B9607A6091
:1018B0003B60FB6893F82030FB77FB681B689B68F4
:1018C000BB61FB7F012B03D0FB7F022B40F0AD807F
:1018D000BB6903F08063002B0AD1BB6903F000638E
:1018E000002B05D1BB6903F08053002B00F09580DD
:1018F000BB691B0E03F003037B6101227B699A40E5
:101900003B681A60BB689B68002B0DD1BB681B68E5
:101910005A05BB68DB68F96809681A437B691833A4
:101920001B010B441A600FE0BB685B68DA00BB6800
:101930009B681A43BB68DB68F96809681A437B69CE
:1019400018331B010B441A60FB681968BB681A69DD
:101950007B6918331B010B4404331A60BB681B7D81
:10196000012B11D1FB681A687B6918331B011344E2
:1019700004331B68FA68116843F480727B6918337A
:101980001B010B4404331A607B6807331B781A066B
:101990007B6806331B781B041A437B6805331B786E
:1019A0001B0213437A68043212781046FA681168F1
:1019B00043EA00027B691B010B4403F5C6731A60FE
:1019C0007B6803331B781A067B6802331B781B0481
:1019D0001A437B6801331B781B0213437A68127821
:1019E0001046FA68116843EA00027B691B010B4448
:1019F00003F5C4731A60FB681A687B6918331B010E
:101A000013441B68FA68116843F001027B691833BC
:101A10001B010B441A6000230EE0FB685B6A43F471
:101A20000012FB685A62012306E0FB685B6A43F41C
:101A30008022FB685A62012318462437BD4680BCC9
:101A4000704780B487B000AFF860B9607A603B60DF
:101A5000FB6893F82030FB75FB7D012B03D0FB7DE9
:101A6000022B40F00381BB68002B0ED1FB681B6882
:101A7000DB6803F00303002B16D1FB685B6A43F4B9
:101A80000012FB685A620123F7E0FB681B681B69C0
:101A900003F00303002B07D1FB685B6A43F40012D9
:101AA000FB685A620123E8E0FB681A68BB681B33D5
:101AB0001B0113441B6803F004027B689A607B6877
:101AC0009B68002B0CD1FB681A68BB681B331B0199
:101AD00013441B685B0DC3F30A027B681A600BE0BA
:101AE000FB681A68BB681B331B0113441B68DB08C7
:101AF00023F060427B685A60FB681A68BB681B333E
:101B00001B0113441B6803F002027B68DA60FB6868
:101B10001A68BB681B331B01134404331B6803F0B2
:101B20000803002B03D07B6808221A610BE0FB68D6
:101B30001A68BB681B331B01134404331B6803F092
:101B40000F027B681A61FB681A68BB681B331B01B4
:101B5000134404331B681B0ADAB27B689A61FB6882
:101B60001A68BB681B331B01134404331B681B0C2E
:101B70009AB27B685A61FB681A68BB681B01134400
:101B800003F5DC731B68DAB23B681A70FB681A68ED
:101B9000BB681B01134403F5DC731B681A0A3B681E
:101BA0000133D2B21A70FB681A68BB681B01134478
:101BB00003F5DC731B681A0C3B680233D2B21A704F
:101BC000FB681A68BB681B01134403F5DC731B68D0
:101BD0001A0E3B680333D2B21A70FB681A68BB68EE
:101BE0001B01134403F5DE731A683B680433D2B259
:101BF0001A70FB681A68BB681B01134403F5DE7397
:101C00001B681A0A3B680533D2B21A70FB681A685F
:101C1000BB681B01134403F5DE731B681A0C3B6899
:101C20000633D2B21A70FB681A68BB681B011344F2
:101C300003F5DE731B681A0E3B680733D2B21A70C5
:101C4000BB68002B08D1FB681B68DA68FB681B685F
:101C500042F02002DA6007E0FB681B681A69FB6843
:101C60001B6842F020021A61002306E0FB685B6AF1
:101C700043F48022FB685A62012318461C37BD4694
:101C800080BC704780B485B000AF786039607B68F5
:101C900093F82030FB73FB7B012B02D0FB7B022BE4
:101CA00009D17B681B6859697B681B683A680A43DD
:101CB0005A61002306E07B685B6A43F480227B68FC
:101CC0005A62012318461437BD4680BC704780B560
:101CD0008AB000AF786000237B627B681B685B6919
:101CE0003B627B681B685B68FB617B681B689B6869
:101CF000BB617B681B68DB687B617B681B681B6959
:101D00003B617B681B689B69FB603B6A03F00103D6
:101D1000002B7CD0BB6903F00103002B23D07B6830
:101D20001B6801229A60BB6903F00203002B03D0F9
:101D3000786800F083F916E0BB6903F00403002B18
:101D400004D07B6A43F400637B620CE0BB6903F060
:101D50000803002B04D07B6A43F480537B6202E0CB
:101D6000786800F086F9BB6903F48073002B24D0F7
:101D70007B681B684FF480729A60BB6903F4007340
:101D8000002B03D0786800F062F916E0BB6903F419
:101D90008063002B04D07B6A43F400537B620CE029
:101DA000BB6903F40063002B04D07B6A43F48043D7
:101DB0007B6202E0786800F065F9BB6903F4803368
:101DC000002B24D07B681B684FF480329A60BB697B
:101DD00003F40033002B03D0786800F041F916E0DB
:101DE000BB6903F48023002B04D07B6A43F40043D7
:101DF0007B620CE0BB6903F40023002B04D07B6AF8
:101E000043F480337B6202E0786800F044F93B6A77
:101E100003F00803002B0CD07B6903F01003002BA8
:101E200007D07B6A43F400737B627B681B681022D7
:101E3000DA603B6A03F00403002B0BD07B6903F0EC
:101E40000803002B06D07B681B680822DA607868DC
:101E500000F02AF93B6A03F00203002B09D07B68EB
:101E60001B68DB6803F00303002B02D0786803F0E3
:101E700051FA3B6A03F04003002B0CD03B6903F09E
:101E80001003002B07D07B6A43F480637B627B687E
:101E90001B6810221A613B6A03F02003002B0BD051
:101EA0003B6903F00803002B06D07B681B680822FF
:101EB0001A61786800F00AF93B6A03F01003002BFE
:101EC00009D07B681B681B6903F00303002B02D059
:101ED000786800F0F2F83B6A03F40033002B0BD073
:101EE000FB6903F01003002B06D07B681B681022EF
:101EF0005A60786800F0F3F83B6A03F48033002BF3
:101F00000BD0FB6903F00803002B06D07B681B682D
:101F100008225A60786800F0EBF83B6A03F400434B
:101F2000002B7BD0FB6903F00403002B72D03B6ACB
:101F300003F48073002B08D0FB6803F00103002B2F
:101F400003D07B6A43F001037B623B6A03F40073B6
:101F5000002B08D0FB6803F00203002B03D07B6A40
:101F600043F002037B623B6A03F48063002B08D0DA
:101F7000FB6803F00403002B03D07B6A43F00403E7
:101F80007B623B6A03F40063002B43D0FB6803F0E1
:101F90007003002B3ED0FB6803F07003602B2BD046
:101FA000602B2ED8502B22D0502B2AD8402B19D062
:101FB000402B26D8302B10D0302B22D8102B02D01B
:101FC000202B05D01DE07B6A43F008037B6219E0FB
:101FD0007B6A43F010037B6214E07B6A43F02003CA
:101FE0007B620FE07B6A43F040037B620AE07B6A1E
:101FF00043F080037B6205E07B6A43F480737B627D
:1020000000E000BF7B681B689A697B681B6822F050
:1020100070029A617B681B6804225A607B6A002BFD
:1020200008D07B685A6A7B6A1A437B685A62786870
:1020300000F067F800BF2837BD4680BD80B483B08C
:1020400000AF786000BF0C37BD4680BC704780B4DD
:1020500083B000AF786000BF0C37BD4680BC7047CE
:1020600080B483B000AF786000BF0C37BD4680BC41
:10207000704780B483B000AF786000BF0C37BD46B6
:1020800080BC704780B483B000AF786000BF0C376D
:10209000BD4680BC704780B483B000AF786000BF9D
:1020A0000C37BD4680BC704780B483B000AF786009
:1020B00000BF0C37BD4680BC704780B483B000AF12
:1020C000786000BF0C37BD4680BC704780B483B0D9
:1020D00000AF786000BF0C37BD4680BC704780B44D
:1020E00083B000AF786000BF0C37BD4680BC70473E
:1020F00080B483B000AF786000BF0C37BD4680BCB1
:10210000704780B483B000AF786000BF0C37BD4625
:1021100080BC704780B485B000AF78607B6803F006
:102120000703FB600C4BDB68BB60BA684FF6FF032C
:102130001340BB60FB681A02BB68134343F0BF63E4
:1021400043F40033BB60044ABB68D36000BF14375C
:10215000BD4680BC704700BF00ED00E080B400AF1A
:10216000044BDB681B0A03F007031846BD4680BC1E
:10217000704700BF00ED00E080B483B000AF0346BD
:10218000FB7197F90730002B0BDBFB7903F01F0283
:10219000064997F907305B09012000FA02F241F87D
:1021A000232000BF0C37BD4680BC704700E100E033
:1021B00080B483B000AF03463960FB7197F90730F4
:1021C000002B0ADB3B68DAB20C4997F907301201A1
:1021D000D2B20B4483F800230AE03B68DAB2084924
:1021E000FB7903F00F03043B1201D2B20B441A76C1
:1021F00000BF0C37BD4680BC704700BF00E100E067
:1022000000ED00E080B489B000AFF860B9607A609A
:10221000FB6803F00703FB61FB69C3F10703042BB1
:1022200028BF0423BB61FB690433062B02D9FB6979
:10223000033B00E000237B614FF0FF32BB6902FAF1
:1022400003F3DA43BB681A407B699A404FF0FF31D1
:102250007B6901FA03F3D9437B680B4013431846AB
:102260002437BD4680BC704780B582B000AF78602F
:102270007868FFF74FFF00BF0837BD4680BD80B5C7
:1022800086B000AF0346B9607A60FB7300237B61C0
:10229000FFF764FF78617A68B9687869FFF7B2FF81
:1022A000024697F90F3011461846FFF781FF00BF2D
:1022B0001837BD4680BD80B582B000AF0346FB71C4
:1022C00097F907301846FFF757FF00BF0837BD469C
:1022D00080BD80B485B000AF78600023FB737B685D
:1022E00093F82130DBB2022B08D07B6804229A637A
:1022F0007B68002283F82020012320E07B681B6894
:102300001A687B681B6822F00E021A607B681B68E3
:102310001A687B681B6822F001021A607B681A6CDD
:102320007B68DB6B012101FA02F25A607B680122B3
:1023300083F821207B68002283F82020FB7B18464D
:102340001437BD4680BC704780B584B000AF78605C
:102350000023FB737B6893F82130DBB2022B05D09E
:102360007B6804229A630123FB7351E07B681B683E
:102370001A687B681B6822F00E021A607B681B6873
:102380001A687B681B6822F001021A607B681B6870
:10239000224A934229D07B681B68214A934222D06B
:1023A0007B681B681F4A93421AD07B681B681E4AD1
:1023B000934212D07B681B681C4A93420AD07B6808
:1023C0001B681B4A934202D14FF480130EE04FF07A
:1023D00080730BE04FF4803308E04FF4805305E046
:1023E0004FF4807302E0102300E00123114A536090
:1023F0007B68012283F821207B68002283F820205B
:102400007B685B6B002B03D07B685B6B78689847BD
:10241000FB7B18461037BD4680BD00BF0800024058
:102420001C000240300002404400024058000240BC
:102430006C00024000000240F0B587B000AFF860C9
:10244000B960C7E900230123FB750023BB75002396
:102450007B752F4B1B7E012B01D1022354E02C4BAB
:1024600001221A764CF2503000F0A8F80346FB75B2
:10247000FB7D002B44D1FB68012B02D101237B752E
:1024800007E0FB68022B02D102237B7501E00423E5
:102490007B750023BB752DE0BB7D5A00BB6802EB4A
:1024A000030CBB7D1901D7E90023C1F12006A1F17E
:1024B000200022FA01F403FA06F6344323FA00F06E
:1024C000044323FA01F5A3B21946604600F05AF816
:1024D0004CF2503000F072F80346FB750D4B1B694F
:1024E0000C4A23F001031361FB7D002B07D1BB7D58
:1024F0000133BB75BA7D7B7D9A42CDD300E000BF2E
:10250000034B00221A76FB7D18461C37BD46F0BDF2
:10251000080100200020024080B483B000AF0023F7
:10252000FB710D4B1B6903F08003002B0DD00A4B90
:102530000A4A5A60084B0A4A5A60074B1B6903F063
:102540008003002B01D00123FB71FB7918460C3767
:10255000BD4680BC704700BF002002402301674594
:10256000AB89EFCD80B400AF054B1B69044A43F043
:102570008003136100231846BD4680BC704700BF2E
:102580000020024080B483B000AF78600B467B80AF
:10259000084B0022DA61084B1B69074A43F001032C
:1025A00013617B687A881A8000BF0C37BD4680BCF7
:1025B000704700BF080100200020024080B584B0B1
:1025C00000AF7860FEF75CFFF86010E07B68B3F165
:1025D000FF3F0CD07B68002B07D0FEF751FF02466F
:1025E000FB68D31A7A689A4201D2032325E0154B7F
:1025F000DB6803F00103002BE8D1124BDB6803F02A
:102600002003002B02D00F4B2022DA600D4BDB6839
:1026100003F01003002B0BD10A4BDB6903F001031D
:10262000002B05D1074BDB6803F00403002B03D01C
:1026300000F00AF8012300E0002318461037BD46D9
:1026400080BD00BF0020024080B483B000AF0023F3
:102650007B60234BDB6803F01003002B09D0214B78
:10266000DB6943F002031F4AD3617B6843F0100328
:102670007B601B4BDB6803F00403002B09D0194B74
:10268000DB6943F00103174AD3617B6843F004031D
:102690007B60134BDB6903F00103002B0BD0114B64
:1026A000DB6943F004030F4AD3610D4BDB690C4A2D
:1026B00023F00103D3617B6840F20112934206D1FB
:1026C000074BDB69064A23F00103D36102E0044AA9
:1026D0007B68D36000BF0C37BD4680BC704700BF2D
:1026E000002002400801002080B584B000AF78606F
:1026F00039600123FB730023BB602F4B1B7E012B32
:1027000001D1022353E02C4B01221A767B681B680F
:10271000022B16D14CF25030FFF750FF0346002B2E
:1027200041D1012000F04CF84CF25030FFF746FF49
:102730000346FB73214B1B69204A23F004031361FA
:1027400031E04CF25030FFF739FF0346002B2AD11D
:102750003B684FF0FF321A607B689B68BB6019E0F2
:10276000B86800F049F84CF25030FFF727FF0346F5
:10277000FB73124B1B69114A23F002031361FB7BAD
:10278000002B03D03B68BA681A600CE0BB6803F505
:102790008063BB607B68DB689A027B689B6813443C
:1027A000BA689A42DCD3044B00221A76FB7B1846A7
:1027B0001037BD4680BD00BF080100200020024048
:1027C00080B483B000AF7860094B0022DA61094B16
:1027D0001B69084A43F004031361064B1B69054A51
:1027E00043F04003136100BF0C37BD4680BC704707
:1027F000080100200020024080B483B000AF786060
:102800000B4B0022DA610B4B1B690A4A43F00203AF
:102810001361084A7B685361064B1B69054A43F004
:102820004003136100BF0C37BD4680BC704700BF3A
:10283000080100200020024080B48BB000AF786017
:10284000396000237B6200233B6269E101227B6ADD
:1028500002FA03F3FB613B681B68FA691340BB6132
:10286000BA69FB699A4240F058813B685B689A4AB2
:1028700093425ED0984A934275D8984A934258D072
:10288000964A93426FD8964A934252D0944A9342C2
:1028900069D8944A93424CD0924A934263D8924A60
:1028A000934246D0904A93425DD8122B2AD8122BDD
:1028B00059D801A252F823F0332900080D29000845
:1028C0001F290008612900086729000867290008F6
:1028D0006729000867290008672900086729000898
:1028E0006729000867290008672900086729000888
:1028F00067290008672900086729000815290008CA
:1029000029290008794A934213D02CE03B68DB6800
:102910003B6229E03B68DB6804333B6224E03B68B0
:10292000DB6808333B621FE03B68DB680C333B62CB
:102930001AE03B689B68002B02D104233B6213E042
:102940003B689B68012B05D108233B627B68FA69D1
:102950001A6109E008233B627B68FA695A6103E067
:1029600000233B6200E000BFBB69FF2B01D87B68FE
:1029700001E07B6804337B61BB69FF2B02D87B6A73
:102980009B0002E07B6A083B9B003B617B691A6805
:102990000F213B6901FA03F3DB431A40396A3B69B3
:1029A00001FA03F31A437B691A603B685B6803F022
:1029B0008053002B00F0B1804D4B9B694C4A43F093
:1029C000010393614A4B9B6903F00103BB60BB6841
:1029D000484A7B6A9B08023352F82330FB607B6ACB
:1029E00003F003039B000F2202FA03F3DB43FA68B0
:1029F0001340FB607B68404A934213D07B683F4A98
:102A000093420DD07B683E4A934207D07B683D4A93
:102A1000934201D1032306E0042304E0022302E0F1
:102A2000012300E000237A6A02F00302920093403F
:102A3000FA681343FB602F497B6A9B080233FA68EC
:102A400041F823203B685B6803F48013002B06D019
:102A50002D4B9A682C49BB6913438B6006E02A4BC7
:102A60009A68BB69DB43284913408B603B685B680D
:102A700003F40013002B06D0234BDA682249BB690C
:102A80001343CB6006E0204BDA68BB69DB431E4989
:102A90001340CB603B685B6803F40033002B06D027
:102AA000194B5A681849BB6913434B6006E0164B33
:102AB0005A68BB69DB43144913404B603B685B6851
:102AC00003F48033002B21D00F4B1A680E49BB69E9
:102AD00013430B6021E000BF0000321000003110F2
:102AE0000000221000002110000012100000111040
:102AF000001002400000014000080140000C0140AD
:102B00000010014000140140000401400B4B1A6802
:102B1000BB69DB43094913400B607B6A01337B626D
:102B20003B681A687B6A22FA03F3002B7FF48EAEAF
:102B300000BF00BF2C37BD4680BC70470004014079
:102B400080B483B000AF78600B467B8013467B7007
:102B50007B78002B03D07A887B681A6103E07B883E
:102B60001A047B681A6100BF0C37BD4680BC7047F1
:102B700080B485B000AF78600B467B807B68DB68F3
:102B8000FB607A88FB6813401A04FB68D9437B8892
:102B90000B401A437B681A6100BF1437BD4680BCE6
:102BA0007047000080B400AF034B01221A6000BFE1
:102BB000BD4680BC704700BF20000E4280B586B085
:102BC00000AF78607B68002B01D1012372E27B6843
:102BD0001B6803F00103002B00F08780924B5B68B9
:102BE00003F00C03042B0CD08F4B5B6803F00C0339
:102BF000082B12D18C4B5B6803F48033B3F5803F14
:102C00000BD1894B1B6803F40033002B6CD07B681D
:102C10005B68002B68D101234CE27B685B68B3F5ED
:102C2000803F06D1804B1B687F4A43F4803313609A
:102C30002EE07B685B68002B0CD17B4B1B687A4ACB
:102C400023F480331360784B1B68774A23F4802386
:102C500013601DE07B685B68B3F5A02F0CD1724B4D
:102C60001B68714A43F4802313606F4B1B686E4AE4
:102C700043F4803313600BE06B4B1B686A4A23F408
:102C800080331360684B1B68674A23F4802313600A
:102C90007B685B68002B13D0FEF7F2FB386108E01D
:102CA000FEF7EEFB02463B69D31A642B01D90323DE
:102CB00000E25D4B1B6803F40033002BF0D014E0FE
:102CC000FEF7DEFB386108E0FEF7DAFB02463B69FF
:102CD000D31A642B01D90323ECE1534B1B6803F493
:102CE0000033002BF0D100E000BF7B681B6803F0CD
:102CF0000203002B63D04C4B5B6803F00C03002BEA
:102D00000BD0494B5B6803F00C03082B1CD1464BDE
:102D10005B6803F48033002B16D1434B1B6803F030
:102D20000203002B05D07B681B69012B01D0012316
:102D3000C0E13D4B1B6823F0F8027B685B69DB0058
:102D4000394913430B603AE07B681B69002B20D0A4
:102D5000364B01221A60FEF793FB386108E0FEF75C
:102D60008FFB02463B69D31A022B01D90323A1E151
:102D70002D4B1B6803F00203002BF0D02A4B1B687D
:102D800023F0F8027B685B69DB00274913430B6083
:102D900015E0264B00221A60FEF772FB386108E04E
:102DA000FEF76EFB02463B69D31A022B01D90323BF
:102DB00080E11D4B1B6803F00203002BF0D17B6800
:102DC0001B6803F00803002B3AD07B689B69002B3B
:102DD00019D0174B01221A60FEF752FB386108E048
:102DE000FEF74EFB02463B69D31A022B01D903239F
:102DF00060E10D4B5B6A03F00203002BF0D0012071
:102E000000F0FEFA1CE00A4B00221A60FEF738FBC5
:102E100038610FE0FEF734FB02463B69D31A022B00
:102E200008D9032346E100BF0010024000004242DF
:102E300080044242924B5B6A03F00203002BE9D10B
:102E40007B681B6803F00403002B00F0A6800023BE
:102E5000FB758B4BDB6903F08053002B0DD1884B46
:102E6000DB69874A43F08053D361854BDB6903F00C
:102E70008053BB60BB680123FB75824B1B6803F466
:102E80008073002B18D17F4B1B687E4A43F48073FC
:102E90001360FEF7F5FA386108E0FEF7F1FA024632
:102EA0003B69D31A642B01D9032303E1754B1B68DB
:102EB00003F48073002BF0D07B68DB68012B06D114
:102EC0006F4B1B6A6E4A43F0010313622DE07B686F
:102ED000DB68002B0CD16A4B1B6A694A23F00103A3
:102EE0001362674B1B6A664A23F0040313621CE0FB
:102EF0007B68DB68052B0CD1614B1B6A604A43F091
:102F0000040313625E4B1B6A5D4A43F001031362C4
:102F10000BE05B4B1B6A5A4A23F001031362584BC8
:102F20001B6A574A23F0040313627B68DB68002B9B
:102F300015D0FEF7A5FA38610AE0FEF7A1FA0246BD
:102F40003B69D31A41F28832934201D90323B1E09D
:102F50004B4B1B6A03F00203002BEED014E0FEF78C
:102F60008FFA38610AE0FEF78BFA02463B69D31A02
:102F700041F28832934201D903239BE0404B1B6A04
:102F800003F00203002BEED1FB7D012B05D13C4B5E
:102F9000DB693B4A23F08053D3617B68DB69002BFC
:102FA00000F08780364B5B6803F00C03082B61D080
:102FB0007B68DB69022B46D1334B00221A60FEF797
:102FC0005FFA386108E0FEF75BFA02463B69D31A04
:102FD000022B01D903236DE0294B1B6803F000731A
:102FE000002BF0D17B681B6AB3F5803F08D1244BDE
:102FF0005B6823F400327B689B68214913434B6074
:103000001F4B5B6823F474127B68196A7B685B6AE8
:103010000B431B4913434B601B4B01221A60FEF705
:103020002FFA386108E0FEF72BFA02463B69D31A03
:10303000022B01D903233DE0114B1B6803F0007301
:10304000002BF0D035E0104B00221A60FEF718FA82
:10305000386108E0FEF714FA02463B69D31A022BE6
:1030600001D9032326E0064B1B6803F00073002BF5
:10307000F0D11EE07B68DB69012B07D1012319E049
:103080000010024000700040600042420B4B5B6841
:10309000FB60FB6803F480327B681B6A9A4206D1AE
:1030A000FB6803F470127B685B6A9A4201D00123CB
:1030B00000E0002318461837BD4680BD00100240CE
:1030C00080B584B000AF786039607B68002B01D197
:1030D0000123D0E06A4B1B6803F007033A689A4269
:1030E00010D9674B1B6823F0070265493B681343FF
:1030F0000B60634B1B6803F007033A689A4201D0E8
:103100000123B8E07B681B6803F00203002B20D08A
:103110007B681B6803F00403002B05D0594B5B68E8
:10312000584A43F4E06353607B681B6803F008036C
:10313000002B05D0534B5B68524A43F460535360F5
:10314000504B5B6823F0F0027B689B684D4913434A
:103150004B607B681B6803F00103002B40D07B6849
:103160005B68012B07D1474B1B6803F40033002B2E
:1031700015D101237FE07B685B68022B07D1414BAF
:103180001B6803F00073002B09D1012373E03D4B52
:103190001B6803F00203002B01D101236BE0394BC4
:1031A0005B6823F003027B685B68364913434B601E
:1031B000FEF766F9F8600AE0FEF762F90246FB687E
:1031C000D31A41F28832934201D9032353E02D4BA5
:1031D0005B6803F00C027B685B689B009A42EBD152
:1031E000274B1B6803F007033A689A4210D2244B1E
:1031F0001B6823F0070222493B6813430B60204BF6
:103200001B6803F007033A689A4201D0012332E0B9
:103210007B681B6803F00403002B08D0194B5B6824
:1032200023F4E0627B68DB68164913434B607B68DC
:103230001B6803F00803002B09D0124B5B6823F4D2
:1032400060527B681B69DB000E4913434B6000F042
:1032500021F802460B4B5B681B0903F00F030A4978
:10326000CB5C22FA03F3094A1360094B1B6818462A
:10327000FDF7CCFB002318461037BD4680BD00BFCC
:1032800000200240001002407C8400080000002062
:103290000400002080B487B000AF0023FB6000234F
:1032A000BB6000237B6100237B6000233B611E4BDE
:1032B0005B68FB60FB6803F00C03042B02D0082B57
:1032C00003D027E0194B3B6127E0FB689B0C03F020
:1032D0000F03174AD35C7B60FB6803F48033002B39
:1032E00010D0114B5B685B0C03F00103114AD35CF7
:1032F000BB607B680D4A03FB02F2BB68B2FBF3F3D1
:103300007B6104E07B680C4A02FB03F37B617B6911
:103310003B6102E0054B3B6100BF3B6918461C372F
:10332000BD4680BC704700BF0010024000127A000A
:1033300094840008A484000800093D0080B400AF14
:10334000024B1B681846BD4680BC70470000002039
:1033500080B500AFFFF7F2FF0246054B5B681B0A22
:1033600003F007030349CB5C22FA03F3184680BD40
:10337000001002408C84000880B500AFFFF7DEFF2C
:103380000246054B5B68DB0A03F007030349CB5C8D
:1033900022FA03F3184680BD001002408C84000816
:1033A00080B483B000AF786039607B680F221A6008
:1033B000114B5B6803F003027B685A600E4B5B683D
:1033C00003F0F0027B689A600B4B5B6803F4E062E9
:1033D0007B68DA60084B5B68DB0803F4E0627B68BB
:1033E0001A61064B1B6803F007023B681A6000BFB6
:1033F0000C37BD4680BC70470010024000200240E0
:1034000080B485B000AF78600A4B1B680A4AA2FB03
:1034100003235B0A7A6802FB03F3FB6000BFFB68CF
:103420005A1EFA60002BF9D100BF00BF1437BD4609
:1034300080BC704700000020D34D621080B586B07C
:1034400000AF786000233B610023FB607B681B6852
:1034500003F00103002B7DD00023FB754F4BDB698C
:1034600003F08053002B0DD14C4BDB694B4A43F0EA
:103470008053D361494BDB6903F08053BB60BB6869
:103480000123FB75464B1B6803F48073002B18D196
:10349000434B1B68424A43F480731360FDF7F0FF0F
:1034A000386108E0FDF7ECFF02463B69D31A642B54
:1034B00001D903236DE03A4B1B6803F48073002BA2
:1034C000F0D0364B1B6A03F44073FB60FB68002BA3
:1034D0002ED07B685B6803F44073FA689A4227D069
:1034E0002E4B1B6A23F44073FB602E4B01221A60A3
:1034F0002C4B00221A60294AFB681362FB6803F018
:103500000103002B14D0FDF7BBFF38610AE0FDF783
:10351000B7FF02463B69D31A41F28832934201D980
:10352000032336E01D4B1B6A03F00203002BEED091
:103530001A4B1B6A23F440727B685B68174913437C
:103540000B62FB7D012B05D1144BDB69134A23F081
:103550008053D3617B681B6803F00203002B08D003
:103560000E4B5B6823F440427B689B680B49134316
:103570004B607B681B6803F01003002B08D0074BDF
:103580005B6823F480027B68DB68044913434B606B
:10359000002318461837BD4680BD00BF001002400A
:1035A000007000404004424280B588B000AF7860AF
:1035B00000237B610023FB6100233B610023FB6050
:1035C0000023BB617B68102B0AD07B68102B00F2B4
:1035D0008A807B68012B45D07B68022B75D082E006
:1035E000464B5B68FB60454B1B6803F08073002B08
:1035F0007BD0FB689B0C03F00F03414AD35C3B611B
:10360000FB6803F48033002B15D03C4B5B685B0CEC
:1036100003F001033B4AD35C7B61FB6803F4803316
:10362000002B0DD0384A7B69B2FBF3F23B6902FBF9
:1036300003F3FB6104E03B69344A02FB03F3FB61E3
:103640002E4B5B6803F48003B3F5800F02D1FB6956
:10365000BB614AE0FB695B002D4AA2FB03235B08C8
:10366000BB6142E0254B1B6AFB60FB6803F44073BF
:10367000B3F5807F08D1FB6803F00203002B03D071
:103680004FF40043BB611FE0FB6803F44073B3F5E4
:10369000007F09D1194B5B6A03F00203002B03D0B2
:1036A00049F64043BB610FE0FB6803F44073B3F598
:1036B000407F1CD1114B1B6803F40033002B16D044
:1036C0004FF22443BB6112E011E0FFF755FE0246C2
:1036D0000A4B5B689B0B03F0030301335B00B2FBF7
:1036E000F3F3BB6104E000BF02E000BF00E000BFF5
:1036F000BB6918462037BD4680BD00BF00100240A0
:10370000A8840008B884000800127A0000093D006F
:10371000ABAAAAAA80B584B000AF78600023FB6092
:103720007B68002B01D101237AE07B685B7CDBB2F4
:10373000002B05D17B6800221A747868FDF7F0F839
:103740007B6802225A74786800F0EAFA0346002B7C
:1037500004D07B6804225A74012361E0786800F089
:10376000A3FB0346002B04D07B6804225A74012378
:1037700056E07B681B685A687B681B6822F007026A
:103780005A607B689B68002B05D0274B1B6B264A31
:1037900023F001031363244BDB6A23F460727B681C
:1037A0009B6821491343CB627B685B68B3F1FF3FA1
:1037B00003D07B685B68FB600EE00120FFF7F4FE3E
:1037C000F860FB68002B04D17B6804225A74012343
:1037D00026E0FB68013BFB60FB681A0C7B681B68FA
:1037E00002F00F029A607B681B68FA6892B2DA6096
:1037F000786800F081FB0346002B04D07B6804222C
:103800005A7401230CE07B680022DA737B68012282
:103810005A737B6801229A737B6801225A740023D1
:1038200018461037BD4680BD006C004090B587B08B
:1038300000AFF860B9607A6000237B6100233B61D0
:10384000FB68002B02D0BB68002B01D1012380E074
:10385000FB681B7C012B01D102237AE0FB6801226B
:103860001A74FB6802225A747B68002B13D1BB6860
:103870001B781A464FF4616303FB02F2BB685B7866
:1038800019460B461B015B1A9B001344BA689278D9
:1038900013447B611EE0BB681B78184600F071FB87
:1038A00003461A464FF4616303FB02F4BB685B787E
:1038B000184600F066FB03461A4613461B019B1A86
:1038C0009B001C44BB689B78184600F05AFB0346DB
:1038D00023447B617969F86800F07FFA0346002B86
:1038E00007D0FB6804225A74FB6800221A74012373
:1038F0002FE0FB681B685A68FB681B6822F0050212
:103900005A60F86800F090FA38613B69B3F1FF3F04
:1039100018D03A697B699A4214D23B6903F5A833FF
:1039200003F5C0733B613969F86800F096FA034605
:10393000002B07D0FB6804225A74FB6800221A741B
:10394000012306E0FB6801225A74FB6800221A7406
:10395000002318461C37BD4690BD000080B588B0D6
:1039600000AFF860B9607A600023BB610023FB619F
:1039700000237B6100233B61FB68002B02D0BB6806
:10398000002B01D10123B5E0FB681B685B6803F0E5
:103990000403002B01D00123ACE0F86800F0EDF93E
:1039A000B861BB69554AA2FB0323DB0A3B61BA69D4
:1039B000524BA3FB0213DB0A4FF4616101FB03F3DB
:1039C000D31A4F4AA2FB03235B09DAB2BB685A70D1
:1039D000BB694A4AA2FB0312D20A4FF4616101FBA0
:1039E00002F29A1A464BA3FB021359090B461B011C
:1039F0005B1A9B00D11ACAB2BB689A703B69172B3D
:103A000055D93B693F4AA2FB03231B097B613969F6
:103A10003C4BA3FB01231A0913465B001344DB0054
:103A2000CA1AD2B2BB681A70F86800F0FDF9F861E2
:103A3000FB69B3F1FF3F08D0FA69BB699A4204D928
:103A4000FA69BB69D31AFB6102E04FF0FF33FB61F7
:103A50007B692D4A02FB03F3BA69D31ABB61B969CA
:103A6000F86800F0BAF90346002B01D0012341E0C9
:103A7000FB69B3F1FF3F0CD0FA69BB691344FB61EA
:103A8000F969F86800F0E9F90346002B0AD0012330
:103A900030E0F969F86800F0E0F90346002B01D046
:103AA000012327E07969F86800F088FA03E03B69B0
:103AB000DAB2BB681A707B68002B1AD0BB681B781F
:103AC000184600F041FA03461A46BB681A70BB68F4
:103AD0005B78184600F038FA03461A46BB685A70FD
:103AE000BB689B78184600F02FFA03461A46BB685D
:103AF0009A70002318462037BD4680BDC5B3A291F9
:103B000089888888ABAAAAAA8051010080B588B0AC
:103B100000AFF860B9607A600023FB610023BB61ED
:103B200000237B61FB68002B02D0BB68002B01D116
:103B3000012397E0FB681B7C012B01D1022391E05C
:103B4000FB6801221A74FB6802225A747B68002BFE
:103B50000CD1BB68DA78FB68DA73BB685A78FB680B
:103B60005A73BB689A78FB689A731AE0BB68DB7873
:103B7000184600F006FA03461A46FB68DA73BB687B
:103B80005B78184600F0FDF903461A46FB685A7345
:103B9000BB689B78184600F0F4F903461A46FB68A8
:103BA0009A73FB68DB7B1846FB68597BFB689B7B41
:103BB0001A4600F0DFFA03461A46FB681A73FB68E0
:103BC0001A7BBB681A70F86800F0D7F8F861FB69D7
:103BD000264AA2FB0323DB0A7B617B69182B3AD9B7
:103BE0007B69234AA2FB03231B09224A02FB03F33E
:103BF000FA69D31AFB61F969F86800F0EEF8034638
:103C0000002B07D0FB6804225A74FB6800221A7448
:103C1000012327E0F86800F007F9B861BB69B3F148
:103C2000FF3F18D0BA69FB699A4214D2BB6903F509
:103C3000A83303F5C073BB61B969F86800F00DF9EA
:103C40000346002B07D0FB6804225A74FB6800224D
:103C50001A74012306E0FB6801225A74FB680022F3
:103C60001A74002318462037BD4680BDC5B3A29103
:103C7000ABAAAAAA8051010080B586B000AFF86057
:103C8000B9607A6007F1140300210A461A800A46D7
:103C90009A70FB68002B02D0BB68002B01D1012376
:103CA0003AE007F1140300221946F868FFF756FEC0
:103CB0000346002B01D001232EE0FB681A7BBB6872
:103CC0001A70FB68DA7BBB68DA70FB685A7BBB68EA
:103CD0005A70FB689A7BBB689A707B68002B1AD07D
:103CE000BB68DB78184600F02FF903461A46BB681C
:103CF000DA70BB685B78184600F026F903461A466E
:103D0000BB685A70BB689B78184600F01DF90346E3
:103D10001A46BB689A70002318461837BD4680BD06
:103D200080B584B000AF78600023FB607B68002B17
:103D300001D101231DE07B681B685A687B681B6802
:103D400022F008025A60FDF79BFBF86009E0FDF7DE
:103D500097FB0246FB68D31AB3F57A7F01D9032398
:103D600007E07B681B685B6803F00803002BEED05C
:103D7000002318461037BD4680BD80B487B000AF21
:103D8000786000237B8200233B820023FB81002399
:103D90007B617B681B689B697B827B681B68DB6936
:103DA000FB817B681B689B693B827A8A3B8A9A42CB
:103DB00008D03B8A1A047B681B68DB699BB21343FB
:103DC0007B6104E07B8A1A04FB8913437B617B6976
:103DD00018461C37BD4680BC704780B584B000AF24
:103DE000786039600023FB73786800F05DF8034663
:103DF000002B02D00123FB7311E07B681B683A683B
:103E0000120C9A617B681B683A6892B2DA61786832
:103E100000F072F80346002B01D00123FB73FB7BFB
:103E200018461037BD4680BD80B485B000AF7860BD
:103E30000023FB810023BB817B681B681B6AFB811D
:103E40007B681B685B6ABB81FB891A04BB891343CF
:103E500018461437BD4680BC704780B584B000AFAB
:103E6000786039600023FB73786800F01DF8034622
:103E7000002B02D00123FB7311E07B681B683A68BA
:103E8000120C1A627B681B683A6892B25A627868B0
:103E900000F032F80346002B01D00123FB73FB7BBB
:103EA00018461037BD4680BD80B584B000AF78603D
:103EB0000023FB60FDF7E4FAF86009E0FDF7E0FAA3
:103EC0000246FB68D31AB3F57A7F01D903230FE0CA
:103ED0007B681B685B6803F02003002BEED07B68D7
:103EE0001B685A687B681B6842F010025A60002306
:103EF00018461037BD4680BD80B584B000AF7860ED
:103F00000023FB607B681B685A687B681B6822F093
:103F100010025A60FDF7B4FAF86009E0FDF7B0FA54
:103F20000246FB68D31AB3F57A7F01D9032307E071
:103F30007B681B685B6803F02003002BEED0002336
:103F400018461037BD4680BD80B485B000AF03462B
:103F5000FB710023FB6005E0FB680133FB60FB792C
:103F60000A3BFB71FB79092BF6D8FB68DBB21B011E
:103F7000DAB2FB791343DBB218461437BD4680BC76
:103F8000704780B485B000AF0346FB710023FB602F
:103F9000FB791B09DBB21A4613469B0013445B00F6
:103FA000FB60FB7903F00F03DAB2FB68DBB213446A
:103FB000DBB218461437BD4680BC704780B586B06A
:103FC00000AF7860396000237B6100233B610023F0
:103FD000FB600023BB607B68DB7B7B617B685B7B7A
:103FE0003B617B689B7BFB600023BB606FE03B69B0
:103FF000012B11D03B69032B0ED03B69052B0BD055
:104000003B69072B08D03B69082B05D03B690A2B7D
:1040100002D03B690C2B17D1FB681E2B03D8FB6821
:104020000133FB6050E03B690C2B05D03B69013349
:104030003B610123FB6047E001233B610123FB60FF
:104040007B6901337B613FE03B69042B08D03B690E
:10405000062B05D03B69092B02D03B690B2B0CD1F9
:10406000FB681D2B03D8FB680133FB602CE03B6928
:1040700001333B610123FB6026E03B69022B23D126
:10408000FB681B2B03D8FB680133FB601CE0FB685B
:104090001C2B11D17B699BB2184600F039F80346FE
:1040A000002B03D0FB680133FB600DE03B6901335B
:1040B0003B610123FB6007E0FB681D2B04D13B69DA
:1040C00001333B610123FB60BB680133BB60BA680D
:1040D0003B689A428BD37B69DAB27B68DA733B69BF
:1040E000DAB27B685A73FB68DAB27B689A733B6911
:1040F000DBB2FA68D2B21946786900F03BF80346A1
:104100001A467B681A7300BF1837BD4680BD000091
:1041100080B483B000AF0346FB80FB8803F0030349
:104120009BB2002B01D000231DE0FB88104AA2FBAC
:1041300003125209642101FB02F29B1A9BB2002B6D
:1041400001D001230FE0FB88094AA2FB0312D20928
:104150004FF4C87101FB02F29B1A9BB2002B01D1F4
:10416000012300E0002318460C37BD4680BC704791
:104170001F85EB5180B485B000AF78600B46FB70B3
:104180001346BB700023BB600023FB607B6803F514
:10419000FA63BB60FB78022B2DD8FA7813465B00DC
:1041A0001344DB009B1A2C4AA2FB03235A08BB785A
:1041B0001A44BB681A44BB68013B9B081A44BB689D
:1041C000013B2649A1FB03135B09D21ABB68013BE3
:1041D0002249A1FB0313DB0913441A1D204BA3FB47
:1041E0000213D11A49080B4499080B46DB005B1AED
:1041F000D31AFB6029E0FA7813465B001344DB0016
:104200009B1A154AA2FB03235A08BB781A44BB68C1
:104210001A44BB689B081A44BB681049A1FB0313EE
:104220005B09D21ABB680D49A1FB0313DB091344D8
:104230009A1C0B4BA3FB0213D11A49080B44990893
:104240000B46DB005B1AD31AFB60FB68DBB2184637
:104250001437BD4680BC7047398EE3381F85EB515B
:104260002549922480B582B000AF78607B68002B2E
:1042700001D1012341E07B6893F83D30DBB2002B94
:1042800006D17B68002283F83C20786800F039F87A
:104290007B68022283F83D207B681A687B680433C0
:1042A0001946104600F09CF97B68012283F84620ED
:1042B0007B68012283F83E207B68012283F83F203F
:1042C0007B68012283F840207B68012283F841202B
:1042D0007B68012283F842207B68012283F8432017
:1042E0007B68012283F844207B68012283F8452003
:1042F0007B68012283F83D20002318460837BD461D
:1043000080BD80B483B000AF786000BF0C37BD467D
:1043100080BC704780B485B000AF78607B6893F84C
:104320003D30DBB2012B01D001233AE07B68022251
:1043300083F83D207B681B68DA687B681B6842F065
:104340000102DA607B681B68184A93420ED07B68D2
:104350001B68B3F1804F09D07B681B68144A9342F5
:1043600004D07B681B68134A934211D17B681B6899
:104370009B6803F00703FB60FB68062B10D07B688B
:104380001B681A687B681B6842F001021A6007E02C
:104390007B681B681A687B681B6842F001021A6020
:1043A000002318461437BD4680BC7047002C0140DE
:1043B000000400400008004080B584B000AF786081
:1043C0007B681B68DB68FB607B681B681B69BB60E4
:1043D000BB6803F00203002B20D0FB6803F002034C
:1043E000002B1BD07B681B686FF002021A617B6890
:1043F00001221A777B681B689B6903F00303002B7B
:1044000003D0786800F0D1F805E0786800F0C4F8CF
:10441000786800F0D3F87B6800221A77BB6803F055
:104420000403002B20D0FB6803F00403002B1BD0F7
:104430007B681B686FF004021A617B6802221A779E
:104440007B681B689B6903F44073002B03D078687A
:1044500000F0ABF805E0786800F09EF8786800F0AE
:10446000ADF87B6800221A77BB6803F00803002BC5
:1044700020D0FB6803F00803002B1BD07B681B686F
:104480006FF008021A617B6804221A777B681B6848
:10449000DB6903F00303002B03D0786800F085F894
:1044A00005E0786800F078F8786800F087F87B68B5
:1044B00000221A77BB6803F01003002B20D0FB68A2
:1044C00003F01003002B1BD07B681B686FF01002F9
:1044D0001A617B6808221A777B681B68DB6903F422
:1044E0004073002B03D0786800F05FF805E078682F
:1044F00000F052F8786800F061F87B6800221A77C3
:10450000BB6803F00103002B0CD0FB6803F0010330
:10451000002B07D07B681B686FF001021A61786876
:10452000FCF758F9BB6803F08003002B0CD0FB6844
:1045300003F08003002B07D07B681B686FF08002BC
:104540001A61786800F0C3F8BB6803F04003002BE1
:104550000CD0FB6803F04003002B07D07B681B687E
:104560006FF040021A61786800F031F8BB6803F020
:104570002003002B0CD0FB6803F02003002B07D096
:104580007B681B686FF020021A61786800F096F86B
:1045900000BF1037BD4680BD80B483B000AF7860E7
:1045A00000BF0C37BD4680BC704780B483B000AFFD
:1045B000786000BF0C37BD4680BC704780B483B0C4
:1045C00000AF786000BF0C37BD4680BC704780B438
:1045D00083B000AF786000BF0C37BD4680BC704729
:1045E00080B485B000AF786039607B681B68FB6081
:1045F0007B682F4A93420BD07B68B3F1804F07D082
:104600007B682C4A934203D07B682B4A934208D1A3
:10461000FB6823F07003FB603B685B68FA68134338
:10462000FB607B68224A93420BD07B68B3F1804FDA
:1046300007D07B681F4A934203D07B681E4A93428F
:1046400008D1FB6823F44073FB603B68DB68FA68C1
:104650001343FB60FB6823F080023B685B691343F4
:10466000FB607B68FA681A603B689A687B68DA626C
:104670003B681A687B689A627B680D4A934203D153
:104680003B681A697B681A637B6801225A617B6800
:104690001B6903F00103002B05D07B681B6923F025
:1046A00001027B681A6100BF1437BD4680BC7047A9
:1046B000002C0140000400400008004080B483B09A
:1046C00000AF786000BF0C37BD4680BC704780B437
:1046D00083B000AF786000BF0C37BD4680BC704728
:1046E00080B582B000AF78607B68002B01D10123D8
:1046F00042E07B6893F84130DBB2002B06D17B6847
:10470000002283F840207868FCF72EF97B68242289
:1047100083F841207B681B68DA687B681B6822F499
:104720000052DA60786800F009FD7B681B681A693E
:104730007B681B6822F490421A617B681B685A6987
:104740007B681B6822F02A025A617B681B68DA6862
:104750007B681B6842F40052DA607B6800225A646E
:104760007B68202283F841207B68202283F8422046
:104770007B6800225A63002318460837BD4680BD77
:1047800080B485B000AFF860B9601346FB80FB6869
:1047900093F84130DBB2202B21D1BB68002B02D033
:1047A000FB88002B01D101231AE0FB68BA681A626A
:1047B000FB68FA889A84FB68FA88DA84FB6800222E
:1047C0005A64FB68212283F84120FB681B68DA6881
:1047D000FB681B6842F08002DA60002300E00223DD
:1047E00018461437BD4680BC704780B584B000AF12
:1047F000F860B9601346FB80FB6893F84230DBB287
:10480000202B12D1BB68002B02D0FB88002B01D1DA
:1048100001230BE0FB6800221A63FB881A46B96883
:10482000F86800F0B6FA034600E002231846103795
:10483000BD4680BD80B5BAB000AF78607B681B68AC
:104840001B68C7F8E4307B681B68DB68C7F8E0309A
:104850007B681B685B69C7F8DC300023C7F8D83079
:104860000023C7F8D430D7F8E43003F00F03C7F8BB
:10487000D830D7F8D830002B0FD1D7F8E43003F078
:104880002003002B09D0D7F8E03003F02003002BE1
:1048900003D0786800F093FB5BE2D7F8D830002BA8
:1048A00000F0DE80D7F8DC3003F00103002B06D1E6
:1048B000D7F8E03003F49073002B00F0D180D7F8E4
:1048C000E43003F00103002B0BD0D7F8E03003F401
:1048D0008073002B05D07B685B6C43F001027B6822
:1048E0005A64D7F8E43003F00403002B0BD0D7F858
:1048F000DC3003F00103002B05D07B685B6C43F0D8
:1049000002027B685A64D7F8E43003F00203002BFC
:104910000BD0D7F8DC3003F00103002B05D07B6807
:104920005B6C43F004027B685A64D7F8E43003F010
:104930000803002B11D0D7F8E03003F02003002B40
:1049400005D1D7F8DC3003F00103002B05D07B68DC
:104950005B6C43F008027B685A647B685B6C002BDD
:1049600000F0F281D7F8E43003F02003002B08D0E8
:10497000D7F8E03003F02003002B02D0786800F075
:104980001EFB7B681B685B6903F04003002B14BFB0
:1049900001230023DBB2C7F8D4307B685B6C03F0E3
:1049A0000803002B03D1D7F8D430002B4FD0786800
:1049B00000F028FA7B681B685B6903F04003002B5A
:1049C00041D07B681B681433C7F89C30D7F89C3003
:1049D00053E8003FC7F89830D7F8983023F04003E9
:1049E000C7F8D0307B681B681433D7F8D020C7F8DD
:1049F000A820C7F8A430D7F8A410D7F8A82041E819
:104A00000023C7F8A030D7F8A030002BD9D17B689D
:104A1000DB6B002B13D07B68DB6B7E4A5A637B68B1
:104A2000DB6B1846FDF790FC0346002B16D07B6825
:104A3000DB6B5B6B7A68D26B104698470EE0786848
:104A400000F093F90AE0786800F08FF906E07868E2
:104A500000F08BF97B6800225A6475E100BF73E1B6
:104A60007B681B6B012B40F04F81D7F8E43003F0DB
:104A70001003002B00F04881D7F8E03003F010035A
:104A8000002B00F041810023BB607B681B681B6822
:104A9000BB607B681B685B68BB60BB687B681B682E
:104AA0005B6903F04003002B00F0B6807B68DB6B92
:104AB0001B685B68A7F8BE30B7F8BE30002B00F06B
:104AC00045817B689B8DB7F8BE209A4280F03E817D
:104AD0007B68B7F8BE20DA857B68DB6B9B69202B8F
:104AE00000F088807B681B680C33C7F88830D7F8E3
:104AF000883053E8003FC7F88430D7F8843023F477
:104B00008073C7F8B8307B681B680C33D7F8B820BF
:104B1000C7F89420C7F89030D7F89010D7F89420B1
:104B200041E80023C7F88C30D7F88C30002BD9D15E
:104B30007B681B6814337B677B6F53E8003F3B67E0
:104B40003B6F23F00103C7F8B4307B681B68143354
:104B5000D7F8B420C7F88020FB67F96FD7F880201A
:104B600041E80023BB67BB6F002BE1D17B681B686A
:104B700014333B663B6E53E8003FFB65FB6D23F04F
:104B80004003C7F8B0307B681B681433D7F8B020F7
:104B9000FA66BB66B96EFA6E41E800237B667B6EEF
:104BA000002BE3D17B68202283F842207B6800221F
:104BB0001A637B681B680C33FB64FB6C53E8003F93
:104BC000BB64BB6C23F01003C7F8AC307B681B6878
:104BD0000C33D7F8AC20BA657B65796DBA6D41E8C6
:104BE00000233B653B6D002BE3D17B68DB6B1846F4
:104BF000FDF76FFB7B6802225A637B689A8D7B68A6
:104C0000DB8D9BB2D31A9BB21946786800F0B6F8D8
:104C10009CE000BFC94E00087B689A8D7B68DB8DE5
:104C20009BB2D31AA7F8CE307B68DB8D9BB2002BEA
:104C300000F08E80B7F8CE30002B00F089807B68C2
:104C40001B680C33BB63BB6B53E8003F7B637B6B20
:104C500023F49073C7F8C8307B681B680C33D7F80F
:104C6000C8207A643B64396C7A6C41E80023FB63AA
:104C7000FB6B002BE3D17B681B6814337B627B6A80
:104C800053E8003F3B623B6A23F00103C7F8C4309E
:104C90007B681B681433D7F8C4203A63FB62F96A57
:104CA0003A6B41E80023BB62BB6A002BE3D17B680F
:104CB000202283F842207B6800221A637B681B68ED
:104CC0000C333B613B6953E8003FFB60FB6823F01A
:104CD0001003C7F8C0307B681B680C33D7F8C020BE
:104CE000FA61BB61B969FA6941E800237B617B69BC
:104CF000002BE3D17B6802225A63B7F8CE30194605
:104D0000786800F03BF823E0D7F8E43003F0800344
:104D1000002B09D0D7F8E03003F08003002B03D03C
:104D2000786800F0E5F814E0D7F8E43003F04003C9
:104D3000002B0ED0D7F8E03003F04003002B08D052
:104D4000786800F024F904E000BF02E000BF00E052
:104D500000BFE837BD4680BD80B483B000AF786047
:104D600000BF0C37BD4680BC704780B483B000AF35
:104D7000786000BF0C37BD4680BC704780B483B0FC
:104D800000AF78600B467B8000BF0C37BD4680BC0F
:104D9000704780B485B000AFF860B9601346FB80FF
:104DA000FB68BA689A62FB68FA889A85FB68FA8899
:104DB000DA85FB6800225A64FB68222283F84220CD
:104DC000FB681B69002B07D0FB681B68DA68FB686F
:104DD0001B6842F48072DA60FB681B685A69FB68E2
:104DE0001B6842F001025A61FB681B68DA68FB68C5
:104DF0001B6842F02002DA60002318461437BD46D3
:104E000080BC704780B495B000AF78607B681B6849
:104E10000C337B637B6B53E8003F3B633B6B23F4BA
:104E20009073FB647B681B680C33FA6C3A64FB6319
:104E3000F96B3A6C41E80023BB63BB6B002BE5D1F7
:104E40007B681B6814333B623B6A53E8003FFB619D
:104E5000FB6923F00103BB647B681B681433BA6CE5
:104E6000FA62BB62B96AFA6A41E800237B627B6A34
:104E7000002BE5D17B681B6B012B19D17B681B686C
:104E80000C33FB60FB6853E8003FBB60BB6823F05A
:104E900010037B647B681B680C337A6CBA617B619E
:104EA0007969BA6941E800233B613B69002BE5D190
:104EB0007B68202283F842207B6800221A6300BFAF
:104EC0005437BD4680BC704780B584B000AF786071
:104ED0007B685B6AFB60FB680022DA85FB68002266
:104EE000DA84F868FFF741FF00BF1037BD4680BD88
:104EF00080B485B000AF78607B6893F84130DBB256
:104F0000212B3ED17B689B68B3F5805F14D17B6811
:104F10001B69002B10D17B681B6AFB60FB681B8838
:104F20001A467B681B68C2F308025A607B681B6ADA
:104F30009A1C7B681A6208E07B681B6A591C7A68B5
:104F400011621A787B681B685A607B68DB8C9BB2A5
:104F5000013B9BB27A681946D184002B0FD17B6844
:104F60001B68DA687B681B6822F08002DA607B6865
:104F70001B68DA687B681B6842F04002DA60002335
:104F800000E0022318461437BD4680BC704780B548
:104F900082B000AF78607B681B68DA687B681B684A
:104FA00022F04002DA607B68202283F84120786892
:104FB000FFF7D2FE002318460837BD4680BD80B5F6
:104FC0008CB000AF78607B6893F84230DBB2222B64
:104FD00040F0AE807B689B68B3F5805F17D17B683B
:104FE0001B69002B13D10023FB627B689B6ABB62A9
:104FF0007B681B685B689BB2C3F308039AB2BB6A09
:105000001A807B689B6A9A1C7B689A6226E07B68A0
:105010009B6AFB620023BB627B689B68B3F5805F81
:1050200007D07B689B68002B0AD17B681B69002B2B
:1050300006D17B681B685B68DAB2FB6A1A7008E00D
:105040007B681B685B68DBB203F07F03DAB2FB6A44
:105050001A707B689B6A5A1C7B689A627B68DB8D3E
:105060009BB2013B9BB27A681946D185002B5DD17A
:105070007B681B68DA687B681B6822F02002DA60B4
:105080007B681B68DA687B681B6822F48072DA60D0
:105090007B681B685A697B681B6822F001025A61B1
:1050A0007B68202283F842207B6800225A637B6859
:1050B0001B6B012B35D17B6800221A637B681B6850
:1050C0000C337B617B6953E8003F3B613B6923F014
:1050D00010037B627B681B680C337A6A3A62FB615F
:1050E000F9693A6A41E80023BB61BB69002BE5D14D
:1050F0007B681B681B6803F01003102B0AD1002388
:10510000FB607B681B681B68FB607B681B685B68D7
:10511000FB60FB687B689B8D19467868FFF72EFE65
:1051200002E0786800F0ACFC002302E0002300E01D
:10513000022318463037BD4680BD000080B584B0DC
:1051400000AF78607B681B681B6923F440517B6863
:10515000DA687B681B680A431A617B689A687B6817
:105160001B691A437B685B691343BB607B681B68E0
:10517000DB6823F4B05323F00C037A681268B96833
:105180000B43D3607B681B685B6923F440717B68C9
:105190009A697B681B680A435A617B681B682C4AC2
:1051A000934203D1FEF7E8F8F86002E0FEF7D0F88A
:1051B000F860FA6813469B0013449A001A447B680F
:1051C0005B689B00B2FBF3F3224AA2FB03235B095B
:1051D0001901FA6813469B0013449A001A447B682D
:1051E0005B689B00B2FBF3F21A4BA3FB02035B0963
:1051F000642000FB03F3D31A1B013233154AA2FBD0
:1052000003235B0903F0F0031944FA6813469B007B
:1052100013449A001A447B685B689B00B2FBF3F26C
:105220000C4BA3FB02035B09642000FB03F3D31ABE
:105230001B013233074AA2FB03235B0903F00F0271
:105240007B681B680A449A6000BF1037BD4680BD6A
:10525000003801401F85EB5180B58CB000AF7860FD
:10526000164B1B6807F10C014FF0FF32184600F097
:1052700087FF0346012BF3D1FB6840F201329342D2
:1052800003D8B3F5407F0ED216E0B3F5FC6F13D10F
:105290000B4B186807F10C0303F11C0100230022DB
:1052A00000F0B6FD09E0074B186807F10C01002378
:1052B000002200F0ADFD00E000BFD1E72801002092
:1052C0003C0100203001002080B582B002AF0022F6
:1052D0002421142000F02AFD03460A4A136002210B
:1052E0000948FCF7CFFC002301930323009300231C
:1052F0004FF480720549064801F0B6F900BFBD467B
:1053000080BD00BF28010020340000202884000850
:105310005952000880B58CB000AF78600023BB60A4
:1053200007F10C031C3307F10C0200217868FCF72D
:1053300088FB0C4B186807F1080207F10C010023E9
:1053400000F068FEBB68002B07D0074B4FF080527F
:105350001A60BFF34F8FBFF36F8F00BF3037BD466A
:1053600080BD00BF2801002004ED00E080B58EB0B4
:1053700000AF7860104B1B6807F128014FF0FF3237
:10538000184600F0FDFE0346012BF3D1BB6A3B61DA
:105390000023BB610023FB6197F82C303B6207F1CF
:1053A0000C0007F128035A1D07F1100103460348BA
:1053B000FCF778FADEE700BF2C0100203400002063
:1053C00080B582B002AF00221021142000F0AEFCA4
:1053D0000346074A1360002301930323009300232D
:1053E00080220449044801F03FF900BFBD4680BD5A
:1053F0002C010020348400086D53000880B592B061
:1054000000AF78604FF48063FB6002233B74474B2E
:105410001B6807F11C014FF0FF32184600F0B0FE88
:105420000346012BF3D1FB69B3F5407F04D040F272
:10543000013293422BD077E097F838301A4697F82C
:1054400039301B0213431846FAF73CFF0346384A2B
:105450001360374B1B6837491846FAF7F3FF0346CA
:10546000002B04D04FF26120FBF72AFC5CE0304BAC
:105470001B684FF000011846FAF7BCFF0346002BEB
:1054800000D151E04FF26020FBF71AFC4CE097F896
:1054900038301AB297F839301B021BB213431BB2D3
:1054A000A7F84230B7F842301846FAF707FF03462C
:1054B000214A1360204B1B6820491846FAF7A4FFC5
:1054C0000346002B20D000237B740023BB740223EF
:1054D0007B6408E007F111027B6C134400221A7010
:1054E0007B6C01337B647B6C072BF3DD144B1868FA
:1054F00007F10C0100234FF0FF3200F089FC4FF25E
:105500005120FBF7DDFB0EE00B4B1B684FF0000159
:105510001846FAF76FFF0346002B00D103E04FF265
:105520005020FBF7CDFB00BF71E700BF300100202A
:105530003401002000000C42380100200000A0408F
:105540002C01002080B582B002AF002224210A2065
:1055500000F0ECFB0346084A136000230193042388
:10556000009300234FF480720449054801F07CF851
:1055700000BFBD4680BD00BF300100203C84000854
:10558000FD53000880B586B000AF78600023FB6053
:1055900000233B610823FB75474B1B6807F10C0197
:1055A0004FF0FF32184600F0EBFD0346012BF3D11C
:1055B0003B7BBB757B7B7B75BB7D103B242B74D801
:1055C00001A252F823F000BF5D560008AB56000858
:1055D000AB560008AB56000891560008AB560008C1
:1055E000AB560008AB560008AB56000887560008BB
:1055F000AB560008AB560008AB560008AB56000887
:10560000AB560008AB560008AB560008AB56000876
:1056100077560008AB560008AB560008AB5600089A
:10562000AB56000867560008AB560008AB5600089A
:10563000AB560008AB560008AB560008AB56000846
:10564000AB560008AB560008AB560008AB56000836
:10565000AB560008AB5600089B5600087B7D1846E9
:10566000FBF7BCFC27E0FA7D07F10C017B7D1846B7
:10567000FBF7EAFC1FE007F10C027B7D11461846A0
:10568000FBF71AFD17E07B7D1846FBF77DFD12E066
:105690007B7D1846FBF784FE0DE007F10C027B7D55
:1056A00011461846FBF79EFE05E0BB7D112118460A
:1056B000FBF764FC00BF6FE73C01002080B582B0BF
:1056C00002AF002208210A2000F030FB0346084AFE
:1056D0001360002301930223009300234FF4807290
:1056E0000449054800F0C0FF00BFBD4680BD00BFB3
:1056F0003C010020448400088555000880B400AFB8
:10570000BFF34F8F00BF064BDB6803F4E062044930
:10571000044B1343CB60BFF34F8F00BF00BFFDE7C7
:1057200000ED00E00400FA0580B58CB000AF7860B1
:105730000B4B1B6807F10C014FF0FF32184600F0CD
:105740001FFD0346012BF3D100F02CF8054B01227D
:10575000DA6000F04FF8322001F0F2F8FFF7CEFFE8
:10576000500100204001002080B582B002AF00222D
:105770002421012000F0DAFA0346074A13600023CF
:10578000019300230093002380220449044800F081
:105790006BFF00BFBD4680BD500100205084000853
:1057A0002957000880B582B000AF104B7B607B6842
:1057B0001B68B3F1A53F0FD00D4B4FF0A5321A6017
:1057C0000B4B01225A600A4B00229A60084B0022C0
:1057D000DA6000F00FF804E010227968044802F063
:1057E00009FE00BF0837BD4680BD00BF00F00008BD
:1057F000400100202DE9B04F88B000AFFCF78CFECF
:105800000023FB60224B7B610123BB6107F108028F
:1058100007F10C0311461846FCF766FF1C4BFB61B1
:105820001C4B1B6800223B607A60D7E90023F969B2
:105830000220FCF701FEFB69191D164B5B68002274
:105840009A46934652465B460220FCF7F5FDFB69FB
:1058500003F108010F4B9B6800229846914642468F
:105860004B460220FCF7E8FDFB6903F10C01094BF4
:10587000DB6800221C46154622462B460220FCF718
:10588000DBFDFCF76FFE00BF2037BD46BDE8B08FE3
:1058900000F000084001002080B500AFFFF714FDC4
:1058A000FFF78EFDFFF74EFEFFF708FFFFF75CFFE7
:1058B00000F0BEF800BF80BD80B500AF01F076F803
:1058C00000BF80BD80B58AB000AF78600023FB6167
:1058D000504B1B6807F11C014FF0FF32184600F0D7
:1058E0004FFC0346012BF3D13B7F1AB27B7F1B0297
:1058F0001BB213431BB2FB84BB7F1AB2FB7F1B029C
:105900001BB213431BB2BB84FB8C40F20142934297
:1059100064D040F20142934279DCB3F5407F04D079
:1059200040F20132934225D071E0BB8C1846FAF761
:10593000C5FC0346384A1360374B1B683749184685
:10594000FAF780FD0346002B04D04FF26120FBF7ED
:10595000B7F95DE0304B1B684FF000011846FAF7CD
:1059600049FD0346002B00D152E04FF26020FBF7C7
:10597000A7F94DE0BB8C1846FAF7A0FC0346284A6D
:105980001360274B1B6827491846FAF73DFD03466D
:10599000002B13D000233B7204237B720023BB72C5
:1059A0000023FB7207F10803042219461E48FEF784
:1059B000E7FE4FF25120FBF783F929E0184B1B68F3
:1059C0004FF000011846FAF715FD0346002B00D1F1
:1059D0001EE04FF25020FBF773F919E0BB8C7B847B
:1059E00040F20143FB6002233B747B8CDBB27B748F
:1059F0007B8C1B0A9BB2DBB2BB740C4B186807F1A3
:105A00000C0100234FF0FF3200F002FA00E000BF6B
:105A10005EE700BF540100203401002000000C426A
:105A2000380100200000A040700000202C01002060
:105A300080B582B002AF00220421142000F076F974
:105A400003460A4A1360042209490A48FEF7CDFEBC
:105A50000023019303230093002380220649074873
:105A600000F002FE00BFBD4680BD00BF5401002013
:105A7000580100207000002058840008C558000814
:105A800080B584B000AF78607B681B68124A93428F
:105A90001DD10023FB60114B186807F10C02002395
:105AA0000F4900F0B7FA04220D490E48FEF79DFE9B
:105AB00020210D48FDF75CF8FB68002B07D00B4B4D
:105AC0004FF080521A60BFF34F8FBFF36F8F00BF4C
:105AD0001037BD4680BD00BF004400405401002087
