:020000040800F2
:1000000000500020210D0008C50C0008C70C000896
:10001000C90C0008CB0C0008CD0C00080000000043
:10002000000000000000000000000000A14E0008D9
:10003000CF0C000800000000314F0008754F000889
:10004000690D0008690D0008690D0008690D0008B8
:10005000690D0008690D0008690D0008690D0008A8
:10006000690D0008690D0008690D0008690D000898
:10007000690D0008690D0008690D0008690D000888
:10008000690D0008690D0008D10C0008DD0C00089E
:10009000E90C0008690D0008690D0008690D0008E9
:1000A000690D0008ED0C0008690D0008690D0008D5
:1000B000F90C0008050D0008690D0008690D00081D
:1000C000690D0008690D0008690D0008690D000838
:1000D000690D0008110D0008690D0008690D000880
:1000E000690D0008690D0008690D00080000000096
:1000F0000000000000000000000000000000000000
:0C01000000000000000000005FF808F1A3
:1001100010B5054C237833B9044B13B10448AFF341
:1001200000800123237010BD440000200000000067
:100130002453000808B5034B1BB103490348AFF330
:10014000008008BD00000000480000202453000883
:1001500080F0004002E000BF81F0004142001FBF7C
:100160005FEA410392EA030F7FEA226C7FEA236C85
:100170006AD04FEA1262D2EB1363C1BFD21841407A
:1001800048404140B8BF5B42192B88BF704710F010
:10019000004F40F4000020F07F4018BF404211F0B3
:1001A000004F41F4000121F07F4118BF494292EA1B
:1001B000030F3FD0A2F1010241FA03FC10EB0C0047
:1001C000C3F1200301FA03F100F0004302D54942D4
:1001D00060EB4000B0F5000F13D3B0F1807F06D381
:1001E00040084FEA310102F10102FE2A51D2B1F179
:1001F000004F40EBC25008BF20F0010040EA03006E
:100200007047490040EB0000013A28BFB0F5000FED
:10021000EDD2B0FA80FCACF1080CB2EB0C0200FAA3
:100220000CF0AABF00EBC25052421843BCBFD040F2
:100230001843704792F0000F81F4000106BF80F46C
:1002400000000132013BB5E74FEA41037FEA226C2F
:1002500018BF7FEA236C21D092EA030F04D092F0FA
:10026000000F08BF0846704790EA010F1CBF00202E
:10027000704712F07F4F04D1400028BF40F000408B
:10028000704712F100723CBF00F50000704700F0AB
:10029000004343F0FE4040F4000070477FEA2262D2
:1002A00016BF08467FEA23630146420206BF5FEAA3
:1002B000412390EA010F40F4800070474FF00003A3
:1002C00004E000BF10F0004348BF40425FEA000C6A
:1002D00008BF704743F0964301464FF000001CE012
:1002E00050EA010208BF70474FF000030AE000BF68
:1002F00050EA010208BF704711F0004302D54042A6
:1003000061EB41015FEA010C02BF84460146002017
:1003100043F0B64308BFA3F18053A3F50003BCFA32
:100320008CF2083AA3EBC25310DB01FA02FC6344DF
:1003300000FA02FCC2F12002BCF1004F20FA02F2E6
:1003400043EB020008BF20F00100704702F12002D9
:1003500001FA02FCC2F1200250EA4C0021FA02F23A
:1003600043EB020008BF20EADC7070474FF0FF0C3F
:100370001CEAD0521EBF1CEAD15392EA0C0F93EA3A
:100380000C0F6FD01A4480EA010C400218BF5FEADC
:1003900041211ED04FF0006343EA501043EA51114F
:1003A000A0FB01310CF00040B1F5000F3EBF490049
:1003B00041EAD3715B0040EA010062F17F02FD2A4D
:1003C0001DD8B3F1004F40EBC25008BF20F0010030
:1003D000704790F0000F0CF0004C08BF49024CEA47
:1003E000502040EA51207F3AC2BFD2F1FF0340EAD9
:1003F000C250704740F400004FF00003013A5DDC4A
:1004000012F1190FDCBF00F000407047C2F100028A
:10041000410021FA02F1C2F1200200FA02FC5FEA77
:10042000310040F1000053EA4C0308BF20EADC70C1
:10043000704792F0000F00F0004C02BF400010F433
:10044000000F013AF9D040EA0C0093F0000F01F0E0
:10045000004C02BF490011F4000F013BF9D041EA02
:100460000C018FE70CEAD15392EA0C0F18BF93EA04
:100470000C0F0AD030F0004C18BF31F0004CD8D12E
:1004800080EA010000F00040704790F0000F17BFB5
:1004900090F0004F084691F0000F91F0004F14D0FB
:1004A00092EA0C0F01D142020FD193EA0C0F03D153
:1004B0004B0218BF084608D180EA010000F0004056
:1004C00040F0FE4040F40000704740F0FE4040F431
:1004D000400070474FF0FF0C1CEAD0521EBF1CEAD0
:1004E000D15392EA0C0F93EA0C0F69D0A2EB0302EE
:1004F00080EA010C49024FEA402037D04FF0805388
:1005000043EA111143EA10130CF000408B4238BF4C
:100510005B0042F17D024FF4000C8B4224BF5B1A5A
:1005200040EA0C00B3EB510F24BFA3EB510340EAA8
:100530005C00B3EB910F24BFA3EB910340EA9C0056
:10054000B3EBD10F24BFA3EBD10340EADC001B01C6
:1005500018BF5FEA1C1CE0D1FD2A3FF650AF8B426A
:1005600040EBC25008BF20F0010070470CF0004C77
:100570004CEA50207F32C2BFD2F1FF0340EAC250A2
:10058000704740F400004FF00003013A37E792F063
:10059000000F00F0004C02BF400010F4000F013AC1
:1005A000F9D040EA0C0093F0000F01F0004C02BFBC
:1005B000490011F4000F013BF9D041EA0C0195E725
:1005C0000CEAD15392EA0C0F08D142027FF47DAFBE
:1005D00093EA0C0F7FF470AF084676E793EA0C0FAE
:1005E00004D14B023FF44CAF08466EE730F0004CAC
:1005F00018BF31F0004CCAD130F000427FF45CAF3C
:1006000031F000437FF43CAF5FE700BF42000ED201
:10061000B2F1FE4F0BD34FF09E03B3EB126209D43D
:100620004FEA002343F0004323FA02F070474FF0F3
:100630000000704712F1610F01D1420202D14FF068
:10064000FF3070474FF00000704700BF30B595B0E5
:10065000202200210BA804F02BFE142210250021DB
:100660000DEB020004F024FE2A46002101A804F04C
:100670001FFE01230224CDE90E354FF460130AA8B2
:100680000A941194139301F061FA08B172B6FEE76F
:100690000F23CDE905344FF480630790CDE908308E
:1006A000214605A801F014FC08B172B6FEE74FF42C
:1006B000404301A80194039301F0E4FC08B172B631
:1006C000FEE715B030BD000000B58BB01822002148
:1006D00001A804F0EDFD01234FF4004207930092BE
:1006E00008934FF6FF720E2369460448029209935D
:1006F00000F016FE0BB05DF804FB00BF38010020CF
:1007000080B58CB000F032FBFFF7A0FF1022002173
:1007100005A804F0CDFD794B4FF470419A697848F3
:1007200042F004029A619A69002502F004020192E3
:10073000019A9A69012642F008029A619B69002297
:1007400003F008030293029B01F0FAF900224FF430
:1007500080716C4801F0F4F902244FF4704368484A
:1007600005A9CDE90536CDE9075401F011F94FF49B
:100770008073644805A9CDE90536CDE9075401F039
:1007800007F9614C614B204623604FF46023CDE9AB
:1007900005550795A56025732575E361656026619C
:1007A00000F0C4FC08B172B6FEE70723079005A964
:1007B0002046CDE9053600F073FB034608B172B65A
:1007C000FEE704275248534A4FF44024C0E900276B
:1007D0004FF48012C0E90233C0E90442836183838D
:1007E00000F023FD054608B172B6FEE70146CDE9EB
:1007F00003001C2205A804F05BFD3F234FF080415D
:10080000454CC4E9001340F2E7332046C4E9033500
:10081000A560A56101F06AFE08B172B6FEE7CDE9F8
:10082000030003A9204602F0C9F8024608B172B6D7
:10083000FEE760230790CDE90530099005A9204621
:1008400001F0D8FE08B172B6FEE73A46204605A987
:1008500001F0D0FE054608B172B6FEE7204600F072
:1008600061F91022294605A82C4CCDE9035504F066
:100870001FFD2B4B2046C4E900354FF6FF73A560E2
:10088000C4E90335A56101F05DFE08B172B6FEE76B
:10089000CDE9030003A9204602F090F8024608B112
:1008A00072B6FEE7CDE90506CDE9070005A92046A9
:1008B00001F022FF08B172B6FEE74FF41653194853
:1008C000194AC0E9002300230C22C0E90233C0E921
:1008D00005230361C36102F009F908B172B6FEE7AE
:1008E000FFF7F2FE0A4800F08BFD0221084800F0F5
:1008F00077FE02F055FE02F062FEFEE700100240B5
:10090000000C01400008014060010020002401406B
:100910003801002000640040F0000020A800002002
:100920000004004060000020003801400268034BD2
:100930009A4201D100F02CBA704700BF002C014050
:100940000E4B82B09A6942F001029A619A6902F0F4
:1009500001020092009ADA6942F08052DA61DB69A2
:10096000074A03F080530193019B536823F0E0632F
:1009700043F00073536002B0704700BF00100240A4
:100980000000014010B5044686B01022002102A8E4
:1009900004F08EFC2268144B9A4223D103F56C4379
:1009A0009A69124842F400729A619A6902A902F4A3
:1009B00000720092009A9A6942F004029A619B695F
:1009C000802203F004030193019B0323CDE902235A
:1009D00000F0DEFF12200022072100F035FF122078
:1009E00000F062FF06B010BD002401400008014085
:1009F00010B5044686B01022002102A804F058FC6D
:100A000022681D4B9A4235D103F5D633DA691B486B
:100A100042F00072DA61DA6902A902F00072009213
:100A2000009A9A6942F004029A619B6903F00403F8
:100A30000193019B4FF40063029300F0A9FF4FF470
:100A400080520223CDE9022303230C4802A9059317
:100A500000F09EFF00220721132000F0F5FE132076
:100A600000F022FF14200022072100F0EDFE1420E8
:100A700000F01AFF06B010BD0064004000080140FD
:100A8000036807B5B3F1804F15D103F50433DA6974
:100A9000072142F00102DA61DB69002203F0010361
:100AA00001931C20019B00F0CFFE1C2003B05DF8D9
:100AB00004EB00F0F9BE03B05DF804FB10B504468A
:100AC00086B01022002102A804F0F2FB2268134B2A
:100AD0009A4221D103F50333DA69114842F0020248
:100AE000DA61DA6902A902F002020092009A9A69B8
:100AF00042F004029A619B6903F004030193019B95
:100B00004023029300F044FF1D200022072100F043
:100B10009BFE1D2000F0C8FE06B010BD0004004082
:100B20000008014010B5044686B01022002102A83A
:100B300004F0BEFB2368B3F1804F2FD103F50433DB
:100B40009A69022442F004029A619A69144802F0F8
:100B500004020092009A9A6902A942F008029A617E
:100B60009B69059403F008030193019B4FF4004334
:100B7000CDE9023400F00CFF08230A480DEB030115
:100B8000CDE90234059400F003FF074A536823F4CB
:100B9000407343F0E06343F48073536006B010BDCC
:100BA00000080140000C01400000014010B504465F
:100BB00086B01022002102A804F07AFB22681B4BA9
:100BC0009A4230D103F558439A69194842F4804259
:100BD0009A619A6902A902F480420092009A9A6985
:100BE000002442F004029A619B694FF4007203F002
:100BF00004030193019B0223CDE902230323059300
:100C000000F0C6FE4FF48063094802A9CDE9023422
:100C1000049400F0BDFE25202246072100F014FEBA
:100C2000252000F041FE06B010BD00BF0038014095
:100C3000000801401E4B70B59A6988B042F400620A
:100C40009A619B6901A903F400630293064603A815
:100C5000184D029B01F0F8F901F0E6F9164B2B60F4
:100C600040F2E733EB60154BB0FBF3F000230138A3
:100C7000686028462B61AB60AB6101F00BFC044659
:100C800080B9284601F0EEFA044658B9192000F060
:100C90000BFE0F2E09D822463146192000F0D4FD54
:100CA000074B1E60204608B070BD0124FAE700BF64
:100CB0000010024090010020002C014040420F0033
:100CC00008000020FEE7FEE7FEE7FEE7FEE77047CC
:100CD000014800F073B800BF60010020014800F037
:100CE0009CBC00BF38010020FFF7F8BF014801F0AD
:100CF000FCBA00BF90010020014801F0F6BA00BF25
:100D0000F0000020014801F0F0BA00BFA800002068
:100D1000014801F081BF00BF600000207047000063
:100D2000FFF7FCFF0B480C490C4A002302E0D458A3
:100D3000C4500433C4188C42F9D3094A094C002327
:100D400001E013600432A242FBD304F0B9FAFFF7CA
:100D5000D7FC70470000002044000020B853000872
:100D600044000020CC2B0020FEE70000074A08B515
:100D70001368032043F01003136000F053FD0F20AD
:100D8000FFF758FFFFF7DCFD002008BD0020024000
:100D9000034A044B11681B780B441360704700BF73
:100DA000D801002004000020014B1868704700BFE4
:100DB000D80100200368D86C70477047036870B58D
:100DC0001D685E680446B00626D5A90724D5A26A28
:100DD000D2065EBFA26A42F40072A2629A6802F46E
:100DE0006022B2F5602F10D1227B72B95A6822F0CE
:100DF00020025A60A36A23F48073A362A36AD80412
:100E00005EBFA36A43F00103A362204602F0D4F858
:100E10006FF0120223681A60310630D56A072ED5AA
:100E2000A36ADB065EBFA36A43F40053A362236890
:100E30009A6802F4E042B2F5E04F0AD05A685005D1
:100E400016D49A6802F46022B2F5602F10D1227B8A
:100E500072B95A6822F080025A60A36A23F4805360
:100E6000A362A36AD9055EBFA36A43F00103A3622C
:100E7000204600F0D9F96FF00C0223681A60720660
:100E80000CD5EB070AD5A36A204643F48033A3624E
:100E9000FFF793FF6FF0010223681A6070BD000036
:100EA000002373B5019390F824300446012B6CD0D5
:100EB000012380F824304D680268062D086805EB90
:100EC000850322D81F26556B053B9E4025EA060563
:100ED00000FA03F32B43536309288B6800EB4005AA
:100EE0004FF0070129D9D6681E3DA94026EA010125
:100EF000AB400B43D360A0F11003012B25D9002098
:100F0000002384F8243002B070BD0C2D4FF01F0573
:100F100009D8166B233B9D4026EA050500FA03F32A
:100F20002B431363D8E7D66A413B9D4026EA05056B
:100F300000FA03F32B43D362CEE71069A94020EAFD
:100F40000101AB400B431361D9E7114B9A4216D113
:100F500093681B02D3D49368102843F40003936072
:100F6000CDD10C4B0C4A1B68B3FBF2F30A2253435E
:100F70000193019B002BC2D0019B013BF8E7A36AC0
:100F8000012043F02003A362BAE70220BBE700BFC1
:100F9000002401400000002040420F00002337B52C
:100FA0000193036804469A68D20702D5002003B073
:100FB00030BD9A6842F001029A60144B144A1B68D3
:100FC000B3FBF2F30193019BE3B9FFF7EDFE054696
:100FD00023689B68DB07E9D4FFF7E6FE401B022885
:100FE000F6D923689B6813F00103F1D1A26A0120AE
:100FF00042F01002A262E26A84F8243042F0010258
:10100000E262D4E7019B013BDCE700BF0000002067
:1010100040420F0010B590F824300446012B58D000
:10102000012380F82430FFF7B9FF00284DD1A36ACF
:10103000294A23F4706323F0010343F48073A3620D
:101040002368934204D125494A6812F4702F32D1A3
:10105000A26A22F48012A2625A68520541BFA26AB3
:1010600022F4405242F48052A262A26A12F48052E8
:101070001CBFE26A22F00602E262002284F8242009
:101080006FF002021A605A6842F020025A609A68B1
:1010900002F46022B2F5602F13D10F4A934205D1BA
:1010A000A2F58062526812F4702F0AD19A6842F455
:1010B000A0029A6010BDA26A42F48012A2624A683D
:1010C000CBE79A6842F48012F3E7002384F82430D7
:1010D000F0E70220EEE700BF0028014000240140B5
:1010E00038B5036804469A68D10701D4002038BD9A
:1010F0009A6822F001029A60FFF756FE05462368BF
:101100009B68DB07F2D5FFF74FFE401B0228F6D99C
:1011100023689B68DA07F2D5A36A012043F0100325
:10112000A362E36A43F00103E362E0E7F8B5044633
:1011300000286DD0836A23B9C36280F82430FFF79A
:1011400021FC2046FFF7CCFFA36A13F0100361D106
:1011500000285FD1A26A616822F4885222F002025C
:1011600042F00202E569A668A262227B2943B6F535
:10117000807F41EA420136D0771E7D427D412D02BB
:10118000277D012F06D182BBA269013A45EA42328E
:1011900042F400652268B6F5807F576827F46947F6
:1011A00045EA0705556097681D4D05EA070545EABC
:1011B0000105956001D0012E02D12369013B1B0579
:1011C000D56A25F470052B43D3629268154B134002
:1011D000994213D10023E362A36A23F0030343F08F
:1011E0000103A362F8BD3546CAE7A26A42F02002B5
:1011F000A262E26A42F00102E262CBE7A36A23F054
:10120000120343F01003A362E36A43F00103E362B5
:101210000120E7E7A36A43F01003A362F8E700BFE9
:10122000FDF7E1FFFE0E1FFF704738B504460028AA
:101230006ED090F820300BB9FFF7DAFB2268136804
:1012400043F001031360FFF7AFFD054623685A68BA
:10125000D10751D51A6822F002021A60FFF7A4FDE7
:10126000054623685A68920754D4227E0020012A3A
:101270001A680CBF42F0800222F080021A60627E7F
:10128000012A1A680CBF42F0400222F040021A60A4
:10129000A27E012A1A680CBF42F0200222F020022E
:1012A0001A60E27E012A1A680CBF22F0100242F096
:1012B00010021A60227F012A1A680CBF42F008024D
:1012C00022F008021A60627F012A1A680CBF42F0FD
:1012D000040222F004021A60D4E902210A432169BF
:1012E0000A4361690A43616801390A43DA610123EB
:1012F000606284F820300CE0FFF756FD401B0A289E
:10130000A4D9636A43F400336362052384F8203070
:10131000012038BDFFF748FD401B0A28A1D9F0E79E
:1013200070B590F820200368013A012A62D80120A4
:10133000D3F8002242F00102C3F800224A69D3F830
:101340001C5202F01F04A04025EA0005C3F81C52FD
:10135000CD69C44395BBD3F80C52CE682540C3F881
:101360000C528D8803EBC20245EA0645C2F8405292
:101370008E680D8845EA0645C2F844528A697ABBF0
:10138000D3F804222240C3F804220A6962BBD3F8CE
:1013900014221440C3F814420A6A012A04BFD3F885
:1013A0001C2202434FF0000008BFC3F81C22D3F8F0
:1013B000002222F00102C3F8002270BD012DDDD110
:1013C000D3F80C520E680543C3F80C528D8803EB1A
:1013D000C20245EA0645C2F840528E688D89C9E7C7
:1013E000D3F804220243CEE7D3F814220243C3F811
:1013F0001422D1E7436A43F4802343620120DCE7EF
:1014000038B590F820300446012B1FD10223026822
:1014100080F82030136823F001031360FFF7C4FC49
:1014200005462368586810F0010001D1606238BD9C
:10143000FFF7BAFC401B0A28F3D9636A43F4003370
:101440006362052384F820300120F0E7436A43F407
:1014500000234362F8E7F0B590F820500468013D9E
:10146000012DA6683CD816F0E05F33D00125C6F305
:10147000016085401D60D1E9025700F1180315BBDA
:101480000D681B0147EA4557E75004EB00130501BF
:1014900000200E692C44C3F88461097D012902BF34
:1014A000D3F8841141F48071C3F884115168C4F8F1
:1014B0008C111268C4F88821D3F8802142F001020F
:1014C000C3F88021F0BD4E683D4345EAC6051B01C7
:1014D000E550DAE7436A43F4001343620120F1E781
:1014E000436A43F48023F8E7F0B590F82040013CCC
:1014F000012C71D8066841B9F468A40707D1436A82
:1015000043F4001343620120F0BD3469F5E706EBB4
:101510000115D5F8B0710C0107F004079760002F92
:1015200050D1D5F8B0717F0D1760D5F8B071264451
:1015300007F00207D760D5F8B4713F074EBF082700
:10154000D5F8B47107F00F071761D5F8B471D5F865
:10155000B451C7F307272D0C97615561D6F8B82110
:101560001A7002682244D2F8B821120A5A7002682E
:101570002244D2F8B821120C9A7002682244D2F8A0
:10158000B821120EDA7002682244D2F8BC211A7116
:1015900002682244D2F8BC21120A5A71026822441D
:1015A000D2F8BC21120C9A7102682244D2F8BC21F4
:1015B000120EDA71036851B9DA6842F02002DA607B
:1015C0000020A1E7D5F8B071FF085760ADE71A69B0
:1015D00042F020021A61F3E7436A43F4802391E763
:1015E00090F82030013B012B05D802680020536998
:1015F000194351617047436A43F4802343620120D9
:101600007047704770477047704770477047704722
:10161000704770477047704770472DE9F84F03686F
:1016200005465E69D3F8049016F00104D3F80880EB
:10163000D3F80CB0D3F810A09F6927D018F0010F91
:1016400007D0012218F0020F9A6000F0A680FFF781
:10165000D8FF002418F4807F0AD04FF480722B68E2
:1016600018F4007F9A6000F0A7802846FFF7CAFFB1
:1016700018F4803F0AD04FF480322B6818F4003FF2
:101680009A6000F0A9802846FFF7BDFF300707D514
:101690001BF0100F1FBF10222B6844F40074DA6097
:1016A000710708D51BF0080F05D008222B682846C3
:1016B000DA60FFF7ACFFB20706D52B68DB689B0743
:1016C00002D0284601F09AFE700607D51AF0100FD6
:1016D0001FBF10222B6844F480641A61B10608D53C
:1016E0001AF0080F05D008222B6828461A61FFF768
:1016F00090FFF20606D52B681B699B0702D028468F
:10170000FFF786FFB00308D519F0100F05D010229F
:101710002B6828465A60FFF77DFFF10308D519F0C2
:10172000080F05D008222B6828465A60FFF773FF80
:10173000320429D519F0040F2A6823D0F30503D504
:10174000F80748BF44F00104B10503D5BB0748BF03
:1017500044F00204700503D5790748BF44F004043F
:1017600033050FD517F070030CD0402B54D043D85D
:10177000202B4BD0302B4CD0102B44D0936923F02E
:1017800070039361042353602CB16B6A2846234392
:101790006B62FFF741FFBDE8F88F18F0040F05D129
:1017A00018F0080F05D1FFF72FFF52E74FF4006440
:1017B00050E74FF480544DE718F4806F02D044F4A2
:1017C000005455E718F4006F02D044F480444FE70A
:1017D0002846FFF71AFF4BE718F4802F02D044F495
:1017E000004453E718F4002F02D044F480344DE74E
:1017F0002846FFF70BFF49E7502B10D0602BBDD1D7
:1018000044F48074BAE744F00804B7E744F01004E5
:10181000B4E744F02004B1E744F04004AEE744F0FC
:101820008004ABE707490302CA6803F4E06322F4CB
:10183000E0621204120C134343F0BF6343F400331D
:10184000CB60704700ED00E0154B30B5DC68C4F3A9
:101850000224C4F10703251D042B28BF0423062DF1
:101860004FF0FF3594BF0024033C05FA03F321EA4F
:101870000303A54022EA0502A340002843EA02032D
:10188000ACBF00F16040074A4FEA0313DBB2ABBFC5
:1018900000F5614000F00F0080F80033135430BDB4
:1018A00000ED00E014ED00E0002807DB0123410912
:1018B000034A00F01F00834042F82130704700BF08
:1018C00000E100E090F821200346022A06D004221D
:1018D00082630120002283F8202070470268C06BD9
:1018E000116821F00E011160116821F001011160F1
:1018F00001211A6C01FA02F24260002083F82110E3
:10190000E8E7000008B590F82130022B03D004234B
:101910008363012008BD03681A6822F00E021A6072
:101920001A6822F001021A60174A93421FD014323B
:1019300093421ED0143293421DD0143293421DD0D4
:10194000143293421DD01432934214BF4FF080736F
:101950004FF480130D4A5360012380F82130002397
:1019600080F82030436B03B198470020D2E7012371
:10197000F0E71023EEE74FF48073EBE74FF480536A
:10198000E8E74FF48033E5E708000240000002403A
:101990002DE9F74F00242646DFF888C1624BDFF8B7
:1019A0008CE1DFF88C810A6832FA06F502D103B0C7
:1019B000BDE8F08F0127B74002EA070537EA0202C7
:1019C0007AD14A68032A07D8013A022A00F28380B2
:1019D000DFE802F092979D00122A00F095806DD802
:1019E000112A00F08B80FF2D98BF81464FF00F0B1E
:1019F00088BF00F104094FEA8602D9F8007088BF59
:101A0000203A0BFA02FA27EA0A0704FA02F217430D
:101A1000C9F80070D1F8049019F0805F4CD0DCF860
:101A2000182026F0030742F00102CCF81820DCF859
:101A3000182007F1804702F00102019207F5803774
:101A400006F0030A019A4FEA8A0ABA680BFA0AFBFF
:101A500022EA0B0B374A90425DD002F58062904239
:101A60005BD002F58062904259D002F580629042CC
:101A700014BF0422032202FA0AF242EA0B02BA60FD
:101A80009A6819F4801F14BF2A43AA439A60DA683F
:101A900019F4001F14BF2A43AA43DA605A6819F4E4
:101AA000003F14BF2A43AA435A601A6819F4803FC2
:101AB00014BF2A43AA431A60013674E7DFF878900E
:101AC0004A4508D010D8A9F580194A4503D0724577
:101AD00001D0424587D18A68DAB1012A4FF0080463
:101AE0000CBF076147617EE7DFF850904A45F2D0AE
:101AF00009F580394A45EDE7CC6874E7CC680434D1
:101B000071E7CC6808346EE7CC680C346BE70024CE
:101B100069E7042467E70022ADE70122ABE7022270
:101B2000A9E700BF0010024000040140000021109E
:101B300000001110000801400000221000003110C8
:101B40000AB1016170470904FBE700002DE9F34188
:101B5000054638B30368DB0710D42B689F075ED4B3
:101B60002B68190700F195802B685A0700F1C18096
:101B7000EB69002B40F02C81002029E0904C636839
:101B800003F00C03042B07D0636803F00C03082B4D
:101B90000AD16368DE0307D523689C03DDD56B6833
:101BA000002BDAD1012013E06B68B3F5803F12D12E
:101BB000236843F480332360FFF7F6F80646236872
:101BC0009803CAD4FFF7F0F8801B6428F7D90320E4
:101BD00002B0BDE8F0819BB9236823F48033236011
:101BE000236823F480232360FFF7DEF8064623688A
:101BF0009903B2D5FFF7D8F8801B6428F7D9E6E738
:101C0000B3F5A02F236803D143F480232360CFE7EB
:101C100023F480332360236823F48023CBE7684CCC
:101C2000636813F00C0F07D0636803F00C03082BF4
:101C300010D16368DA030DD423689B0702D52B69A2
:101C4000012BAFD123686A6923F0F80343EAC2038A
:101C5000236085E72A695B4B6AB101221A60FFF7AE
:101C6000A3F8064623689F07ECD4FFF79DF8801B76
:101C70000228F7D9ABE71A60FFF796F80646236803
:101C800098077FF56DAFFFF78FF8801B0228F6D914
:101C90009DE7AA694A4E4B4BE2B10122C3F880246A
:101CA000FFF782F80446736A9B070DD54FF4FA528A
:101CB000454B1B68B3FBF2F3019300BF019B5A1E17
:101CC0000192002BF9D14FE7FFF76EF8001B0228B5
:101CD000E9D97CE7C3F88024FFF766F80446736A05
:101CE0009F077FF541AFFFF75FF8001B0228F6D989
:101CF0006DE7334CE369D80024D40127E36943F04E
:101D00008053E361E36903F080530093009B2F4EFF
:101D10003368D90518D5EB68012B26D1236A43F027
:101D200001032362FFF740F841F288380646236A30
:101D30009B073FD5002F3FF41BAFE36923F080538F
:101D4000E36115E70027E2E7336843F4807333600B
:101D5000FFF72AF880463368DA05DCD4FFF724F869
:101D6000A0EB08006428F6D931E7ABB9236A41F249
:101D7000883823F001032362236A23F004032362DB
:101D8000FFF712F80646236A9807D3D5FFF70CF839
:101D9000801B4045F7D91AE7052B236A03D143F08E
:101DA00004032362BAE723F001032362236A23F0CA
:101DB0000403B6E7FEF7F8FF801B4045B7D906E7F6
:101DC000001002400000424200000020007000406D
:101DD0002A4C626802F00C02082A3ED00022022B34
:101DE000274B1A662CD1FEF7DFFF064623689901C0
:101DF00020D42B6AB3F5803F05D16268A96822F42C
:101E000000320A436260696A62680B4322F474120A
:101E10001343012263601A4B1A66FEF7C5FF05469D
:101E200023689A013FF5A8AEFEF7BEFF401B0228CB
:101E3000F6D9CCE6FEF7B8FF801B0228D6D9C6E655
:101E4000FEF7B2FF054623689B017FF595AEFEF7CE
:101E5000ABFF401B0228F6D9B9E6012B3FF4A2AE36
:101E600060682B6A00F480329A427FF49BAE6B6A02
:101E700000F47010C01A18BF0120A9E6001002403B
:101E8000000042420D4A536803F00C01082912D1A8
:101E90000B48C3F38341DB03405C09D55368094A0F
:101EA000C3F340435043084AD35CB0FBF3F07047A0
:101EB000064B584370470348704700BF001002406C
:101EC0005653000800127A005453000800093D00E0
:101ED0002DE9F0410D46044610B90120BDE8F0811E
:101EE000444A136803F007038B4228D321688E0706
:101EF00030D4CA0743D43F4A136803F00703AB4208
:101F000065D822683C4D12F0040F6CD1130706D53A
:101F10006B68226923F4605343EAC2036B60FFF7E6
:101F2000B1FF6B68354AC3F30313D35CD840344B1D
:101F30001860344B1868FEF77DFE0020CEE713686A
:101F400023F007030B431360136803F007038B426E
:101F5000C3D1CBE7284B11F0040F1EBF5A6842F4DF
:101F6000E0625A60080742BF5A6842F460525A6001
:101F70005A68A06822F0F00202435A60B9E762682A
:101F80001D4E012A33681AD113F4003FA5D073689F
:101F900041F2883823F0030313437360FEF704FF14
:101FA00007467368626803F00C03B3EB820FA2D09C
:101FB000FEF7FAFEC01B4045F3D903208EE7022A44
:101FC00002D113F0007FE1E713F0020FDEE71368A0
:101FD00023F007032B431360136803F00703AB429E
:101FE0007FF47BAF8DE76B68E16823F4E0630B431C
:101FF0006B608BE700200240001002404453000851
:102000000000002008000020044B054A5B68C3F371
:102010000223D35C034A1068D84070470010024086
:102020003C53000800000020044B054A5B68C3F3E2
:10203000C223D35C034A1068D840704700100240A6
:102040003C530008000000200F2303600B4B5A682C
:1020500002F0030242605A6802F0F00282605A689D
:1020600002F4E062C2605B68DB0803F4E0630361D2
:10207000034B1B6803F007030B607047001002401E
:102080000020024003682DE9F3410546D80721D519
:10209000364CE369D9002BD40126E36943F0805321
:1020A000E361E36903F080530193019B304F3B6888
:1020B000DA051FD5236A6A6813F440732ED1236AA8
:1020C0006A6823F44073134323621EB1E36923F06B
:1020D0008053E3612A68910706D52449A8684B68B4
:1020E00023F4404303434B60D30636D4002012E070
:1020F0000026DBE73B6843F480733B60FEF754FE49
:1021000080463B68DB05D5D4FEF74EFEA0EB080009
:102110006428F6D9032002B0BDE8F08102F44072D1
:102120009A42CCD00120134A236AC2F8400400200E
:1021300023F44071DF07C2F840042162BFD5FEF7E7
:1021400033FE41F288380746236A9807B7D4FEF772
:102150002BFEC01B4045F7D9DCE7044AE968536809
:1021600023F480030B435360C0E700BF001002401C
:102170000070004000004242036A026A70B522F01B
:1021800001020262446882690D6822F073022A43E8
:102190008D6823F002032B430A4DA8420BD1CD6872
:1021A00023F008032B4324F44074D1E9055635434A
:1021B00023F004032C43446082614A684263036253
:1021C00070BD00BF002C0140036A026A70B522F4A2
:1021D000807202624468C2690D6822F073022A4369
:1021E0008D6823F4007343EA05230B4DA8420DD1FB
:1021F000CD6823F4006343EA052324F44054D1E975
:102200000556354323F4806344EA05144460C261F3
:102210004A68C263036270BD002C0140036A026A0F
:1022200030B522F4805202624468C2690D6822F41B
:10223000E64242EA05228D6823F4005343EA05335F
:10224000064DA84202BF4D6924F4804444EA851437
:102250004460C2614A680264036230BD002C0140E0
:102260007047000090F83D30012B20D1022380F808
:102270003D300368DA6842F00102DA600D4A9342A9
:102280000AD0B3F1804F07D0A2F59432934203D025
:1022900002F58062934204D19A6802F00702062A8E
:1022A00003D01A6842F001021A6000207047012032
:1022B000704700BF002C0140082910D004D841B15C
:1022C000042909D0002070470C29FBD10368186C41
:1022D00070470368586B70470368986B70470368D2
:1022E000D86B7047704770477047036870B5DD68FA
:1022F0001E690446B1070DD5AA070BD56FF002027F
:102300001A61012202779B699B0769D001F000FAEC
:1023100000232377710710D56A070ED56FF00402EA
:10232000236820461A61022222779B6913F4407FBA
:102330005CD001F0EDF90023237733070FD5280790
:102340000DD56FF00802236820461A610422227717
:10235000DB69990750D001F0DBF900232377F206FF
:1023600010D5EB060ED56FF01002236820461A61D7
:1023700008222277DB6913F4407F43D001F0C8F9CB
:1023800000232377F00708D5E90706D56FF001028F
:10239000236820461A61FEF7C9FA320608D52B06D3
:1023A00006D56FF08002236820461A6100F035FBE5
:1023B000700608D5690606D56FF0400223682046EE
:1023C0001A61FFF791FFB20622D5AB0620D56FF058
:1023D000200223682046BDE870401A6100F01CBB53
:1023E000FFF780FF2046FFF77EFF91E7FFF77AFFB8
:1023F0002046FFF778FF9EE7FFF774FF2046FFF7C0
:1024000072FFAAE7FFF76EFF2046FFF76CFFB7E702
:1024100070BD00001E4A036890420AD0B0F1804FA0
:1024200007D0A2F59432904203D002F58062904228
:1024300015D14A6823F070031343154A90420AD01D
:10244000B0F1804F07D0A2F59432904203D002F54C
:102450008062904203D1CA6823F4407313434A69EF
:1024600023F08003134303608B68C3620B688362AD
:10247000074B984204BF0B6903630123436103695F
:10248000DB0742BF036923F001030361704700BF0C
:10249000002C014010B5044630B390F83D3003F0F5
:1024A000FF021BB980F83C20FFF7DAFE0223206808
:1024B00084F83D30211DFFF7ADFF0123002084F893
:1024C000463084F83E3084F83F3084F8403084F859
:1024D000413084F8423084F8433084F8443084F842
:1024E000453084F83D3010BD0120FCE710B50446AE
:1024F00030B390F83D3003F0FF021BB980F83C2068
:10250000FEF7BEFA0223206884F83D30211DFFF754
:1025100081FF0123002084F8463084F83E3084F89F
:102520003F3084F8403084F8413084F8423084F8F9
:10253000433084F8443084F8453084F83D3010BD91
:102540000120FCE710B5044630B390F83D3003F0AD
:10255000FF021BB980F83C20FEF7B0FA0223206886
:1025600084F83D30211DFFF755FF0123002084F83A
:10257000463084F83E3084F83F3084F8403084F8A8
:10258000413084F8423084F8433084F8443084F891
:10259000453084F83D3010BD0120FCE7036A026A33
:1025A00070B522F010020262446882690D6822F45C
:1025B000E64242EA05228D6823F0200343EA051330
:1025C0000B4DA8420DD1CD6823F0800343EA0513DB
:1025D00024F44064D1E90556354323F0400344EA2E
:1025E0008504446082614A688263036270BD00BFF3
:1025F000002C014038B590F83C300446012B4FD0F8
:102600000120082A84F83C003AD006D8BAB1042A3E
:1026100026D0002384F83C3038BD0C2AF9D120683C
:10262000FFF7FCFDC3690A6943F40063C361C36932
:1026300023F48063C361C36943EA02232EE0206868
:10264000FFF79AFD83690A6943F008038361836990
:1026500023F0040383618369134383610020D8E777
:102660002068FFF79BFF83690A6943F40063836175
:10267000836923F480638361836943EA0223ECE77F
:102680002068FFF7A1FDC3690A6943F00803C3612D
:10269000C36923F00403C361C3691343C361DDE766
:1026A0000220B9E770B5056A046A124E24F00104ED
:1026B0000462B042846919D0B0F1804F16D0A6F5FB
:1026C0009436B04212D006F58066B0420ED044F087
:1026D00001021B0122F0F002DBB2134301F00A01F8
:1026E00025F00A0211438361016270BD24F00304E6
:1026F0002243EEE7002C0140F8B590F83C30054647
:10270000012B0C4600F08880012085F83C008AB936
:102710002868CB6806C9FFF7C5FF8369A26823F064
:102720000C0383618369134383610020002385F8D0
:102730003C30F8BD042A24D1D1E900272B68C968B0
:102740001E6A186A090320F010001862986989B29D
:1027500020F4407040EA072020F470401201014349
:1027600002F0A00226F0A000024399611A629A6961
:10277000A16822F440629A619A6942EA01229A6150
:10278000D3E7082A22D1D1E900202B68C9681E6A44
:102790001F6A090127F480771F62DF69C9B227F039
:1027A0000307384320F0F0001202014302F40072E4
:1027B00026F400700243D9611A62DA69A16822F036
:1027C0000C02DA61DA690A43DA61AEE70C2AADD1AC
:1027D000D1E900272B68C9681E6A186A090320F42A
:1027E00080501862D86989B220F4407040EA07200E
:1027F00020F470401203014302F4005226F400500A
:102800000243D9611A62DA69A16822F44062DA618E
:10281000DA6942EA0122D7E702208AE710B50124EB
:10282000036A01F01F018C4023EA04030362036A78
:102830008A401A43026210BD08B529B990F83E30AB
:10284000012B1DD001202EE0042907D190F83F3044
:10285000012BF7D1022380F83F3014E0082907D17B
:1028600090F84030012BEDD1022380F840300AE08F
:1028700090F84130012BE5D1022380F8413002E08D
:10288000022380F83E3000680122FFF7C7FF0F4B9C
:10289000984209D0B0F1804F0BD1836803F0070351
:1028A000062B0DD1002008BD436C43F40043436464
:1028B000F3E7074B9842F0D003F580639842ECD0E1
:1028C000036843F001030360ECE700BF002C014004
:1028D00000040040FFF7B0BF08B571BB90F83E2080
:1028E00090F84230D2B2012ADBB262D1012B60D122
:1028F0000223002937D1026880F83E3080F8423048
:10290000D36843F00203D36000680122FFF786FF1B
:10291000294B98420AD0B0F1804F07D0A3F59433E9
:10292000984203D003F5806398423DD1836803F059
:102930000703062B38D1002008BD042905D190F8E3
:102940003F2090F84330D2B2CDE708290BBF90F872
:10295000402090F8412090F8443090F845300CBF6A
:10296000D2B2D2B2BFE7042908D1026880F83F3062
:1029700080F84330D36843F00403C4E7082908D142
:10298000026880F8403080F84430D36843F0080390
:10299000B9E70C2980F8413080F8453009D1026848
:1029A000D36843F01003AEE7036843F0010303600C
:1029B000C1E70120C0E700BF002C014030B590F80E
:1029C0003C300246012B4FF0020022D0136882F8FF
:1029D0003D005C680D6824F070042C4398685C60CE
:1029E0000C4CA3420AD0B3F1804F07D0A4F5943425
:1029F000A34203D004F58064A34204D1496820F0C7
:102A00008000014399600123002082F83D3082F864
:102A10003C0030BD002C014070477047026802F155
:102A20000C0353E8003F23F490730C3242E800316A
:102A300002680029F2D102F1140353E8003F23F0A9
:102A4000010302F1140C4CE800310029F3D1036BAF
:102A5000012B0BD102F10C0353E8003F23F01003CC
:102A600002F10C0C4CE800310029F3D1202380F84E
:102A7000423000230363704710B504460368C16801
:102A80001A6922F440520A431A6182680069D968BF
:102A90000243606921F4B05121F00C0102430A4362
:102AA000DA605A69A16922F440720A435A610E4AF7
:102AB000934215D1FFF7B8FA19234343626820689F
:102AC0009200B3FBF2F36422B3FBF2F102FB113389
:102AD0001B013233B3FBF2F303EB0113836010BD30
:102AE000FFF792FAE8E700BF0038014010B504464E
:102AF00048B390F8413003F0FF021BB980F8402042
:102B0000FEF754F82423226884F84130D368204625
:102B100023F40053D360FFF7AFFF236800201A6946
:102B200022F490421A615A6922F02A025A61DA6844
:102B300042F40052DA602023606484F8413084F863
:102B40004230606310BD0120FCE77047704708B554
:102B50000023406AC385C384FFF7F8FF08BD7047B0
:102B600090F8423007B5222B42D181680268B1F556
:102B7000805F836A3FD1016900293FD15268C2F367
:102B8000080223F8022B8362C38D013B9BB2C385ED
:102B9000002B2DD10268D16821F02001D160D168CD
:102BA00021F48071D160516921F00101516120222D
:102BB00080F842204363026B012A026828D1036334
:102BC00002F10C0353E8003F23F0100302F10C0C58
:102BD0004CE800310029F3D11368DB0605D50191DB
:102BE0001368019353680193019B818DFFF7B7FF31
:102BF00003B05DF804FB39B9016929B95268D2B252
:102C00001A70836A0133BEE7526802F07F02F7E769
:102C100000F0AAFBECE70000036873B51A680446ED
:102C20001607D9685D6908D1960668D58D0666D500
:102C300002B0BDE87040FFF793BF05F0010001F45A
:102C4000907505435BD0D60705D5CD0542BF636CB3
:102C500043F001036364530704D518B1636C43F078
:102C600002036364960704D518B1636C43F0040350
:102C70006364150707D501F0200303431EBF636C8F
:102C800043F008036364636C002B32D0920604D5D2
:102C90008B0602D52046FFF763FF2668204673693E
:102CA000626C03F0400302F0080253EA020522D0EE
:102CB000FFF7B4FE73695E0618D5226802F11403AB
:102CC00053E8003F23F04003143242E8003100296A
:102CD000F3D1E06B50B1744B4363FEF713FE40B188
:102CE000E06B436B02B0BDE8704018472046FFF729
:102CF0002DFF02B070BDFFF729FF6564F9E7206B77
:102D0000012840F09480D50640F19180C80640F13A
:102D10008E80002201921A6801925A680192019AEB
:102D20005A6952064DD5E16B0A68526892B2002A80
:102D3000DFD0A08D9042DCD9E2858A69202A36D086
:102D400003F10C0252E8002F22F4807203F10C0010
:102D500040E800210029F3D103F1140252E8002FCA
:102D600022F0010203F1140040E800210029F3D110
:102D700003F1140252E8002F22F0400203F1140084
:102D800040E800210029F3D1202284F84220216369
:102D900003F10C0252E8002F22F0100203F10C00A4
:102DA00040E800210029F3D1E06BFEF78BFD022300
:102DB0006363E38DA18DC91A89B22046FFF7CFFE68
:102DC00097E7E28DE08DA18D80B292B2002890D07D
:102DD000891A89B200298CD003F10C0252E8002F25
:102DE00022F4907203F10C0545E800200028F3D18D
:102DF00003F1140252E8002F22F0010203F114053E
:102E000045E800200028F3D1202284F842202063E6
:102E100003F10C0252E8002F22F0100203F10C051E
:102E200045E800200028F3D102236363C5E71606B6
:102E300028D50D0626D594F84120212A7FF459AFD4
:102E4000A168226AB1F5805F17D12169A9B932F86A
:102E5000021BC1F3080159602262E28C013A92B26E
:102E6000E284002A7FF445AFDA6822F08002DA605B
:102E7000DA6842F04002DA603BE7511C21621278C6
:102E80005A60EAE750067FF534AF4A067FF531AF66
:102E9000DA68204622F04002DA60202384F84130CC
:102EA000FFF753FE25E700BF4F2B00080023C28524
:102EB000436422238285026980F84230816203687C
:102EC0001AB1DA6842F48072DA605A69002042F07E
:102ED00001025A61DA6842F02002DA60704770B489
:102EE00090F84260202E06D141B13AB1002404632B
:102EF00070BCFFF7DBBF022070BC70470120FBE70E
:102F0000014B1860704700BFE4010020014B1860BE
:102F1000704700BFE0010020024B012202491868FF
:102F2000FFF7DDBFE4010020DC01002008B5074BFE
:102F30001B6813B1064A10789847064B012218689F
:102F40000349BDE80840FFF7CABF00BFE001002009
:102F5000DC010020E4010020014B1860FEF75AB8A4
:102F6000EC010020024B186808B1FEF753B8704717
:102F7000EC01002008B5FDF7A1F90749FDF7AAFA11
:102F80000649FDF7F3F90649FDF7F0F90549FDF7A4
:102F9000A1FA054B186008BD00F07F45333353405C
:102FA00000007A4400002041E8010020014B18682D
:102FB000704700BFE801002008B50268054B9A423F
:102FC00007D1FDF7F7FEFFF7D5FFBDE80840FFF793
:102FD000C9BF08BD00240140642928BF64210B4BF0
:102FE0001970D0E900320A481B6800684143642028
:102FF000B1FBF0F10AB959637047042A01D1996312
:103000007047082A0CBFD96319647047F00100208B
:10301000F401002010B50446818901228068FEF782
:103020008FFDA18A20690022FEF78AFD034B20460E
:10303000BDE810401978FFF7CFBF00BFF0010020B6
:1030400010B50446818900228068FEF779FDA18AC7
:1030500020690122FEF774FD034B2046BDE81040B5
:103060001978FFF7B9BF00BFF001002010B5044682
:10307000818900228068FEF763FD0022A18A206911
:10308000FEF75EFDD4E9002312680BB9536310BD4F
:10309000042B4FF0000101D19163F8E7082B0CBF1E
:1030A000D1631164F3E7000010B504460068074AD5
:1030B000C3686168013313600022054B1A70FFF783
:1030C00009FC2046BDE81040FFF7D0BFF401002006
:1030D000F001002010B4064C2060064C2160064927
:1030E00010BC0A80054A19461360FFF7F5BB00BF04
:1030F000100200200C020020080200200402002020
:1031000037B50B4D0B4C012229882068FEF718FDBE
:1031100000230193019B9F2B07D900222988206857
:1031200003B0BDE83040FEF70BBD019B0133F0E773
:10313000080200200C0200203E4B2DE9F0411C68E3
:103140000546844215D13C4F3C4E3968FFF7B4F830
:1031500032783B4B52BB3A68186023685AB91A6AF6
:1031600022F00A021A621A6A42F002021A6201236B
:103170003370BDE8F081042A07D11A6A22F0A00258
:103180001A621A6A42F02002F0E7082A1A6A0BBF94
:1031900022F4007222F400521A621A620BBF1A6AF9
:1031A0001A6A42F4007242F40052DFE71B6883425D
:1031B00083BFEA68C3F101039B18C41A88BF1C18B7
:1031C00068680130FDF77AF880462046FDF776F80A
:1031D00001464046FDF7CAF80446FEF715FFFDF725
:1031E0006DF81849FDF776F901462046FDF772F9AA
:1031F0001549FDF7BBF84FF07C51FDF7B7F8134BBD
:103200003A6818602B683AB91A6A22F00A021A6200
:103210001A6A1A620023ABE7042A03D11A6A22F061
:10322000A002F4E7082A1A6A0CBF22F4007222F402
:103230000052ECE71002002004020020FC010020F4
:103240000002002000247449287E0C3DF801002073
:10325000014B1868704700BFF801002007B52048EF
:10326000FFF74EFE1F48FFF751FEFFF755FE1E4DBC
:103270001E4C4FF0FF3228680DF1030100F018FDDD
:103280000128F6D19DF803304C2B24D019D8422BBD
:103290001DD011D8A3F13102082AEAD803EB830329
:1032A0005B0020338DF8053000234FF0FF3220689B
:1032B00001A900F07FFBDCE7462BDAD18DF8040092
:1032C000F2E7522B09D0592BD3D1002300E002237F
:1032D0008DF80430E8E70323FAE70423F8E700BF9A
:1032E00060000020F13200081802002024020020B3
:1032F0001FB500238DF807000B4803AA00680DF1E5
:103300000701039300F008FC039B4BB14FF0E0234F
:103310004FF08052C3F8042DBFF34F8FBFF36F8F70
:1033200005B05DF804FB00BF1802002007B50022BD
:1033300001210A2000F014FB074B4FF48072186043
:10334000064B07490193022306480093002300F02F
:10335000E3FE03B05DF804FB180200201402002015
:10336000665300085D3200080268034B9A4201D19F
:10337000FFF7DCBD704700BF0038014000B50D4DC0
:103380000D4C8BB04FF0FF32286801A900F090FC83
:103390000128F7D1019BB3F5806FF3D1BDF8203040
:1033A0006946ADF80030002320681A4600F002FBA1
:1033B000E8E700BF1C0200202402002007B500221D
:1033C00024210A2000F0CCFA084B0221186008489A
:1033D000FEF706F9002303220649CDE9002306483B
:1033E000802200F099FE03B05DF804FB1C0200206F
:1033F00038010020705300087D33000810B5002408
:103400008AB0214608AB01AA0094FEF76DF80A487D
:1034100023466A46006801A900F07EFB009B4BB181
:103420004FF0E0234FF08052C3F8042DBFF34F8FCD
:10343000BFF36F8F0AB010BD1C02002000B50D4D08
:103440000D4C8DB04FF0FF32286802A900F030FC1F
:103450000128F7D1029B204606930023CDE90833CB
:103460009DF80C300DF10D020A9306A901ABFDF792
:10347000F2FFE7E7200200203801002007B5002214
:103480001021142000F06CFA064B03221860002370
:103490000549CDE900230548802200F03DFE03B038
:1034A0005DF804FB20020020765300083D3400083C
:1034B0007FB52948FFF7F8FD2848FFF7F5FD284EAE
:1034C000254D264C4FF0FF32306801A900F0F0FB8B
:1034D0000128F7D19DF80430042B0AD8DFE803F067
:1034E0003503262D31002846FFF794FD2046FFF7CF
:1034F00091FD28469DF80510FFF76EFD20469DF8CA
:103500000510FFF769FD40F20143029301231548BE
:103510008DF80C309DF805304FF0FF328DF80D30EE
:1035200002A90023006800F045FACBE72846FFF720
:1035300087FD2046FFF784FDDBE72846FFF780FD87
:10354000D4E72846FFF766FDF3E72846FFF78EFD30
:103550002046FFF78BFDCCE7240000200C00002064
:10356000240200202002002007B5002202210A20A8
:1035700000F0F6F9074B0422186000230649CDE954
:10358000002306484FF4807200F0C6FD03B05DF8DA
:1035900004FB00BF240200207C530008B134000863
:1035A00008B5FFF7E1FFFFF7C1FE00F08FF800F06C
:1035B00039F8FFF763FFBDE80840FFF7FFBE00F0F2
:1035C00093BE000030B5144885B0FFF7C5FC4FF43A
:1035D000407300930223114D114C8DF804304FF4C9
:1035E000FA7001F029F8FFF7E1FC2860FDF70EF80A
:1035F000002380B28DF80500000A8DF806004FF018
:10360000FF32694620688DF8073002938DF80C3040
:1036100000F0D0F9E3E700BF60010020280200209D
:103620002002002007B5002302220549CDE900232E
:103630000448802200F070FD03B05DF804FB00BF79
:1036400086530008C53500087FB540F2013300936A
:1036500002234FF480728DF8043017490023174875
:10366000FFF738FD164D174E174C642000F0E4FFAD
:10367000FFF746FD4FF47A71286800F0B7FB012888
:1036800017D1FFF7E5FD3060FCF7C0FF80B20023E3
:103690008DF80500000A8DF806004FF0FF326946EC
:1036A00020688DF8073002938DF80C3000F082F915
:1036B000DBE74FF6FF70EAE700080140A8000020B2
:1036C000300200202C0200202002002007B5032237
:1036D0000021012000F044F9094B0021186009483D
:1036E000FFF7FAF8002302220749CDE90023074833
:1036F0004FF4807200F010FD03B05DF804FB00BFD2
:1037000030020020A800002091530008493600082C
:1037100007B5FFF711FD002301930A4B186870B13C
:1037200001A900F065FA019B4BB14FF0E0234FF087
:103730008052C3F8042DBFF34F8FBFF36F8F03B0D8
:103740005DF804FB300200204FF0FF3200F1080367
:10375000C0E9022343600361002303607047002334
:103760000361704730B50C68631C0AD103695A685D
:103770004A6091608B60596003680861013303609F
:1037800030BD00F10802134652681568A542FAD907
:10379000EDE70369D0E901128A60516059688142FE
:1037A00008BF5A60002202611A68013A1A6018685C
:1037B000704710B5044601F085FBA46B01F0A2FB35
:1037C000B4FA84F0400910BD70B51646026C044688
:1037D000856B42B906689EB9806801F0E7F8A6607B
:1037E0000135A56370BD6EB9406801F08DFD636859
:1037F000226C1344A2686360934224BF2368636011
:103800000020EDE7C06801F07FFD226CE3685142C3
:103810009B1A2268E36093423EBFA3685B18E36093
:10382000022EEDD10DB1013DEAE72846D8E7034667
:103830001A6C084610B462B1DC68996814448C4272
:1038400028BF1968DC6028BFD960D96810BC01F0B6
:103850005BBD10BC704770B5044601F033FB94F8B3
:10386000455004F124066DB2002D14DCFF2384F8CA
:10387000453001F047FB01F025FB94F8445004F17A
:1038800010066DB2002D12DCFF2384F84430BDE831
:10389000704001F037BB636A002BE7D0304600F080
:1038A00071FF08B101F01CF8013D6DB2DCE723693E
:1038B000002BE9D0304600F065FF08B101F010F8A8
:1038C000013D6DB2DEE770B50E46044640B94FF0DB
:1038D000500383F31188BFF36F8FBFF34F8FFEE761
:1038E000C56BA5B3036CA3FB053585BB01F0EAFAF4
:1038F000D4E90F314B432268A563D0185B1A62608C
:103900001A44FF23A06084F84430E26084F8453014
:10391000A6B9236973B104F1100000F033FF48B178
:103920004FF0E0234FF08052C3F8042DBFF34F8FC8
:10393000BFF36F8F01F0E6FA012070BD04F11000B3
:10394000FFF702FF04F12400FFF7FEFEF2E74FF05D
:10395000500383F31188BFF36F8FBFF34F8FFEE7E0
:10396000F8B50D4617460646D8B1A1FB0023C3B9EA
:10397000484310F1510F14D8503001F0CFFB0446EA
:1039800058B165B100F1500301212046C4E90F652B
:103990002360FFF798FF84F84C702046F8BD03467B
:1039A000F2E74FF0500383F31188BFF36F8FBFF33B
:1039B0004F8FFEE72DE9FF410F461E460446019258
:1039C00040B94FF0500383F31188BFF36F8FBFF3FB
:1039D0004F8FFEE751B9036C43B14FF0500383F3AF
:1039E0001188BFF36F8FBFF34F8FFEE7022E0BD10D
:1039F000E36B012B08D04FF0500383F31188BFF322
:103A00006F8FBFF34F8FFEE700F070FF054630B3B6
:103A100000254FF0000801F055FAA26BE36B9A42C3
:103A200001D3022E27D1324639462046FFF7CCFE7D
:103A3000636A1BB104F1240000F0A4FE48B14FF00A
:103A4000E0234FF08052C3F8042DBFF34F8FBFF334
:103A50006F8F01F057FA012004B0BDE8F081019B9F
:103A6000002BD6D04FF0500383F31188BFF36F8F34
:103A7000BFF34F8FFEE7019B1BB901F043FA002013
:103A8000EAE715B902A800F0E3FE01F03BFA00F006
:103A90006BFC01F017FA94F84430FF2B08BF84F850
:103AA000448094F84530FF2B08BF84F8458001F02E
:103AB00029FA01A902A800F0D7FE38BB01F002FAEA
:103AC000A26BE36B9A420ED101F01CFA019904F14A
:103AD000100000F00FFE2046FFF7BDFE00F00EFDC7
:103AE00048B1012597E701F00DFA2046FFF7B3FE34
:103AF00000F004FDF5E74FF0E0234FF08052C3F8EB
:103B0000042DBFF34F8FBFF36F8FEAE72046FFF717
:103B1000A2FE00F0F3FCB2E72DE9F8438946174610
:103B20001E46044640B94FF0500383F31188BFF39B
:103B30006F8FBFF34F8FFEE751B9036C43B14FF066
:103B4000500383F31188BFF36F8FBFF34F8FFEE7EE
:103B5000022E0BD1E36B012B08D04FF0500383F3FF
:103B60001188BFF36F8FBFF34F8FFEE701F082FA2A
:103B7000EFF311884FF0500383F31188BFF36F8F79
:103B8000BFF34F8FA26BE36B9A4201D3022E2DD16C
:103B900094F845503246494620466DB2A36BFFF774
:103BA00013FE6B1C0ED1636A3BB104F1240000F0DC
:103BB000E9FD10B10FB101233B60012088F31188AA
:103BC000BDE8F88300F0DEFB8542F6D27F2D08D1F8
:103BD0004FF0500383F31188BFF36F8FBFF34F8F04
:103BE000FEE701356DB284F84550E6E70020E5E7D1
:103BF000F8B50E46044640B94FF0500383F31188E0
:103C0000BFF36F8FBFF34F8FFEE7036C43B14FF0ED
:103C1000500383F31188BFF36F8FBFF34F8FFEE71D
:103C2000036853B9836843B14FF0500383F311889D
:103C3000BFF36F8FBFF34F8FFEE701F01BFAEFF377
:103C400011874FF0500383F31188BFF36F8FBFF3D9
:103C50004F8FA36BE26B9A4228D994F84520013329
:103C6000FF2A55B2A3630DD1636A3BB104F124006E
:103C700000F088FD10B10EB101233360012087F3FD
:103C80001188F8BD00F07EFB8542F7D27F2D08D168
:103C90004FF0500383F31188BFF36F8FBFF34F8F43
:103CA000FEE701356DB284F84550E7E70020E6E70E
:103CB0002DE9FF410E460446019240B94FF05003F2
:103CC00083F31188BFF36F8FBFF34F8FFEE751B9B6
:103CD000036C43B14FF0500383F31188BFF36F8F30
:103CE000BFF34F8FFEE700F001FE054618B3002535
:103CF0004FF0000801F0E6F8A76B47B331462046C5
:103D0000013FFFF794FDA763236973B104F110002D
:103D100000F038FD48B14FF0E0234FF08052C3F877
:103D2000042DBFF34F8FBFF36F8F01F0EBF801202D
:103D300004B0BDE8F081019B002BD9D04FF05003B7
:103D400083F31188BFF36F8FBFF34F8FFEE7019BA3
:103D50001BB901F0D7F80020EAE715B902A800F076
:103D600077FD01F0CFF800F0FFFA01F0ABF894F81E
:103D70004430FF2B08BF84F8448094F84530FF2B73
:103D800008BF84F8458001F0BDF801A902A800F041
:103D90006BFD00BB2046FFF70CFDB0B1019904F1AB
:103DA000240000F0A7FC2046FFF755FD00F0A6FB1D
:103DB00048B94FF0E0234FF08052C3F8042DBFF311
:103DC0004F8FBFF36F8F012594E72046FFF743FD28
:103DD00000F094FBF7E72046FFF73DFD00F08EFB77
:103DE0002046FFF7E6FC0028EDD0B4E7F0B585B03B
:103DF0000446019140B94FF0500383F31188BFF39B
:103E00006F8FBFF34F8FFEE7056C45B14FF0500346
:103E100083F31188BFF36F8FBFF34F8FFEE700F07E
:103E200065FD064620B32E46002701F04BF8A36B34
:103E300053B3013BA363236813B900F063FEA06092
:103E4000236973B104F1100000F09CFC48B14FF0FD
:103E5000E0234FF08052C3F8042DBFF34F8FBFF320
:103E60006F8F01F04FF8012005B0F0BD3546DBE75C
:103E7000019B002BFAD04FF0500383F31188BFF35E
:103E80006F8FBFF34F8FFEE7019B1BB901F03AF82C
:103E90000020E9E716B902A800F0DAFC01F032F8D8
:103EA00000F062FA01F00EF894F84430FF2B08BFDE
:103EB00084F8447094F84530FF2B08BF84F84570AF
:103EC00001F020F801A902A800F0CEFC50BB20466A
:103ED000FFF76FFC00B323683BB900F0F3FFA06865
:103EE00000F014FD054601F00DF8019904F12400DD
:103EF00000F000FC2046FFF7AEFC00F0FFFA48B9E6
:103F00004FF0E0234FF08052C3F8042DBFF34F8FE2
:103F1000BFF36F8F012688E72046FFF79CFC00F077
:103F2000EDFAF7E72046FFF796FC00F0E7FA2046A7
:103F3000FFF73FFC0028EDD0002DA9D000F0C2FF14
:103F4000616A19B1236B1968C1F10601A06800F01C
:103F50007FFD9BE770B540B94FF0500383F31188A4
:103F6000BFF36F8FBFF34F8FFEE7B9B100230C4A49
:103F70001C4615465668864204D105EBC403C3E9C6
:103F800000100BE01BB91668002E08BF1346013461
:103F9000042C02F10802EDD1002BF0D170BD00BF5E
:103FA0003402002070B504460D46164600F08AFF24
:103FB00094F84430FF2B04BF002384F8443094F875
:103FC0004530FF2B04BF002384F8453000F09AFFF2
:103FD000A36B2BB93246294604F1240000F0A4FB60
:103FE0002046BDE87040FFF736BC0000F8B5204B16
:103FF000204C06461D6820680F460430FFF7C9FBB9
:1040000040B922681C49D06A01220B68824023EA29
:1040100002030B60731C13D197B1184B21685A68C7
:104020008A6090682168C860216804314160216815
:1040300004319160226853611A6801321A60F8BD38
:104040002368AD195D6007D30D4B18682168BDE882
:10405000F8400431FFF786BB0A4B18682168043129
:10406000FFF780FB084B1A68AA4288BF1D60E6E78D
:1040700078020020680300207402002080020020E3
:10408000C0020020C40200205C020020064A13681F
:104090001968064B19B94FF0FF321A607047126861
:1040A000D2681268F9E700BFC40200205C02002059
:1040B00080B5154C154F164E236873B9154B1B6808
:1040C000012BF8D94FF0E0234FF08052C3F8042DB4
:1040D000BFF34F8FBFF36F8FEDE700F0F3FEFB6888
:1040E000DD68281DFFF755FB3368013B336023680B
:1040F000013B236000F006FF286B01F09FF8284683
:1041000001F09CF8D8E700BF94020020980200203C
:104110007C020020F00200202DE9F84F9500814636
:10412000DDE90A8B28460E469A4600F0F7FF07465F
:1041300018B94FF0FF30BDE8F88F582000F0EEFFBF
:104140000446002800F0B2805822002101F0B0F8A7
:10415000384627632A46A52101F0AAF8276B6EB1DD
:10416000731E04F13302093613F8011F02F8011F10
:1041700009B1B342F8D1002384F83D30B8F1050FFE
:1041800008D94FF0500383F31188BFF36F8FBFF34B
:104190004F8FFEE7261D3046C4F82C80C4F84880B7
:1041A000FFF7DDFA043D04F11800FFF7D8FAC8F173
:1041B00006037819524649462461A361646220F0DF
:1041C000070000F055FE2060BBF1000F01D0CBF8D6
:1041D000004000F077FE374B374F1A68DFF8DC807D
:1041E00001321A603D68002D55D13C601B68012BDF
:1041F0001FD1C14648460135FFF7A6FA062D09F141
:104200001409F7D1DFF8B8902E4D4846FFF79CFA15
:104210002846FFF799FA2C48FFF796FA2B48FFF744
:1042200093FA2B48FFF790FA2A4BC3F800902A4BD9
:104230001D602A4A2A491368086801331360012265
:104240002364E36A9A4002430A601422534308EB52
:1042500003014A689068A260E0604660966058F882
:1042600003206161013248F8032000F04BFE1D4B32
:104270001B6873B13B68DA6AE36A9A4209D24FF06D
:10428000E0234FF08052C3F8042DBFF34F8FBFF3EC
:104290006F8F01204FE7134B1A68E36A002AC8D1D9
:1042A0003A68D26A9A4298BF3C60C2E7384600F04A
:1042B000C5FF3EE77C02002068030020F0020020DA
:1042C000DC020020C8020020AC020020980200207E
:1042D00080020020C4020020C002002060020020F2
:1042E000740200207002002013B50024174B6422D2
:1042F00001931749234617480094FFF70DFF012843
:1043000019D100F05FFD012815D14FF0500383F360
:104310001188BFF36F8FBFF34F8F4FF0FF320E4BFB
:104320001A600E4B18600E4B1C6000F04BFE0D4BDC
:104330001B6802B010BD0130F9D14FF0500383F378
:104340001188BFF36F8FBFF34F8FFEE75802002035
:104350009C530008B14000085C020020700200205D
:10436000780200203C000020024A136801331360E9
:10437000704700BF54020020014B1868704700BF0F
:1043800078020020014B1868704700BF7C020020B3
:104390002DE9F84F4E4B1B68002B40F092804D4B9F
:1043A0001C6801341C60BCB94B4B1A68126842B1DE
:1043B0004FF0500383F31188BFF36F8FBFF34F8F1C
:1043C000FEE7464A1968106818601160444A13688D
:1043D00001331360FFF75AFEDFF808C10020DCF854
:1043E0000030414A9C42DFF804910FD21421D9F8E1
:1043F0000030DB6A4B43D358022B3D4B28BF0120D2
:104400001B68002B18BF0120BDE8F88FDFF8C880BB
:10441000DFF8E0E0D8F800301B6823B94FF0FF3335
:10442000CCF80030E2E7D8F80030DB68DB68596888
:104430008C4202D2CCF80010D8E75D69D3E90216AD
:104440008E60716069681F1DB9424FF0000108BF9E
:104450006E6059612968013929609D6A7DB1D3E98F
:1044600007168E607160696803F1180A51454FF0B4
:10447000000108BF6E609962296801392960012531
:10448000D96ADEF800608D403543CEF8005014251F
:104490004D4302EB050ADAF80460D6F808B09E60D6
:1044A000C3F80CB0CBF80470B760C3F814A053592C
:1044B00001335351D9F80030DB6A994288BF01209B
:1044C000A8E70D4A00201368013313609CE700BF82
:1044D0005402002078020020C4020020C002002004
:1044E000640200205C020020F0020020680300202B
:1044F00068020020740200206C0200202DE9F84FB1
:10450000454C236843B94FF0500383F31188BFF340
:104510006F8FBFF34F8FFEE700F0D4FC2368013BA1
:10452000236023682BB1002400F0ECFC2046BDE89A
:10453000F88F3A4A1268002AF5D04FF0010C4FF07C
:10454000140E374E374F384ADFF8E080DFF8E0903E
:104550003FE0F368DB68986AD3E907148C60616018
:10456000416803F11805A9424FF0000108BF4460FB
:1045700099620168013901605869D3E902148C60BD
:10458000616041681D1DA942016808BF446001398E
:104590000160D96A3C680CFA01F0204338600EFBD8
:1045A00001F002EB000ADAF80440D4F808B09C608D
:1045B000C3F80CB0CBF80450A5601458C3F814A08D
:1045C00001341450D8F80000C06A814201D3C9F800
:1045D00000C031680029BCD10BB1FFF757FD154D64
:1045E0002C6844B10127124EFFF7D2FE00B13760AC
:1045F000013CF9D12C600E4B1B68002B93D04FF07F
:10460000E0234FF08052C3F8042DBFF34F8FBFF368
:104610006F8F012488E700BF540200207C02002035
:10462000AC02002074020020F00200206803002089
:10463000680200206C02002008B550B94FF0E0235A
:104640004FF08052C3F8042DBFF34F8FBFF36F8F2D
:1046500008BD0A4B196841B14FF0500383F311882C
:10466000BFF36F8FBFF34F8FFEE7FFF77DFEFFF7BE
:10467000BDFCFFF743FF0028E0D0E9E7540200202B
:10468000174B10B51A68174B12B101221A6010BDF2
:104690001A60154B1A68B2FA82F21423D2B2C2F130
:1046A0001F0253431149CC58C81844B94FF0500366
:1046B00083F31188BFF36F8FBFF34F8FFEE744681A
:1046C000083364680B449C4208BF6368446008BFB9
:1046D0004360142303FB02114B68DA68044BD5E7EF
:1046E000540200206802002074020020F002002022
:1046F0006803002010B50C4640B94FF0500383F317
:104700001188BFF36F8FBFF34F8FFEE7054B19681A
:104710001831FFF727F82046BDE810400121FFF7C8
:1047200065BC00BF6803002070B40C46114640B958
:104730004FF0500383F31188BFF36F8FBFF34F8F98
:10474000FEE70F4B42681D689668EA611D68002904
:104750002E621D6805F1180575601D681B6805F15E
:10476000180595609862036803F10103036008BFB0
:10477000204670BC18BF4FF0FF30FFF737BC00BFBA
:1047800068030020C368F0B5DB6843B94FF05003FD
:1047900083F31188BFF36F8FBFF34F8FFEE79A6AE1
:1047A000D3E9070181604860506803F11804A04212
:1047B00008BF5160002199621168013911601E4AD9
:1047C000D96A1268002A2AD1D3E902405A69A06046
:1047D000446054681D1DAC4208BF50601068013829
:1047E0001060012215488A400468224302601422A6
:1047F0004A43134886187468A7689C60DF607D6030
:10480000A5605E618358013383500E4B1B68DB6AE1
:10481000994285BF01200C4B00201860F0BD0B4A67
:1048200050688568D8611D626C6084609A62136804
:1048300001331360E9E700BF540200207402002036
:10484000F00200206803002068020020AC02002073
:10485000034B1B680360034B1B684360704700BF3A
:10486000640200207802002070B50D46044640B96D
:104870004FF0500383F31188BFF36F8FBFF34F8F57
:10488000FEE741B94FF0500383F31188BFF36F8FF8
:10489000BFF34F8FFEE700F015FB0F4B19682B6835
:1048A0005A1C17D00D48266800686268864208D0F6
:1048B0008A4206D8002301242B6000F023FB204607
:1048C00070BD881A8342F5D95B1A134420462B60C9
:1048D000FFF7BEFF0024F0E778020020640200200A
:1048E0000122014B1A60704768020020054B1B68CB
:1048F00033B1054B1868B0FA80F0400940007047AA
:10490000012070477002002054020020F8B50446D0
:10491000002837D0224DC36A2A68D26A934236D221
:104920008269204E002AA1BF2A68D26AC2F106021B
:104930008261142202FB036342699A4223D1071D5C
:104940003846FEF726FF184930B90122E06A0B68A5
:10495000824023EA02030B6001222B680868DB6AAD
:104960009A4002430A601422E3625343F1184A68F2
:104970009068A260E06047609760F2586161013220
:10498000F2500120F8BD2B68DB6AC362F9E72B689F
:10499000806CDB6A98422CBF00200120F2E700BF48
:1049A00068030020F002002074020020F8B50446DD
:1049B00008B90020F8BD234B1B68834208D04FF094
:1049C000500383F31188BFF36F8FBFF34F8FFEE760
:1049D000DB6C43B94FF0500383F31188BFF36F8F43
:1049E000BFF34F8FFEE7C16A826C013B9142C36403
:1049F000DFD0002BDDD1051D2846FEF7CAFE124A86
:104A000030B90121E06A1368814023EA0103136091
:104A10000120A36C1668C3F10601A16100FA03F13D
:104A2000314311601421E3624B43084AD618716880
:104A30008F68A160E7607D608D60D1586661014438
:104A4000D150B7E76803002074020020F002002074
:104A500070B5044600284ED0C26C42B94FF05003E6
:104A600083F31188BFF36F8FBFF34F8FFEE7836C23
:104A7000994238BF1946C36A8B423CD0012A3AD1C9
:104A80001D4A1268824208D14FF0500383F3118807
:104A9000BFF36F8FBFF34F8FFEE78269174D002A78
:104AA0004FF0140202FB03534269C162A4BFC1F17B
:104AB000060181619A421ED1061D3046FEF769FE4D
:104AC000E36A0F4928B901200A68984022EA0002E7
:104AD0000A60012208689A4002430A601422534384
:104AE000E9184A689068A260E06046609660EA58FB
:104AF00061610132EA5070BD68030020F0020020BD
:104B000074020020044B1A681AB11968CA6C013289
:104B1000CA641868704700BF68030020914208B556
:104B2000416000610AD8D21A83699A420DD2084BBB
:104B3000011D1868FEF716FE002008BD9A4201D23A
:104B4000994202D2034B011DF3E70120F5E700BFB4
:104B5000780300207C03002070B504460D461646FD
:104B6000A1692B46324620462944FFF7D7FF00B9FA
:104B700070BDA36920461D44236A9847F0E70000F2
:104B80000E4B70B51B680546DB680E46DC68201DC1
:104B9000FEF7FFFD94F828305A0709D5324629461A
:104BA0002046FFF7D9FF2046236ABDE8704018472A
:104BB00023F0010384F82830F5E700BF7C030020D0
:104BC000F8B50546FFF7D8FB0D4E0446336883421F
:104BD00009D90C4F3B681A6852B90B4A1168136027
:104BE0003960012300E0002320462B603460F8BDCB
:104BF000DB684FF0FF311868FFF7C2FFEAE700BF3C
:104C00006C0300207C030020780300202DE9FF4185
:104C1000534F544E3B68D3F80080B8F1000F34D0A6
:104C20000024DB68D3F80080FFF79EFB01A8FFF7A4
:104C3000C7FF019B0546002B44D144BB40452CD304
:104C4000FFF75CFC29464046FFF79AFF00223068D8
:104C500001A9FFF72DF80028DCD0019B002BF5DB24
:104C6000039C636913B1201DFEF793FD6846FFF7AF
:104C7000A7FF019B0546013B082BE7D8DFE803F0BF
:104C80002525484F682525484F000124CCE7364BA1
:104C90001B681C68B4FA84F4640922463068A8EBE7
:104CA0000501FFF77FF9FFF729FC0028CED14FF06F
:104CB000E0234FF08052C3F8042DBFF34F8FBFF3B2
:104CC0006F8FC3E7FFF71AFCC0E794F82830A1699B
:104CD00043F0010384F82830029B02461944204621
:104CE000FFF71CFF0028B1D094F8283059070AD5E7
:104CF000A36902992A4620461944FFF72DFF204652
:104D0000236A9847A2E723F0010384F82830F6E7E6
:104D100094F8283023F0010384F8283096E794F8BB
:104D2000283043F0010384F828300299A16141B989
:104D30004FF0500383F31188BFF36F8FBFF34F8F92
:104D4000FEE70346024601442046FFF7E7FE7DE703
:104D500094F828309A07DDD4204600F06FFA75E702
:104D60007C0300207403002078030020F8B50F4C6A
:104D700000F0A8F82568ADB90D4F0E4E3846FEF785
:104D8000E3FC3046FEF7E0FC0B4B2A461F600B4B62
:104D90000C2108201E60FEF7E3FD206010B10849D9
:104DA000FFF7D8F8BDE8F84000F0ACB87403002075
:104DB00094030020800300207C030020780300205F
:104DC000A153000807B5FFF7D1FF0D4B1B6843B98E
:104DD0004FF0500383F31188BFF36F8FBFF34F8FF2
:104DE000FEE7084BC82201930223074900930748B6
:104DF0000023FFF791F90028EAD003B05DF804FB27
:104E00007403002070030020A65300080D4C000816
:104E100006480068006880F3088862B661B6BFF390
:104E20004F8FBFF36F8F00DF00BF000008ED00E081
:104E3000002382B001930D4B1B68013308D04FF063
:104E4000500383F31188BFF36F8FBFF34F8FFEE7DB
:104E50004FF0500383F31188BFF36F8FBFF34F8F71
:104E6000019B002BFCD002B0704700BF4000002027
:104E70004FF0807340F8043C054B21F0010140F8ED
:104E8000081C40F80C3C40F8202C4038704700BF0C
:104E9000314E00080000000000000000000000008B
:104EA000074B19680868B0E8F00F80F30988BFF372
:104EB0006F8F4FF0000080F311884EF00D0E704799
:104EC000680300204FF0500383F31188BFF36F8F06
:104ED000BFF34F8F0A4A13680133012B13600ED1C1
:104EE0004FF0E023D3F8043DDBB243B14FF0500361
:104EF00083F31188BFF36F8FBFF34F8FFEE77047C7
:104F000040000020084A136843B94FF0500383F370
:104F10001188BFF36F8FBFF34F8FFEE7013B136024
:104F20000BB983F311887047400000200000000097
:104F3000EFF30980BFF36F8F0D4B1A6820E9F00F74
:104F400010602DE908404FF0500080F31188FFF702
:104F500097FB4FF0000080F31188BDE80840196806
:104F60000868B0E8F00F80F30988BFF36F8F7047CF
:104F70006803002008B54FF0500383F31188BFF396
:104F80006F8FBFF34F8FFFF703FA28B14FF0E02385
:104F90004FF08052C3F8042D002383F3118808BD1D
:104FA0004FF0E02200234FF47A7113619361044BB8
:104FB0001B68B3FBF1F3013B536107231361704797
:104FC0000000002013B5274B1A78D2B20192FF22BD
:104FD0001A701B78244ADBB28DF803309DF8033039
:104FE00003F0500313700723204A13609DF8031049
:104FF000136809060AD4032B11D04FF0500383F332
:105000001188BFF36F8FBFF34F8FFEE7013B136033
:105010009DF803305B00DBB28DF80330E6E74FF418
:1050200040731360019B0F4ADBB213704FF0E02313
:105030000024D3F8202D42F47002C3F8202DD3F8B9
:10504000202D42F07042C3F8202DFFF7A9FF084B36
:105050001C60FFF7DDFEFFF713FB2046FFF7E8FEBD
:1050600002B010BD00E400E0AC030020A803002063
:1050700040000020EFF305830F2B0ED9114A9B5CF3
:10508000114A12789A4208D94FF0500383F31188DD
:10509000BFF36F8FBFF34F8FFEE74FF0E0230B4A54
:1050A000D3F80C3D126803F4E063934208D94FF043
:1050B000500383F31188BFF36F8FBFF34F8FFEE769
:1050C000704700BFF0E300E0AC030020A80300201D
:1050D00010B5104B1A461B688342FBD35468111954
:1050E000884201BF4168104609195160446801199E
:1050F0008B420CD1084909688B4203D0596821447E
:10510000416019689042016018BF106010BD1946D7
:10511000F8E700BFC4030020C0030020F8B5044630
:10512000FFF722F93F490B68F3B93F4A3F4D50075B
:105130001FBFD01D20F0070002F52052131A0CBF2C
:105140004FF42053024600201344083B23F007038A
:1051500068602A60C3E90000981AC2E900300B6059
:10516000334B1860334B1860002C4AD004F007030F
:10517000A3F11102A24251D304F1100EAEEB030CC5
:10518000BCF1000F4ADD2B4F3E68664546D3274AE7
:1051900015686868604501D22C68BCB90968A942E5
:1051A0003CD0A3EB0E0329680344102B1468116054
:1051B00014D905EB0C0042070BD04FF0500383F3DA
:1051C0001188BFF36F8FBFF34F8FFEE72A46254646
:1051D000DFE74360C5F804C0FFF77AFF00236A6881
:1051E0001349B61A42F000426A60134A08682B60FD
:1051F0001368864203F101033E6038BF0E60083435
:105200001360FFF77BF963070AD04FF0500383F375
:105210001188BFF36F8FBFF34F8FFEE70024F0E7D5
:105220002046F8BDC0030020CC030020C4030020AA
:10523000B8030020BC030020B403002010B50446CE
:1052400080B350F8043C002B08DB4FF0500383F38D
:105250001188BFF36F8FBFF34F8FFEE750F8082C14
:1052600042B14FF0500383F31188BFF36F8FBFF348
:105270004F8FFEE723F0004340F8043CFFF774F83B
:10528000094A54F8043C1168A4F108000B44136067
:10529000FFF71EFFBDE81040044A13680133136096
:1052A000FFF72CB910BD00BFBC030020B0030020E5
:1052B00003460244934200D1704703F8011BF9E70B
:1052C00070B500260C4D0D4C641BA410A64209D1EC
:1052D00000F028F800260A4D0A4C641BA410A642D0
:1052E00005D170BD55F8043B98470136EEE755F8F7
:1052F000043B98470136F2E7B0530008B05300086A
:10530000B0530008B45300080A44914200F1FF333F
:1053100000D1704710B511F8014B914203F8014FCD
:10532000F9D110BDF8B500BFF8BC08BC9E46704767
:0C533000F8B500BFF8BC08BC9E467047F2
:10533C000000000001020304000000000000000057
:10534C00010203040607080901020203040506070B
:10535C0008090A0B0C0D0E0F1010426C7565746F5A
:10536C006F74680043616E52780043616E5478002C
:10537C004D6F746F724374726C0054656D7053652D
:10538C006E736F7200556C747261736F6E6963002B
:10539C0049444C4500546D725100546D7220537643
:0453AC00630000009A
:0453B00035010008BB
:0453B40011010008DB
:1053B80000127A000100000010000000F000002038
:1053C80004000000000C014000400000000C0140F7
:1053D80000800000F000002000000000000C0140E8
:1053E80000100000000C0140002000000500000033
:0453F800AAAAAAAA09
:0400000508000D21C1
:00000001FF
