:020000040800F2
:100000000050002041070008090700080B070008FE
:100010000D0700080F070008110700080000000086
:100020000000000000000000000000008907000838
:10003000130700080000000089070008890700086E
:100040008907000889070008890700088907000850
:100050008907000889070008890700088907000840
:100060008907000889070008890700088907000830
:100070008907000889070008890700088907000820
:100080008907000889070008890700081507000884
:100090002107000889070008890700088907000868
:1000A0008907000825070008890700088907000854
:1000B00089070008890700088907000889070008E0
:1000C00089070008890700088907000889070008D0
:1000D00089070008890700088907000889070008C0
:1000E0008907000889070008890700080000000048
:1000F0000000000000000000000000000000000000
:0C01000000000000000000005FF808F1A3
:10010C0010B5054C237833B9044B13B10448AFF345
:10011C0000800123237010BD10000020000000009F
:10012C00601A000808B5034B1BB103490348AFF331
:10013C00008008BD0000000014000020601A0008B8
:10014C0070B586B000F0C6FE00240123124D134E8C
:10015C0001A902A8CDE90463029400F065FF2346CF
:10016C0031462A68022000F0FBFE23466A680C49DF
:10017C00022000F0F5FE2346AA680A49022000F08E
:10018C00EFFE2346EA680849022000F0E9FE00F081
:10019C00B3FE06B070BD00BF4004002000F00008A4
:1001AC0004F0000808F000080CF000080B4B10B429
:1001BC001A680B4CB2F1A53F0AD002234FF0A532BE
:1001CC00C4E900230023C4E9023310BCFFF7B8BF15
:1001DC000FCB84E80F0010BC704700BF00F0000884
:1001EC004004002010B5044600F0CAFA72B6236829
:1001FC0083F30888BFF34F8FBFF36F8F044A24F04B
:10020C00604323F07F0393606368BDE81040184798
:10021C0000ED00E0002310B586B002931A23049081
:10022C00059300F057FE01A902A800F0FDFE04465C
:10023C0000F062FE201E18BF01204042C0B206B082
:10024C0010BD2DE9F0410E460746002400F042FE99
:10025C0006F10108335D18F80420012043EA02225C
:10026C003919002300F07CFE054640B90234B4F580
:10027C00806FEFD100F040FE2846BDE8F081FF25ED
:10028C00F8E70000142210B58AB0044600210DEBEB
:10029C00020001F0B3FB0023CDE9023340F201234D
:1002AC000493022302AA089304A901AB0348ADF8F6
:1002BC00084000F0AFFB0AB010BD00BF5004002096
:1002CC00094B0A4A59680A4BAB20012908BF13464F
:1002DC00084A13600023084A1370084A1360084A3E
:1002EC001360FFF7CFBF00BF400400200088000858
:1002FC0000200008300000202C00002038000020D6
:10030C003C000020F8B5324C23788BB10022134608
:10031C00304C314D27683D44D0F810C0DE199C4557
:10032C0021D802B126602368B3F5806F21D2F8BDC5
:10033C000B782A4A1360013B192B04D9FF20BDE826
:10034C00F840FFF79FBF264B1868FFF763FF0028A4
:10035C00F4D101232370A520F1E7CA5C013305F821
:10036C00012B0122D8E7B6F5806FF6D3002ADAD03C
:10037C0026601C4D1A4B28681B68174903EB80201C
:10038C00FFF75FFF0028D9D1144A2B68126801339C
:10039C0093422B602060DED3134C6368012B14BF97
:1003AC00012302236360A3680133C4E90230FFF721
:1003BC00C7FE5A20FFF766FF60680C4B0C4A0128F9
:1003CC0014BF10461846BDE8F840FFF70BBF00BF3E
:1003DC002C0000203C0000204000002034000020B5
:1003EC0030000020380000204004002000200008CD
:1003FC000088000800B58BB001AB002103AA00F007
:10040C0052FB039BB3F5007F03D101A903A8FFF7AF
:10041C0079FF0BB05DF804FB10B590B020220021E1
:10042C0007A801F0EBFA1422002101A801F0E6FA6A
:10043C00102301220224CDE90A234FF4601306A8ED
:10044C0006940D940F9300F01BFF08B172B6FEE7F3
:10045C000F23CDE901344FF480630390CDE90430D0
:10046C00214601A801F0CEF808B172B6FEE710B033
:10047C0010BD000070B594B01822002101A801F045
:10048C00BDFA01244FF480434FF6FF760E256946E2
:10049C0010480794009302960894099500F01FFAEF
:1004AC00014608B172B6FEE718220BA801F0A6FAB5
:1004BC0044F2200307480AA9CDE912450F94119480
:1004CC000A930C9600F00BFA08B172B6FEE714B062
:1004DC0070BD00BF5004002013B500F061F9FFF7A8
:1004EC009BFF224B224C9A694FF4402142F00402AC
:1004FC009A619B691F4A03F004030193019B042337
:10050C00C4E9002300234FF480122046C4E90233CF
:10051C00C4E90412A361A38300F066F908B172B6B2
:10052C00FEE7FFF7A7FF204600F049FA08B172B6C4
:10053C00FEE70221204600F032FB08B172B6FEE75E
:10054C00FFF734FE0C4BDA68012A02D1FFF7B8FE34
:10055C00FEE75B68012B03D10848FFF743FEF7E782
:10056C00022BF5D10648FFF73DFEF1E700100240E3
:10057C0050040020006400404004002000200008CB
:10058C00008800080268034B9A4201D100F01AB9A6
:10059C00704700BF002C01400E4B82B09A6942F0AC
:1005AC0001029A619A6902F001020092009ADA69DA
:1005BC0042F08052DA61DB69074A03F08053019301
:1005CC00019B536823F0E06343F00073536002B067
:1005DC00704700BF001002400000014010B50446F7
:1005EC0086B01022002102A801F008FA22681D4BE7
:1005FC009A4235D103F5D633DA691B4842F00072C2
:10060C00DA61DA6902A902F000720092009A9A6922
:10061C0042F004029A619B6903F004030193019B6D
:10062C004FF40063029300F053FD4FF48052022309
:10063C00CDE9022303230C4802A9059300F048FDE1
:10064C0000220721132000F0DFFB132000F00CFC2C
:10065C0014200022072100F0D7FB142000F004FC2A
:10066C0006B010BD00640040000801401E4B70B580
:10067C009A6988B042F400629A619B6901A903F4FB
:10068C0000630293064603A8184D029B01F066F81E
:10069C0001F054F8164B2B6040F2E733EB60154B2E
:1006AC00B0FBF3F000230138686028462B61AB6087
:1006BC00AB6101F075F9044680B9284601F06EF87B
:1006CC00044658B9192000F0CFFB0F2E09D822464A
:1006DC003146192000F098FB074B1E60204608B0ED
:1006EC0070BD0124FAE700BF00100240780400201E
:1006FC00002C014040420F0008000020FEE7FEE7FE
:10070C00FEE7FEE7FEE77047014800F065BA00BF60
:10071C0050040020FFF7F8BF014801F06DB800BF8E
:10072C00780400204FF00062014B9A60704700BFC4
:10073C0000ED00E0FFF7F6FF0B480C490C4A0023D4
:10074C0002E0D458C4500433C4188C42F9D3094A7B
:10075C00094C002301E013600432A242FBD301F0E8
:10076C0055F9FFF7B9FE7047000000200C0000207F
:10077C00AC1A000810000020E8040020FEE77047C7
:10078C0010B54FF0FF320024044B1A611C61DA6083
:10079C00DC60FFF7F4FF204610BD00BF00100240E4
:1007AC00074A08B51368032043F01003136000F0E8
:1007BC0019FB0F20FFF75AFFFFF7EEFE002008BDD4
:1007CC0000200240034A044B11681B780B44136051
:1007DC00704700BFC004002004000020014B1868C3
:1007EC00704700BFC004002038B5044600286ED006
:1007FC0090F820300BB9FFF7F1FE2268136843F034
:10080C0001031360FFF7EAFF054623685A68D10716
:10081C0051D51A6822F002021A60FFF7DFFF054675
:10082C0023685A68920754D4227E0020012A1A6841
:10083C000CBF42F0800222F080021A60627E012A14
:10084C001A680CBF42F0400222F040021A60A27EED
:10085C00012A1A680CBF42F0200222F020021A6012
:10086C00E27E012A1A680CBF22F0100242F010023C
:10087C001A60227F012A1A680CBF42F0080222F08B
:10088C0008021A60627F012A1A680CBF42F0040247
:10089C0022F004021A60D4E902210A4321690A43B6
:1008AC0061690A43616801390A43DA6101236062B4
:1008BC0084F820300CE0FFF791FF401B0A28A4D9E4
:1008CC00636A43F400336362052384F8203001200B
:1008DC0038BDFFF783FF401B0A28A1D9F0E770B59C
:1008EC0090F820200368013A012A62D80120D3F83D
:1008FC00002242F00102C3F800224A69D3F81C52CC
:10090C0002F01F04A04025EA0005C3F81C52CD6973
:10091C00C44395BBD3F80C52CE682540C3F80C5297
:10092C008D8803EBC20245EA0645C2F840528E6838
:10093C000D8845EA0645C2F844528A697ABBD3F859
:10094C0004222240C3F804220A6962BBD3F81422A1
:10095C001440C3F814420A6A012A04BFD3F81C22BB
:10096C0002434FF0000008BFC3F81C22D3F800224A
:10097C0022F00102C3F8002270BD012DDDD1D3F8A5
:10098C000C520E680543C3F80C528D8803EBC2025F
:10099C0045EA0645C2F840528E688D89C9E7D3F8FE
:1009AC0004220243CEE7D3F814220243C3F81422E4
:1009BC00D1E7436A43F4802343620120DCE738B576
:1009CC0090F820300446012B1FD10223026880F8D6
:1009DC002030136823F001031360FFF7FFFE054678
:1009EC002368586810F0010001D1606238BDFFF730
:1009FC00F5FE401B0A28F3D9636A43F400336362A3
:100A0C00052384F820300120F0E7436A43F40023E7
:100A1C004362F8E7F0B590F820500468013D012DD1
:100A2C00A6683CD816F0E05F33D00125C6F3016010
:100A3C0085401D60D1E9025700F1180315BB0D6804
:100A4C001B0147EA4557E75004EB00130501002052
:100A5C000E692C44C3F88461097D012902BFD3F8C7
:100A6C00841141F48071C3F884115168C4F88C115D
:100A7C001268C4F88821D3F8802142F00102C3F82F
:100A8C008021F0BD4E683D4345EAC6051B01E5508B
:100A9C00DAE7436A43F4001343620120F1E7436A47
:100AAC0043F48023F8E7F0B590F82040013C012C8A
:100ABC0071D8066841B9F468A40707D1436A43F4B6
:100ACC00001343620120F0BD3469F5E706EB011514
:100ADC00D5F8B0710C0107F004079760002F50D1C6
:100AEC00D5F8B0717F0D1760D5F8B071264407F0BA
:100AFC000207D760D5F8B4713F074EBF0827D5F869
:100B0C00B47107F00F071761D5F8B471D5F8B4516B
:100B1C00C7F307272D0C97615561D6F8B8211A70C9
:100B2C0002682244D2F8B821120A5A700268224490
:100B3C00D2F8B821120C9A7002682244D2F8B8216B
:100B4C00120EDA7002682244D2F8BC211A710268C3
:100B5C002244D2F8BC21120A5A7102682244D2F8FB
:100B6C00BC21120C9A7102682244D2F8BC21120EDC
:100B7C00DA71036851B9DA6842F02002DA600020B9
:100B8C00A1E7D5F8B071FF085760ADE71A6942F0DC
:100B9C0020021A61F3E7436A43F4802391E790F84B
:100BAC002030013B012B05D8026800205369194302
:100BBC0051617047436A43F48023436201207047BC
:100BCC007047704770477047704770477047704761
:100BDC0070477047704770472DE9F84F036805461A
:100BEC005E69D3F8049016F00104D3F80880D3F8AA
:100BFC000CB0D3F810A09F6927D018F0010F07D0C4
:100C0C00012218F0020F9A6000F0A680FFF7D8FFBF
:100C1C00002418F4807F0AD04FF480722B6818F4EB
:100C2C00007F9A6000F0A7802846FFF7CAFF18F4EF
:100C3C00803F0AD04FF480322B6818F4003F9A6042
:100C4C0000F0A9802846FFF7BDFF300707D51BF041
:100C5C00100F1FBF10222B6844F40074DA60710768
:100C6C0008D51BF0080F05D008222B682846DA603F
:100C7C00FFF7ACFFB20706D52B68DB689B0702D0E9
:100C8C002846FFF7B7FB700607D51AF0100F1FBFE9
:100C9C0010222B6844F480641A61B10608D51AF04E
:100CAC00080F05D008222B6828461A61FFF790FF21
:100CBC00F20606D52B681B699B0702D02846FFF766
:100CCC0086FFB00308D519F0100F05D010222B6841
:100CDC0028465A60FFF77DFFF10308D519F0080F7D
:100CEC0005D008222B6828465A60FFF773FF3204A0
:100CFC0029D519F0040F2A6823D0F30503D5F8077A
:100D0C0048BF44F00104B10503D5BB0748BF44F00C
:100D1C000204700503D5790748BF44F00404330579
:100D2C000FD517F070030CD0402B54D043D8202B88
:100D3C004BD0302B4CD0102B44D0936923F0700344
:100D4C009361042353602CB16B6A284623436B6276
:100D5C00FFF741FFBDE8F88F18F0040F05D118F02C
:100D6C00080F05D1FFF72FFF52E74FF4006450E74F
:100D7C004FF480544DE718F4806F02D044F40054C3
:100D8C0055E718F4006F02D044F480444FE728462E
:100D9C00FFF71AFF4BE718F4802F02D044F40044FD
:100DAC0053E718F4002F02D044F480344DE7284662
:100DBC00FFF70BFF49E7502B10D0602BBDD144F44B
:100DCC008074BAE744F00804B7E744F01004B4E7C1
:100DDC0044F02004B1E744F04004AEE744F0800452
:100DEC00ABE7000007490302CA6803F4E06322F48E
:100DFC00E0621204120C134343F0BF6343F400335C
:100E0C00CB60704700ED00E0154B30B5DC68C4F3E7
:100E1C000224C4F10703251D042B28BF0423062D2F
:100E2C004FF0FF3594BF0024033C05FA03F321EA8D
:100E3C000303A54022EA0502A340002843EA02036B
:100E4C00ACBF00F16040074A4FEA0313DBB2ABBF03
:100E5C0000F5614000F00F0080F80033135430BDF2
:100E6C0000ED00E014ED00E0002807DB0123410950
:100E7C00034A00F01F00834042F82130704700BF46
:100E8C0000E100E0114AD36813F0100305D01049BB
:100E9C00CB6943F00203CB611023D268500706D50F
:100EAC000B4943F00403CA6942F00102CA61074AC4
:100EBC00D169C90708D50648C16941F00401C1616F
:100ECC00D16921F00101D161D3607047002002404B
:100EDC00C8040020064B186910F0800007D0054AA2
:100EEC005A6002F188325A601869C0F3C01070471A
:100EFC000020024023016745034A0020136943F098
:100F0C0080031361704700BF0020024070B5054696
:100F1C00FFF764FC0646114CE368D80712D4E3686B
:100F2C00990644BF2023E360E368DA0606D4E3693C
:100F3C00DB0703D4E06810F0040007D0FFF7A2FF32
:100F4C00012003E06B1CE7D00DB9032070BDFFF747
:100F5C0045FC801BA842DFD9F7E700BF0020024008
:100F6C002DE9F84FDFF894A01F469AF81830054683
:100F7C00012B884691463FD001234CF250308AF821
:100F8C001830FFF7C3FF90BB012D03D0022D14BF07
:100F9C000425022500263346DFF864B03401C4F181
:100FAC002001A4F1200207FA01F129FA04F4CAF88D
:100FBC001C300C4327FA02F21443DBF81020A4B2C5
:100FCC0042F00102CBF810204CF2503028F81640B9
:100FDC00FFF79CFFDBF8102022F00102CBF8102069
:100FEC0028B90136F2B295424FF00003D6D800234F
:100FFC008AF81830BDE8F88F0220FBE7C8040020FF
:10100C00002002400022064BDA61064B1A6942F0BE
:10101C0002021A6158611A6942F040021A61704763
:10102C00C8040020002002402DE9F041264F05465F
:10103C003B7E8846012B44D001243C7603684CF25D
:10104C005030022B1AD1FFF761FF20B10120002391
:10105C003B76BDE8F0811D4CF86123694CF25030B1
:10106C0043F004032361236943F040032361FFF73A
:10107C004DFF236923F004032361E8E7FFF746FFE4
:10108C000028E3D14FF0FF33C8F800302046AE689B
:10109C000E4CD5E9023203EB8223B342D7D930464A
:1010AC00FFF7B0FF4CF25030FFF730FF236923F00D
:1010BC000203236110B1C8F80060C8E706F580662A
:1010CC00E7E70220C5E700BFC8040020002002406B
:1010DC002DE9F74F00242646DFF888C1624BDFF874
:1010EC008CE1DFF88C810A6832FA06F502D103B084
:1010FC00BDE8F08F0127B74002EA070537EA020284
:10110C007AD14A68032A07D8013A022A00F283806E
:10111C00DFE802F092979D00122A00F095806DD8BE
:10112C00112A00F08B80FF2D98BF81464FF00F0BDA
:10113C0088BF00F104094FEA8602D9F8007088BF15
:10114C00203A0BFA02FA27EA0A0704FA02F21743CA
:10115C00C9F80070D1F8049019F0805F4CD0DCF81D
:10116C00182026F0030742F00102CCF81820DCF816
:10117C00182007F1804702F00102019207F5803731
:10118C0006F0030A019A4FEA8A0ABA680BFA0AFBBC
:10119C0022EA0B0B374A90425DD002F580629042F6
:1011AC005BD002F58062904259D002F58062904289
:1011BC0014BF0422032202FA0AF242EA0B02BA60BA
:1011CC009A6819F4801F14BF2A43AA439A60DA68FC
:1011DC0019F4001F14BF2A43AA43DA605A6819F4A1
:1011EC00003F14BF2A43AA435A601A6819F4803F7F
:1011FC0014BF2A43AA431A60013674E7DFF87890CB
:10120C004A4508D010D8A9F580194A4503D0724533
:10121C0001D0424587D18A68DAB1012A4FF008041F
:10122C000CBF076147617EE7DFF850904A45F2D06A
:10123C0009F580394A45EDE7CC6874E7CC6804348D
:10124C0071E7CC6808346EE7CC680C346BE700248B
:10125C0069E7042467E70022ADE70122ABE702222D
:10126C00A9E700BF0010024000040140000021105B
:10127C000000111000080140000022100000311085
:10128C002DE9F341054638B30368DB0710D42B680E
:10129C009F075ED42B68190700F195802B685A07BD
:1012AC0000F1C180EB69002B40F02C81002029E07B
:1012BC00904C636803F00C03042B07D0636803F0B5
:1012CC000C03082B0AD16368DE0307D523689C0343
:1012DC00DDD56B68002BDAD1012013E06B68B3F518
:1012EC00803F12D1236843F480332360FFF776FAF2
:1012FC00064623689803CAD4FFF770FA801B64284B
:10130C00F7D9032002B0BDE8F0819BB9236823F420
:10131C0080332360236823F480232360FFF75EFA75
:10132C00064623689903B2D5FFF758FA801B642848
:10133C00F7D9E6E7B3F5A02F236803D143F4802354
:10134C002360CFE723F480332360236823F48023C6
:10135C00CBE7684C636813F00C0F07D0636803F09D
:10136C000C03082B10D16368DA030DD423689B0798
:10137C0002D52B69012BAFD123686A6923F0F803DE
:10138C0043EAC203236085E72A695B4B6AB10122F9
:10139C001A60FFF723FA064623689F07ECD4FFF781
:1013AC001DFA801B0228F7D9ABE71A60FFF716FA73
:1013BC000646236898077FF56DAFFFF70FFA801B81
:1013CC000228F6D99DE7AA694A4E4B4BE2B101229D
:1013DC00C3F88024FFF702FA0446736A9B070DD505
:1013EC004FF4FA52454B1B68B3FBF2F3019300BF69
:1013FC00019B5A1E0192002BF9D14FE7FFF7EEF932
:10140C00001B0228E9D97CE7C3F88024FFF7E6F932
:10141C000446736A9F077FF541AFFFF7DFF9001BA6
:10142C000228F6D96DE7334CE369D80024D40127A0
:10143C00E36943F08053E361E36903F08053009365
:10144C00009B2F4E3368D90518D5EB68012B26D19C
:10145C00236A43F001032362FFF7C0F941F2883895
:10146C000646236A9B073FD5002F3FF41BAFE36969
:10147C0023F08053E36115E70027E2E7336843F478
:10148C0080733360FFF7AAF980463368DA05DCD441
:10149C00FFF7A4F9A0EB08006428F6D931E7ABB943
:1014AC00236A41F2883823F001032362236A23F074
:1014BC0004032362FFF792F90646236A9807D3D5F3
:1014CC00FFF78CF9801B4045F7D91AE7052B236AE7
:1014DC0003D143F004032362BAE723F00103236230
:1014EC00236A23F00403B6E7FFF778F9801B404525
:1014FC00B7D906E70010024000004242000000206D
:10150C00007000402A4C626802F00C02082A3ED09F
:10151C000022022B274B1A662CD1FFF75FF90646E7
:10152C002368990120D42B6AB3F5803F05D16268FA
:10153C00A96822F400320A436260696A62680B434C
:10154C0022F474121343012263601A4B1A66FFF7DC
:10155C0045F9054623689A013FF5A8AEFFF73EF919
:10156C00401B0228F6D9CCE6FFF738F9801B02287D
:10157C00D6D9C6E6FFF732F9054623689B017FF5FD
:10158C0095AEFFF72BF9401B0228F6D9B9E6012BD3
:10159C003FF4A2AE60682B6A00F480329A427FF46A
:1015AC009BAE6B6A00F47010C01A18BF0120A9E63C
:1015BC0000100240000042420D4A536803F00C0137
:1015CC00082912D10B48C3F38341DB03405C09D5D6
:1015DC005368094AC3F340435043084AD35CB0FBF9
:1015EC00F3F07047064B584370470348704700BFF1
:1015FC0000100240921A000800127A00901A00089B
:10160C0000093D002DE9F0410D46044610B90120BA
:10161C00BDE8F081444A136803F007038B4228D3DA
:10162C0021688E0730D4CA0743D43F4A136803F0AD
:10163C000703AB4265D822683C4D12F0040F6CD105
:10164C00130706D56B68226923F4605343EAC2037F
:10165C006B60FFF7B1FF6B68354AC3F30313D35CC0
:10166C00D840344B1860344B1868FEF7FFFF00204D
:10167C00CEE7136823F007030B431360136803F0E2
:10168C0007038B42C3D1CBE7284B11F0040F1EBFCD
:10169C005A6842F4E0625A60080742BF5A6842F442
:1016AC0060525A605A68A06822F0F00202435A60F5
:1016BC00B9E762681D4E012A33681AD113F4003F52
:1016CC00A5D0736841F2883823F003031343736089
:1016DC00FFF784F807467368626803F00C03B3EBFA
:1016EC00820FA2D0FFF77AF8C01B4045F3D9032034
:1016FC008EE7022A02D113F0007FE1E713F0020F0C
:10170C00DEE7136823F007032B431360136803F021
:10171C000703AB427FF47BAF8DE76B68E16823F482
:10172C00E0630B436B608BE700200240001002402B
:10173C00801A00080000002008000020044B054A15
:10174C005B68C3F3C223D35C034A1068D84070476C
:10175C0000100240781A0008000000200F230360DC
:10176C000B4B5A6802F0030242605A6802F0F00216
:10177C0082605A6802F4E062C2605B68DB0803F4C2
:10178C00E0630361034B1B6803F007030B607047B6
:10179C0000100240002002407047000090F83D30DD
:1017AC00012B20D1022380F83D300368DA6842F027
:1017BC000102DA600D4A93420AD0B3F1804F07D090
:1017CC00A2F59432934203D002F58062934204D185
:1017DC009A6802F00702062A03D01A6842F0010246
:1017EC001A60002070470120704700BF002C014098
:1017FC007047704770477047036870B5DD681E69A5
:10180C000446B1070DD5AA070BD56FF002021A6179
:10181C00012202779B699B0769D0FFF7EAFF00233F
:10182C002377710710D56A070ED56FF00402236871
:10183C0020461A61022222779B6913F4407F5CD008
:10184C00FFF7D7FF0023237733070FD528070DD5D4
:10185C006FF00802236820461A6104222277DB69A4
:10186C00990750D0FFF7C5FF00232377F20610D558
:10187C00EB060ED56FF01002236820461A61082281
:10188C002277DB6913F4407F43D0FFF7B2FF0023CC
:10189C002377F00708D5E90706D56FF00102236816
:1018AC0020461A61FEF76EFE320608D52B0606D5C9
:1018BC006FF08002236820461A6100F09EF87006D3
:1018CC0008D5690606D56FF04002236820461A61D8
:1018DC00FFF791FFB20622D5AB0620D56FF02002A0
:1018EC0023682046BDE870401A6100F085B8FFF708
:1018FC007FFF2046FFF77EFF91E7FFF779FF204639
:10190C00FFF778FF9EE7FFF773FF2046FFF772FFA4
:10191C00AAE7FFF76DFF2046FFF76CFFB7E770BD36
:10192C001E4A036890420AD0B0F1804F07D0A2F54E
:10193C009432904203D002F58062904215D14A68ED
:10194C0023F070031343154A90420AD0B0F1804F34
:10195C0007D0A2F59432904203D002F580629042F7
:10196C0003D1CA6823F4407313434A6923F08003FC
:10197C00134303608B68C3620B688362074B984206
:10198C0004BF0B690363012343610369DB0742BF97
:10199C00036923F001030361704700BF002C014071
:1019AC0010B5044630B390F83D3003F0FF021BB97C
:1019BC0080F83C20FFF7F0FE0223206884F83D30CD
:1019CC00211DFFF7ADFF0123002084F8463084F879
:1019DC003E3084F83F3084F8403084F8413084F84D
:1019EC00423084F8433084F8443084F8453084F82D
:1019FC003D3010BD0120FCE77047704703460244A0
:101A0C00934200D1704703F8011BF9E770B500262B
:101A1C000C4D0D4C641BA410A64209D100F01AF811
:101A2C0000260A4D0A4C641BA410A64205D170BDB9
:101A3C0055F8043B98470136EEE755F8043B9847B8
:101A4C000136F2E7A41A0008A41A0008A41A000828
:101A5C00A81A0008F8B500BFF8BC08BC9E46704731
:0C1A6C00F8B500BFF8BC08BC9E467047EF
:101A78000000000001020304000000000000000054
:101A88000102030406070809010202030405060708
:0C1A980008090A0B0C0D0E0F10100000C6
:041AA4003101000804
:041AA8000D01000824
:0C1AAC0000127A00010000001000000091
:0400000508000741A7
:00000001FF
